{
  "_format": "hh-sol-artifact-1",
  "contractName": "Airdropper",
  "sourceName": "contracts/Airdropper.sol",
  "abi": [
    {
      "inputs": [],
      "stateMutability": "payable",
      "type": "constructor"
    },
    {
      "anonymous": false,
      "inputs": [
        {
          "indexed": true,
          "internalType": "address",
          "name": "previousOwner",
          "type": "address"
        },
        {
          "indexed": true,
          "internalType": "address",
          "name": "newOwner",
          "type": "address"
        }
      ],
      "name": "OwnershipTransferred",
      "type": "event"
    },
    {
      "inputs": [
        {
          "internalType": "address[]",
          "name": "_recipients",
          "type": "address[]"
        },
        {
          "internalType": "uint256",
          "name": "_values",
          "type": "uint256"
        },
        {
          "internalType": "address",
          "name": "_tokenAddress",
          "type": "address"
        }
      ],
      "name": "AirTransfer",
      "outputs": [
        {
          "internalType": "bool",
          "name": "",
          "type": "bool"
        }
      ],
      "stateMutability": "nonpayable",
      "type": "function"
    },
    {
      "inputs": [],
      "name": "getTime",
      "outputs": [
        {
          "internalType": "uint256",
          "name": "",
          "type": "uint256"
        }
      ],
      "stateMutability": "view",
      "type": "function"
    },
    {
      "inputs": [],
      "name": "owner",
      "outputs": [
        {
          "internalType": "address",
          "name": "",
          "type": "address"
        }
      ],
      "stateMutability": "view",
      "type": "function"
    },
    {
      "inputs": [
        {
          "internalType": "address",
          "name": "newOwner",
          "type": "address"
        }
      ],
      "name": "transferOwnership",
      "outputs": [],
      "stateMutability": "nonpayable",
      "type": "function"
    },
    {
      "inputs": [],
      "name": "waiveOwnership",
      "outputs": [],
      "stateMutability": "nonpayable",
      "type": "function"
    },
    {
      "inputs": [
        {
          "internalType": "address",
          "name": "_tokenAddress",
          "type": "address"
        }
      ],
      "name": "withdrawalToken",
      "outputs": [],
      "stateMutability": "nonpayable",
      "type": "function"
    }
  ],
  "bytecode": "0x608060405260006100146100b760201b60201c565b9050806000806101000a81548173ffffffffffffffffffffffffffffffffffffffff021916908373ffffffffffffffffffffffffffffffffffffffff1602179055508073ffffffffffffffffffffffffffffffffffffffff16600073ffffffffffffffffffffffffffffffffffffffff167f8be0079c531659141344cd1fd0a4f28419497f9722a3daafe3b4186f6b6457e060405160405180910390a3506100bf565b600033905090565b610d46806100ce6000396000f3fe608060405234801561001057600080fd5b50600436106100625760003560e01c8063062e43a114610067578063557ed1ba1461008357806376884153146100a15780638da5cb5b146100d1578063914eb66a146100ef578063f2fde38b146100f9575b600080fd5b610081600480360381019061007c91906107e2565b610115565b005b61008b6102b2565b6040516100989190610828565b60405180910390f35b6100bb60048036038101906100b691906109c8565b6102ba565b6040516100c89190610a52565b60405180910390f35b6100d9610429565b6040516100e69190610a7c565b60405180910390f35b6100f7610452565b005b610113600480360381019061010e91906107e2565b6105a7565b005b61011d610768565b73ffffffffffffffffffffffffffffffffffffffff1660008054906101000a900473ffffffffffffffffffffffffffffffffffffffff1673ffffffffffffffffffffffffffffffffffffffff16146101aa576040517f08c379a00000000000000000000000000000000000000000000000000000000081526004016101a190610af4565b60405180910390fd5b60008190508073ffffffffffffffffffffffffffffffffffffffff1663a9059cbb6101d3610429565b8373ffffffffffffffffffffffffffffffffffffffff166370a08231306040518263ffffffff1660e01b815260040161020c9190610a7c565b602060405180830381865afa158015610229573d6000803e3d6000fd5b505050506040513d601f19601f8201168201806040525081019061024d9190610b29565b6040518363ffffffff1660e01b815260040161026a929190610b56565b6020604051808303816000875af1158015610289573d6000803e3d6000fd5b505050506040513d601f19601f820116820180604052508101906102ad9190610bab565b505050565b600042905090565b60006102c4610768565b73ffffffffffffffffffffffffffffffffffffffff1660008054906101000a900473ffffffffffffffffffffffffffffffffffffffff1673ffffffffffffffffffffffffffffffffffffffff1614610351576040517f08c379a000000000000000000000000000000000000000000000000000000000815260040161034890610af4565b60405180910390fd5b600084511161035f57600080fd5b600082905060005b855181101561041c578173ffffffffffffffffffffffffffffffffffffffff1663a9059cbb87838151811061039f5761039e610bd8565b5b6020026020010151876040518363ffffffff1660e01b81526004016103c5929190610b56565b6020604051808303816000875af11580156103e4573d6000803e3d6000fd5b505050506040513d601f19601f820116820180604052508101906104089190610bab565b50808061041490610c36565b915050610367565b5060019150509392505050565b60008060009054906101000a900473ffffffffffffffffffffffffffffffffffffffff16905090565b61045a610768565b73ffffffffffffffffffffffffffffffffffffffff1660008054906101000a900473ffffffffffffffffffffffffffffffffffffffff1673ffffffffffffffffffffffffffffffffffffffff16146104e7576040517f08c379a00000000000000000000000000000000000000000000000000000000081526004016104de90610af4565b60405180910390fd5b61dead73ffffffffffffffffffffffffffffffffffffffff1660008054906101000a900473ffffffffffffffffffffffffffffffffffffffff1673ffffffffffffffffffffffffffffffffffffffff167f8be0079c531659141344cd1fd0a4f28419497f9722a3daafe3b4186f6b6457e060405160405180910390a361dead6000806101000a81548173ffffffffffffffffffffffffffffffffffffffff021916908373ffffffffffffffffffffffffffffffffffffffff160217905550565b6105af610768565b73ffffffffffffffffffffffffffffffffffffffff1660008054906101000a900473ffffffffffffffffffffffffffffffffffffffff1673ffffffffffffffffffffffffffffffffffffffff161461063c576040517f08c379a000000000000000000000000000000000000000000000000000000000815260040161063390610af4565b60405180910390fd5b600073ffffffffffffffffffffffffffffffffffffffff168173ffffffffffffffffffffffffffffffffffffffff16036106ab576040517f08c379a00000000000000000000000000000000000000000000000000000000081526004016106a290610cf0565b60405180910390fd5b8073ffffffffffffffffffffffffffffffffffffffff1660008054906101000a900473ffffffffffffffffffffffffffffffffffffffff1673ffffffffffffffffffffffffffffffffffffffff167f8be0079c531659141344cd1fd0a4f28419497f9722a3daafe3b4186f6b6457e060405160405180910390a3806000806101000a81548173ffffffffffffffffffffffffffffffffffffffff021916908373ffffffffffffffffffffffffffffffffffffffff16021790555050565b600033905090565b6000604051905090565b600080fd5b600080fd5b600073ffffffffffffffffffffffffffffffffffffffff82169050919050565b60006107af82610784565b9050919050565b6107bf816107a4565b81146107ca57600080fd5b50565b6000813590506107dc816107b6565b92915050565b6000602082840312156107f8576107f761077a565b5b6000610806848285016107cd565b91505092915050565b6000819050919050565b6108228161080f565b82525050565b600060208201905061083d6000830184610819565b92915050565b600080fd5b6000601f19601f8301169050919050565b7f4e487b7100000000000000000000000000000000000000000000000000000000600052604160045260246000fd5b61089182610848565b810181811067ffffffffffffffff821117156108b0576108af610859565b5b80604052505050565b60006108c3610770565b90506108cf8282610888565b919050565b600067ffffffffffffffff8211156108ef576108ee610859565b5b602082029050602081019050919050565b600080fd5b6000610918610913846108d4565b6108b9565b9050808382526020820190506020840283018581111561093b5761093a610900565b5b835b81811015610964578061095088826107cd565b84526020840193505060208101905061093d565b5050509392505050565b600082601f83011261098357610982610843565b5b8135610993848260208601610905565b91505092915050565b6109a58161080f565b81146109b057600080fd5b50565b6000813590506109c28161099c565b92915050565b6000806000606084860312156109e1576109e061077a565b5b600084013567ffffffffffffffff8111156109ff576109fe61077f565b5b610a0b8682870161096e565b9350506020610a1c868287016109b3565b9250506040610a2d868287016107cd565b9150509250925092565b60008115159050919050565b610a4c81610a37565b82525050565b6000602082019050610a676000830184610a43565b92915050565b610a76816107a4565b82525050565b6000602082019050610a916000830184610a6d565b92915050565b600082825260208201905092915050565b7f4f776e61626c653a2063616c6c6572206973206e6f7420746865206f776e6572600082015250565b6000610ade602083610a97565b9150610ae982610aa8565b602082019050919050565b60006020820190508181036000830152610b0d81610ad1565b9050919050565b600081519050610b238161099c565b92915050565b600060208284031215610b3f57610b3e61077a565b5b6000610b4d84828501610b14565b91505092915050565b6000604082019050610b6b6000830185610a6d565b610b786020830184610819565b9392505050565b610b8881610a37565b8114610b9357600080fd5b50565b600081519050610ba581610b7f565b92915050565b600060208284031215610bc157610bc061077a565b5b6000610bcf84828501610b96565b91505092915050565b7f4e487b7100000000000000000000000000000000000000000000000000000000600052603260045260246000fd5b7f4e487b7100000000000000000000000000000000000000000000000000000000600052601160045260246000fd5b6000610c418261080f565b91507fffffffffffffffffffffffffffffffffffffffffffffffffffffffffffffffff8203610c7357610c72610c07565b5b600182019050919050565b7f4f776e61626c653a206e6577206f776e657220697320746865207a65726f206160008201527f6464726573730000000000000000000000000000000000000000000000000000602082015250565b6000610cda602683610a97565b9150610ce582610c7e565b604082019050919050565b60006020820190508181036000830152610d0981610ccd565b905091905056fea2646970667358221220ebf9dd3c9fffc86ab7aea15e71240e5cb8bd941affdd567e913dad5c52f8be4164736f6c63430008110033",
  "linkReferences": {},
  "deployedLinkReferences": {}
}