{
  "_format": "hh-sol-artifact-1",
  "contractName": "RandomNumberGenerator",
  "sourceName": "contracts/RandomNumberGenerator.sol",
  "abi": [
    {
      "inputs": [
        {
          "internalType": "address",
          "name": "_vrfCoordinator",
          "type": "address"
        },
        {
          "internalType": "address",
          "name": "_linkToken",
          "type": "address"
        }
      ],
      "stateMutability": "nonpayable",
      "type": "constructor"
    },
    {
      "anonymous": false,
      "inputs": [
        {
          "indexed": true,
          "internalType": "address",
          "name": "previousOwner",
          "type": "address"
        },
        {
          "indexed": true,
          "internalType": "address",
          "name": "newOwner",
          "type": "address"
        }
      ],
      "name": "OwnershipTransferred",
      "type": "event"
    },
    {
      "inputs": [],
      "name": "fee",
      "outputs": [
        {
          "internalType": "uint256",
          "name": "",
          "type": "uint256"
        }
      ],
      "stateMutability": "view",
      "type": "function"
    },
    {
      "inputs": [
        {
          "internalType": "uint256",
          "name": "_seed",
          "type": "uint256"
        }
      ],
      "name": "getRandomNumber",
      "outputs": [],
      "stateMutability": "nonpayable",
      "type": "function"
    },
    {
      "inputs": [],
      "name": "keyHash",
      "outputs": [
        {
          "internalType": "bytes32",
          "name": "",
          "type": "bytes32"
        }
      ],
      "stateMutability": "view",
      "type": "function"
    },
    {
      "inputs": [],
      "name": "latestLotteryId",
      "outputs": [
        {
          "internalType": "uint256",
          "name": "",
          "type": "uint256"
        }
      ],
      "stateMutability": "view",
      "type": "function"
    },
    {
      "inputs": [],
      "name": "latestRequestId",
      "outputs": [
        {
          "internalType": "bytes32",
          "name": "",
          "type": "bytes32"
        }
      ],
      "stateMutability": "view",
      "type": "function"
    },
    {
      "inputs": [],
      "name": "owner",
      "outputs": [
        {
          "internalType": "address",
          "name": "",
          "type": "address"
        }
      ],
      "stateMutability": "view",
      "type": "function"
    },
    {
      "inputs": [],
      "name": "pancakeSwapLottery",
      "outputs": [
        {
          "internalType": "address",
          "name": "",
          "type": "address"
        }
      ],
      "stateMutability": "view",
      "type": "function"
    },
    {
      "inputs": [],
      "name": "randomResult",
      "outputs": [
        {
          "internalType": "uint32",
          "name": "",
          "type": "uint32"
        }
      ],
      "stateMutability": "view",
      "type": "function"
    },
    {
      "inputs": [
        {
          "internalType": "bytes32",
          "name": "requestId",
          "type": "bytes32"
        },
        {
          "internalType": "uint256",
          "name": "randomness",
          "type": "uint256"
        }
      ],
      "name": "rawFulfillRandomness",
      "outputs": [],
      "stateMutability": "nonpayable",
      "type": "function"
    },
    {
      "inputs": [],
      "name": "renounceOwnership",
      "outputs": [],
      "stateMutability": "nonpayable",
      "type": "function"
    },
    {
      "inputs": [
        {
          "internalType": "uint256",
          "name": "_fee",
          "type": "uint256"
        }
      ],
      "name": "setFee",
      "outputs": [],
      "stateMutability": "nonpayable",
      "type": "function"
    },
    {
      "inputs": [
        {
          "internalType": "bytes32",
          "name": "_keyHash",
          "type": "bytes32"
        }
      ],
      "name": "setKeyHash",
      "outputs": [],
      "stateMutability": "nonpayable",
      "type": "function"
    },
    {
      "inputs": [
        {
          "internalType": "address",
          "name": "_pancakeSwapLottery",
          "type": "address"
        }
      ],
      "name": "setLotteryAddress",
      "outputs": [],
      "stateMutability": "nonpayable",
      "type": "function"
    },
    {
      "inputs": [
        {
          "internalType": "address",
          "name": "newOwner",
          "type": "address"
        }
      ],
      "name": "transferOwnership",
      "outputs": [],
      "stateMutability": "nonpayable",
      "type": "function"
    },
    {
      "inputs": [],
      "name": "viewLatestLotteryId",
      "outputs": [
        {
          "internalType": "uint256",
          "name": "",
          "type": "uint256"
        }
      ],
      "stateMutability": "view",
      "type": "function"
    },
    {
      "inputs": [],
      "name": "viewRandomResult",
      "outputs": [
        {
          "internalType": "uint32",
          "name": "",
          "type": "uint32"
        }
      ],
      "stateMutability": "view",
      "type": "function"
    },
    {
      "inputs": [
        {
          "internalType": "address",
          "name": "_tokenAddress",
          "type": "address"
        },
        {
          "internalType": "uint256",
          "name": "_tokenAmount",
          "type": "uint256"
        }
      ],
      "name": "withdrawTokens",
      "outputs": [],
      "stateMutability": "nonpayable",
      "type": "function"
    }
  ],
  "bytecode": "0x60c06040523480156200001157600080fd5b5060405162001eeb38038062001eeb8339818101604052810190620000379190620001ce565b81818173ffffffffffffffffffffffffffffffffffffffff1660a08173ffffffffffffffffffffffffffffffffffffffff16815250508073ffffffffffffffffffffffffffffffffffffffff1660808173ffffffffffffffffffffffffffffffffffffffff168152505050506000620000b56200015c60201b60201c565b905080600160006101000a81548173ffffffffffffffffffffffffffffffffffffffff021916908373ffffffffffffffffffffffffffffffffffffffff1602179055508073ffffffffffffffffffffffffffffffffffffffff16600073ffffffffffffffffffffffffffffffffffffffff167f8be0079c531659141344cd1fd0a4f28419497f9722a3daafe3b4186f6b6457e060405160405180910390a350505062000215565b600033905090565b600080fd5b600073ffffffffffffffffffffffffffffffffffffffff82169050919050565b6000620001968262000169565b9050919050565b620001a88162000189565b8114620001b457600080fd5b50565b600081519050620001c8816200019d565b92915050565b60008060408385031215620001e857620001e762000164565b5b6000620001f885828601620001b7565b92505060206200020b85828601620001b7565b9150509250929050565b60805160a051611ca2620002496000396000818161068e0152610d420152600081816108a40152610d060152611ca26000f3fe608060405234801561001057600080fd5b506004361061010b5760003560e01c80638da5cb5b116100a2578063b37217a411610071578063b37217a41461025a578063ddca3f4314610276578063eed8e1ee14610294578063f2fde38b146102b2578063fbe5d917146102ce5761010b565b80638da5cb5b146101e657806394985ddd146102045780639854471014610220578063a1c4f55a1461023c5761010b565b80634bf3057d116100de5780634bf3057d1461018457806361728f39146101a257806369fe0e2d146101c0578063715018a6146101dc5761010b565b806306b091f9146101105780631aa46f591461012c5780632a332b2a1461014a57806342619f6614610166575b600080fd5b61012a600480360381019061012591906111c6565b6102ec565b005b610134610397565b604051610141919061121f565b60405180910390f35b610164600480360381019061015f919061123a565b61039d565b005b61016e61045d565b60405161017b9190611286565b60405180910390f35b61018c610473565b60405161019991906112b0565b60405180910390f35b6101aa610499565b6040516101b7919061121f565b60405180910390f35b6101da60048036038101906101d591906112cb565b61049f565b005b6101e4610525565b005b6101ee610662565b6040516101fb91906112b0565b60405180910390f35b61021e60048036038101906102199190611324565b61068c565b005b61023a60048036038101906102359190611364565b610728565b005b6102446107ae565b6040516102519190611286565b60405180910390f35b610274600480360381019061026f91906112cb565b6107c8565b005b61027e610995565b60405161028b91906113a0565b60405180910390f35b61029c61099b565b6040516102a991906113a0565b60405180910390f35b6102cc60048036038101906102c7919061123a565b6109a1565b005b6102d6610b4c565b6040516102e391906113a0565b60405180910390f35b6102f4610b56565b73ffffffffffffffffffffffffffffffffffffffff16610312610662565b73ffffffffffffffffffffffffffffffffffffffff1614610368576040517f08c379a000000000000000000000000000000000000000000000000000000000815260040161035f90611418565b60405180910390fd5b61039333828473ffffffffffffffffffffffffffffffffffffffff16610b5e9092919063ffffffff16565b5050565b60045481565b6103a5610b56565b73ffffffffffffffffffffffffffffffffffffffff166103c3610662565b73ffffffffffffffffffffffffffffffffffffffff1614610419576040517f08c379a000000000000000000000000000000000000000000000000000000000815260040161041090611418565b60405180910390fd5b80600260006101000a81548173ffffffffffffffffffffffffffffffffffffffff021916908373ffffffffffffffffffffffffffffffffffffffff16021790555050565b600560009054906101000a900463ffffffff1681565b600260009054906101000a900473ffffffffffffffffffffffffffffffffffffffff1681565b60035481565b6104a7610b56565b73ffffffffffffffffffffffffffffffffffffffff166104c5610662565b73ffffffffffffffffffffffffffffffffffffffff161461051b576040517f08c379a000000000000000000000000000000000000000000000000000000000815260040161051290611418565b60405180910390fd5b8060068190555050565b61052d610b56565b73ffffffffffffffffffffffffffffffffffffffff1661054b610662565b73ffffffffffffffffffffffffffffffffffffffff16146105a1576040517f08c379a000000000000000000000000000000000000000000000000000000000815260040161059890611418565b60405180910390fd5b600073ffffffffffffffffffffffffffffffffffffffff16600160009054906101000a900473ffffffffffffffffffffffffffffffffffffffff1673ffffffffffffffffffffffffffffffffffffffff167f8be0079c531659141344cd1fd0a4f28419497f9722a3daafe3b4186f6b6457e060405160405180910390a36000600160006101000a81548173ffffffffffffffffffffffffffffffffffffffff021916908373ffffffffffffffffffffffffffffffffffffffff160217905550565b6000600160009054906101000a900473ffffffffffffffffffffffffffffffffffffffff16905090565b7f000000000000000000000000000000000000000000000000000000000000000073ffffffffffffffffffffffffffffffffffffffff163373ffffffffffffffffffffffffffffffffffffffff161461071a576040517f08c379a000000000000000000000000000000000000000000000000000000000815260040161071190611484565b60405180910390fd5b6107248282610be4565b5050565b610730610b56565b73ffffffffffffffffffffffffffffffffffffffff1661074e610662565b73ffffffffffffffffffffffffffffffffffffffff16146107a4576040517f08c379a000000000000000000000000000000000000000000000000000000000815260040161079b90611418565b60405180910390fd5b8060038190555050565b6000600560009054906101000a900463ffffffff16905090565b600260009054906101000a900473ffffffffffffffffffffffffffffffffffffffff1673ffffffffffffffffffffffffffffffffffffffff163373ffffffffffffffffffffffffffffffffffffffff1614610858576040517f08c379a000000000000000000000000000000000000000000000000000000000815260040161084f906114f0565b60405180910390fd5b6000801b6003540361089f576040517f08c379a00000000000000000000000000000000000000000000000000000000081526004016108969061155c565b60405180910390fd5b6006547f000000000000000000000000000000000000000000000000000000000000000073ffffffffffffffffffffffffffffffffffffffff166370a08231306040518263ffffffff1660e01b81526004016108fb91906112b0565b602060405180830381865afa158015610918573d6000803e3d6000fd5b505050506040513d601f19601f8201168201806040525081019061093c9190611591565b101561097d576040517f08c379a00000000000000000000000000000000000000000000000000000000081526004016109749061160a565b60405180910390fd5b61098c60035460065483610d02565b60048190555050565b60065481565b60075481565b6109a9610b56565b73ffffffffffffffffffffffffffffffffffffffff166109c7610662565b73ffffffffffffffffffffffffffffffffffffffff1614610a1d576040517f08c379a0000000000000000000000000000000000000000000000000000000008152600401610a1490611418565b60405180910390fd5b600073ffffffffffffffffffffffffffffffffffffffff168173ffffffffffffffffffffffffffffffffffffffff1603610a8c576040517f08c379a0000000000000000000000000000000000000000000000000000000008152600401610a839061169c565b60405180910390fd5b8073ffffffffffffffffffffffffffffffffffffffff16600160009054906101000a900473ffffffffffffffffffffffffffffffffffffffff1673ffffffffffffffffffffffffffffffffffffffff167f8be0079c531659141344cd1fd0a4f28419497f9722a3daafe3b4186f6b6457e060405160405180910390a380600160006101000a81548173ffffffffffffffffffffffffffffffffffffffff021916908373ffffffffffffffffffffffffffffffffffffffff16021790555050565b6000600754905090565b600033905090565b610bdf8363a9059cbb60e01b8484604051602401610b7d9291906116bc565b604051602081830303815290604052907bffffffffffffffffffffffffffffffffffffffffffffffffffffffff19166020820180517bffffffffffffffffffffffffffffffffffffffffffffffffffffffff8381831617835250505050610e51565b505050565b8160045414610c28576040517f08c379a0000000000000000000000000000000000000000000000000000000008152600401610c1f90611731565b60405180910390fd5b620f424081610c379190611780565b620f4240610c4591906117e0565b600560006101000a81548163ffffffff021916908363ffffffff160217905550600260009054906101000a900473ffffffffffffffffffffffffffffffffffffffff1673ffffffffffffffffffffffffffffffffffffffff166380a061606040518163ffffffff1660e01b81526004016020604051808303816000875af1158015610cd4573d6000803e3d6000fd5b505050506040513d601f19601f82011682018060405250810190610cf89190611591565b6007819055505050565b60007f000000000000000000000000000000000000000000000000000000000000000073ffffffffffffffffffffffffffffffffffffffff16634000aea07f0000000000000000000000000000000000000000000000000000000000000000858786604051602001610d75929190611814565b6040516020818303038152906040526040518463ffffffff1660e01b8152600401610da2939291906118cd565b6020604051808303816000875af1158015610dc1573d6000803e3d6000fd5b505050506040513d601f19601f82011682018060405250810190610de59190611943565b506000610e068584306000808a815260200190815260200160002054610f18565b9050600160008087815260200190815260200160002054610e2791906117e0565b60008087815260200190815260200160002081905550610e478582610f54565b9150509392505050565b6000610eb3826040518060400160405280602081526020017f5361666545524332303a206c6f772d6c6576656c2063616c6c206661696c65648152508573ffffffffffffffffffffffffffffffffffffffff16610f879092919063ffffffff16565b9050600081511115610f135780806020019051810190610ed39190611943565b610f12576040517f08c379a0000000000000000000000000000000000000000000000000000000008152600401610f09906119e2565b60405180910390fd5b5b505050565b600084848484604051602001610f319493929190611a02565b6040516020818303038152906040528051906020012060001c9050949350505050565b60008282604051602001610f69929190611a89565b60405160208183030381529060405280519060200120905092915050565b6060610f968484600085610f9f565b90509392505050565b606082471015610fe4576040517f08c379a0000000000000000000000000000000000000000000000000000000008152600401610fdb90611b27565b60405180910390fd5b610fed856110b3565b61102c576040517f08c379a000000000000000000000000000000000000000000000000000000000815260040161102390611b93565b60405180910390fd5b6000808673ffffffffffffffffffffffffffffffffffffffff1685876040516110559190611bef565b60006040518083038185875af1925050503d8060008114611092576040519150601f19603f3d011682016040523d82523d6000602084013e611097565b606091505b50915091506110a78282866110c6565b92505050949350505050565b600080823b905060008111915050919050565b606083156110d657829050611126565b6000835111156110e95782518084602001fd5b816040517f08c379a000000000000000000000000000000000000000000000000000000000815260040161111d9190611c4a565b60405180910390fd5b9392505050565b600080fd5b600073ffffffffffffffffffffffffffffffffffffffff82169050919050565b600061115d82611132565b9050919050565b61116d81611152565b811461117857600080fd5b50565b60008135905061118a81611164565b92915050565b6000819050919050565b6111a381611190565b81146111ae57600080fd5b50565b6000813590506111c08161119a565b92915050565b600080604083850312156111dd576111dc61112d565b5b60006111eb8582860161117b565b92505060206111fc858286016111b1565b9150509250929050565b6000819050919050565b61121981611206565b82525050565b60006020820190506112346000830184611210565b92915050565b6000602082840312156112505761124f61112d565b5b600061125e8482850161117b565b91505092915050565b600063ffffffff82169050919050565b61128081611267565b82525050565b600060208201905061129b6000830184611277565b92915050565b6112aa81611152565b82525050565b60006020820190506112c560008301846112a1565b92915050565b6000602082840312156112e1576112e061112d565b5b60006112ef848285016111b1565b91505092915050565b61130181611206565b811461130c57600080fd5b50565b60008135905061131e816112f8565b92915050565b6000806040838503121561133b5761133a61112d565b5b60006113498582860161130f565b925050602061135a858286016111b1565b9150509250929050565b60006020828403121561137a5761137961112d565b5b60006113888482850161130f565b91505092915050565b61139a81611190565b82525050565b60006020820190506113b56000830184611391565b92915050565b600082825260208201905092915050565b7f4f776e61626c653a2063616c6c6572206973206e6f7420746865206f776e6572600082015250565b60006114026020836113bb565b915061140d826113cc565b602082019050919050565b60006020820190508181036000830152611431816113f5565b9050919050565b7f4f6e6c7920565246436f6f7264696e61746f722063616e2066756c66696c6c00600082015250565b600061146e601f836113bb565b915061147982611438565b602082019050919050565b6000602082019050818103600083015261149d81611461565b9050919050565b7f4f6e6c792050616e63616b65537761704c6f7474657279000000000000000000600082015250565b60006114da6017836113bb565b91506114e5826114a4565b602082019050919050565b60006020820190508181036000830152611509816114cd565b9050919050565b7f4d75737420686176652076616c6964206b657920686173680000000000000000600082015250565b60006115466018836113bb565b915061155182611510565b602082019050919050565b6000602082019050818103600083015261157581611539565b9050919050565b60008151905061158b8161119a565b92915050565b6000602082840312156115a7576115a661112d565b5b60006115b58482850161157c565b91505092915050565b7f4e6f7420656e6f756768204c494e4b20746f6b656e7300000000000000000000600082015250565b60006115f46016836113bb565b91506115ff826115be565b602082019050919050565b60006020820190508181036000830152611623816115e7565b9050919050565b7f4f776e61626c653a206e6577206f776e657220697320746865207a65726f206160008201527f6464726573730000000000000000000000000000000000000000000000000000602082015250565b60006116866026836113bb565b91506116918261162a565b604082019050919050565b600060208201905081810360008301526116b581611679565b9050919050565b60006040820190506116d160008301856112a1565b6116de6020830184611391565b9392505050565b7f57726f6e67207265717565737449640000000000000000000000000000000000600082015250565b600061171b600f836113bb565b9150611726826116e5565b602082019050919050565b6000602082019050818103600083015261174a8161170e565b9050919050565b7f4e487b7100000000000000000000000000000000000000000000000000000000600052601260045260246000fd5b600061178b82611190565b915061179683611190565b9250826117a6576117a5611751565b5b828206905092915050565b7f4e487b7100000000000000000000000000000000000000000000000000000000600052601160045260246000fd5b60006117eb82611190565b91506117f683611190565b925082820190508082111561180e5761180d6117b1565b5b92915050565b60006040820190506118296000830185611210565b6118366020830184611391565b9392505050565b600081519050919050565b600082825260208201905092915050565b60005b8381101561187757808201518184015260208101905061185c565b60008484015250505050565b6000601f19601f8301169050919050565b600061189f8261183d565b6118a98185611848565b93506118b9818560208601611859565b6118c281611883565b840191505092915050565b60006060820190506118e260008301866112a1565b6118ef6020830185611391565b81810360408301526119018184611894565b9050949350505050565b60008115159050919050565b6119208161190b565b811461192b57600080fd5b50565b60008151905061193d81611917565b92915050565b6000602082840312156119595761195861112d565b5b60006119678482850161192e565b91505092915050565b7f5361666545524332303a204552433230206f7065726174696f6e20646964206e60008201527f6f74207375636365656400000000000000000000000000000000000000000000602082015250565b60006119cc602a836113bb565b91506119d782611970565b604082019050919050565b600060208201905081810360008301526119fb816119bf565b9050919050565b6000608082019050611a176000830187611210565b611a246020830186611391565b611a3160408301856112a1565b611a3e6060830184611391565b95945050505050565b6000819050919050565b611a62611a5d82611206565b611a47565b82525050565b6000819050919050565b611a83611a7e82611190565b611a68565b82525050565b6000611a958285611a51565b602082019150611aa58284611a72565b6020820191508190509392505050565b7f416464726573733a20696e73756666696369656e742062616c616e636520666f60008201527f722063616c6c0000000000000000000000000000000000000000000000000000602082015250565b6000611b116026836113bb565b9150611b1c82611ab5565b604082019050919050565b60006020820190508181036000830152611b4081611b04565b9050919050565b7f416464726573733a2063616c6c20746f206e6f6e2d636f6e7472616374000000600082015250565b6000611b7d601d836113bb565b9150611b8882611b47565b602082019050919050565b60006020820190508181036000830152611bac81611b70565b9050919050565b600081905092915050565b6000611bc98261183d565b611bd38185611bb3565b9350611be3818560208601611859565b80840191505092915050565b6000611bfb8284611bbe565b915081905092915050565b600081519050919050565b6000611c1c82611c06565b611c2681856113bb565b9350611c36818560208601611859565b611c3f81611883565b840191505092915050565b60006020820190508181036000830152611c648184611c11565b90509291505056fea2646970667358221220f8a3fd0902c5a6cf4840eb943bf51cc69dec8ba0046062d829074de83a3dede664736f6c63430008110033",
  "linkReferences": {},
  "deployedLinkReferences": {}
}