{
  "_format": "hh-sol-artifact-1",
  "contractName": "Lottery",
  "sourceName": "contracts/Lottery.sol",
  "abi": [
    {
      "inputs": [
        {
          "internalType": "address",
          "name": "_cakeTokenAddress",
          "type": "address"
        },
        {
          "internalType": "uint256",
          "name": "_cakeTokenDecimal",
          "type": "uint256"
        },
        {
          "internalType": "address",
          "name": "_nftToken",
          "type": "address"
        }
      ],
      "stateMutability": "nonpayable",
      "type": "constructor"
    },
    {
      "anonymous": false,
      "inputs": [
        {
          "indexed": false,
          "internalType": "address",
          "name": "token",
          "type": "address"
        },
        {
          "indexed": false,
          "internalType": "uint256",
          "name": "amount",
          "type": "uint256"
        }
      ],
      "name": "AdminTokenRecovery",
      "type": "event"
    },
    {
      "anonymous": false,
      "inputs": [
        {
          "indexed": true,
          "internalType": "uint256",
          "name": "lotteryId",
          "type": "uint256"
        },
        {
          "indexed": false,
          "internalType": "uint256",
          "name": "firstTicketIdNextLottery",
          "type": "uint256"
        }
      ],
      "name": "LotteryClose",
      "type": "event"
    },
    {
      "anonymous": false,
      "inputs": [
        {
          "indexed": true,
          "internalType": "uint256",
          "name": "lotteryId",
          "type": "uint256"
        },
        {
          "indexed": false,
          "internalType": "uint256",
          "name": "injectedAmount",
          "type": "uint256"
        }
      ],
      "name": "LotteryInjection",
      "type": "event"
    },
    {
      "anonymous": false,
      "inputs": [
        {
          "indexed": true,
          "internalType": "uint256",
          "name": "lotteryId",
          "type": "uint256"
        },
        {
          "indexed": false,
          "internalType": "uint256",
          "name": "finalNumber",
          "type": "uint256"
        },
        {
          "indexed": false,
          "internalType": "uint256",
          "name": "countWinningTickets",
          "type": "uint256"
        }
      ],
      "name": "LotteryNumberDrawn",
      "type": "event"
    },
    {
      "anonymous": false,
      "inputs": [
        {
          "indexed": true,
          "internalType": "uint256",
          "name": "lotteryId",
          "type": "uint256"
        },
        {
          "indexed": false,
          "internalType": "uint256",
          "name": "startTime",
          "type": "uint256"
        },
        {
          "indexed": false,
          "internalType": "uint256",
          "name": "endTime",
          "type": "uint256"
        },
        {
          "indexed": false,
          "internalType": "uint256",
          "name": "priceTicketInCake",
          "type": "uint256"
        },
        {
          "indexed": false,
          "internalType": "uint256",
          "name": "firstTicketId",
          "type": "uint256"
        },
        {
          "indexed": false,
          "internalType": "uint256",
          "name": "injectedAmount",
          "type": "uint256"
        }
      ],
      "name": "LotteryOpen",
      "type": "event"
    },
    {
      "anonymous": false,
      "inputs": [
        {
          "indexed": false,
          "internalType": "address",
          "name": "operator",
          "type": "address"
        },
        {
          "indexed": false,
          "internalType": "address",
          "name": "treasury",
          "type": "address"
        },
        {
          "indexed": false,
          "internalType": "address",
          "name": "injector",
          "type": "address"
        }
      ],
      "name": "NewOperatorAndTreasuryAndInjectorAddresses",
      "type": "event"
    },
    {
      "anonymous": false,
      "inputs": [
        {
          "indexed": true,
          "internalType": "address",
          "name": "previousOwner",
          "type": "address"
        },
        {
          "indexed": true,
          "internalType": "address",
          "name": "newOwner",
          "type": "address"
        }
      ],
      "name": "OwnershipTransferred",
      "type": "event"
    },
    {
      "anonymous": false,
      "inputs": [
        {
          "indexed": true,
          "internalType": "address",
          "name": "claimer",
          "type": "address"
        },
        {
          "indexed": false,
          "internalType": "uint256",
          "name": "amount",
          "type": "uint256"
        },
        {
          "indexed": true,
          "internalType": "uint256",
          "name": "lotteryId",
          "type": "uint256"
        },
        {
          "indexed": false,
          "internalType": "uint256",
          "name": "numberTickets",
          "type": "uint256"
        }
      ],
      "name": "TicketsClaim",
      "type": "event"
    },
    {
      "anonymous": false,
      "inputs": [
        {
          "indexed": true,
          "internalType": "address",
          "name": "buyer",
          "type": "address"
        },
        {
          "indexed": true,
          "internalType": "uint256",
          "name": "lotteryId",
          "type": "uint256"
        },
        {
          "indexed": false,
          "internalType": "uint256",
          "name": "numberTickets",
          "type": "uint256"
        }
      ],
      "name": "TicketsPurchase",
      "type": "event"
    },
    {
      "inputs": [],
      "name": "TwentyDiscount",
      "outputs": [
        {
          "internalType": "uint256",
          "name": "",
          "type": "uint256"
        }
      ],
      "stateMutability": "view",
      "type": "function"
    },
    {
      "inputs": [
        {
          "internalType": "uint256",
          "name": "_lotteryId",
          "type": "uint256"
        },
        {
          "internalType": "uint32[]",
          "name": "_ticketNumbers",
          "type": "uint32[]"
        }
      ],
      "name": "buyTickets",
      "outputs": [],
      "stateMutability": "nonpayable",
      "type": "function"
    },
    {
      "inputs": [],
      "name": "cakeToken",
      "outputs": [
        {
          "internalType": "contract IERC20",
          "name": "",
          "type": "address"
        }
      ],
      "stateMutability": "view",
      "type": "function"
    },
    {
      "inputs": [],
      "name": "cakeTokenDecimal",
      "outputs": [
        {
          "internalType": "uint256",
          "name": "",
          "type": "uint256"
        }
      ],
      "stateMutability": "view",
      "type": "function"
    },
    {
      "inputs": [
        {
          "internalType": "uint256",
          "name": "_numberTickets",
          "type": "uint256"
        },
        {
          "internalType": "address",
          "name": "_sender",
          "type": "address"
        }
      ],
      "name": "calculateTotalPriceForBulkTickets",
      "outputs": [
        {
          "internalType": "uint256",
          "name": "",
          "type": "uint256"
        }
      ],
      "stateMutability": "view",
      "type": "function"
    },
    {
      "inputs": [
        {
          "internalType": "uint256",
          "name": "_lotteryId",
          "type": "uint256"
        },
        {
          "internalType": "uint256[]",
          "name": "_ticketIds",
          "type": "uint256[]"
        },
        {
          "internalType": "uint32[]",
          "name": "_brackets",
          "type": "uint32[]"
        }
      ],
      "name": "claimTickets",
      "outputs": [],
      "stateMutability": "nonpayable",
      "type": "function"
    },
    {
      "inputs": [
        {
          "internalType": "uint256",
          "name": "_lotteryId",
          "type": "uint256"
        }
      ],
      "name": "closeLottery",
      "outputs": [],
      "stateMutability": "nonpayable",
      "type": "function"
    },
    {
      "inputs": [],
      "name": "currentLotteryId",
      "outputs": [
        {
          "internalType": "uint256",
          "name": "",
          "type": "uint256"
        }
      ],
      "stateMutability": "view",
      "type": "function"
    },
    {
      "inputs": [
        {
          "internalType": "uint256",
          "name": "_lotteryId",
          "type": "uint256"
        },
        {
          "internalType": "bool",
          "name": "_autoInjection",
          "type": "bool"
        }
      ],
      "name": "drawFinalNumberAndMakeLotteryClaimable",
      "outputs": [],
      "stateMutability": "nonpayable",
      "type": "function"
    },
    {
      "inputs": [],
      "name": "endTime",
      "outputs": [
        {
          "internalType": "uint256",
          "name": "",
          "type": "uint256"
        }
      ],
      "stateMutability": "view",
      "type": "function"
    },
    {
      "inputs": [],
      "name": "finalNumber",
      "outputs": [
        {
          "internalType": "uint256",
          "name": "",
          "type": "uint256"
        }
      ],
      "stateMutability": "view",
      "type": "function"
    },
    {
      "inputs": [],
      "name": "fiveNftDiscount",
      "outputs": [
        {
          "internalType": "uint256",
          "name": "",
          "type": "uint256"
        }
      ],
      "stateMutability": "view",
      "type": "function"
    },
    {
      "inputs": [],
      "name": "hundredNftDiscount",
      "outputs": [
        {
          "internalType": "uint256",
          "name": "",
          "type": "uint256"
        }
      ],
      "stateMutability": "view",
      "type": "function"
    },
    {
      "inputs": [
        {
          "internalType": "uint256",
          "name": "_lotteryId",
          "type": "uint256"
        },
        {
          "internalType": "uint256",
          "name": "_amount",
          "type": "uint256"
        }
      ],
      "name": "injectFunds",
      "outputs": [],
      "stateMutability": "nonpayable",
      "type": "function"
    },
    {
      "inputs": [],
      "name": "matchOneShare",
      "outputs": [
        {
          "internalType": "uint256",
          "name": "",
          "type": "uint256"
        }
      ],
      "stateMutability": "view",
      "type": "function"
    },
    {
      "inputs": [],
      "name": "matchOneUserCnt",
      "outputs": [
        {
          "internalType": "uint256",
          "name": "",
          "type": "uint256"
        }
      ],
      "stateMutability": "view",
      "type": "function"
    },
    {
      "inputs": [],
      "name": "matchThreeShare",
      "outputs": [
        {
          "internalType": "uint256",
          "name": "",
          "type": "uint256"
        }
      ],
      "stateMutability": "view",
      "type": "function"
    },
    {
      "inputs": [],
      "name": "matchThreeUserCnt",
      "outputs": [
        {
          "internalType": "uint256",
          "name": "",
          "type": "uint256"
        }
      ],
      "stateMutability": "view",
      "type": "function"
    },
    {
      "inputs": [],
      "name": "matchTwoShare",
      "outputs": [
        {
          "internalType": "uint256",
          "name": "",
          "type": "uint256"
        }
      ],
      "stateMutability": "view",
      "type": "function"
    },
    {
      "inputs": [],
      "name": "matchTwoUserCnt",
      "outputs": [
        {
          "internalType": "uint256",
          "name": "",
          "type": "uint256"
        }
      ],
      "stateMutability": "view",
      "type": "function"
    },
    {
      "inputs": [],
      "name": "maxNumberTicketsPerBuyOrClaim",
      "outputs": [
        {
          "internalType": "uint256",
          "name": "",
          "type": "uint256"
        }
      ],
      "stateMutability": "view",
      "type": "function"
    },
    {
      "inputs": [],
      "name": "nftDiscount",
      "outputs": [
        {
          "internalType": "uint256",
          "name": "",
          "type": "uint256"
        }
      ],
      "stateMutability": "view",
      "type": "function"
    },
    {
      "inputs": [],
      "name": "nftToken",
      "outputs": [
        {
          "internalType": "contract IERC721",
          "name": "",
          "type": "address"
        }
      ],
      "stateMutability": "view",
      "type": "function"
    },
    {
      "inputs": [],
      "name": "owner",
      "outputs": [
        {
          "internalType": "address",
          "name": "",
          "type": "address"
        }
      ],
      "stateMutability": "view",
      "type": "function"
    },
    {
      "inputs": [],
      "name": "priceTicket",
      "outputs": [
        {
          "internalType": "uint256",
          "name": "",
          "type": "uint256"
        }
      ],
      "stateMutability": "view",
      "type": "function"
    },
    {
      "inputs": [
        {
          "internalType": "address",
          "name": "_tokenAddress",
          "type": "address"
        },
        {
          "internalType": "uint256",
          "name": "_tokenAmount",
          "type": "uint256"
        }
      ],
      "name": "recoverWrongTokens",
      "outputs": [],
      "stateMutability": "nonpayable",
      "type": "function"
    },
    {
      "inputs": [],
      "name": "renounceOwnership",
      "outputs": [],
      "stateMutability": "nonpayable",
      "type": "function"
    },
    {
      "inputs": [
        {
          "internalType": "uint256",
          "name": "_maxNumberTicketsPerBuy",
          "type": "uint256"
        }
      ],
      "name": "setMaxNumberTicketsPerBuy",
      "outputs": [],
      "stateMutability": "nonpayable",
      "type": "function"
    },
    {
      "inputs": [
        {
          "internalType": "uint256",
          "name": "_nftDiscount",
          "type": "uint256"
        }
      ],
      "name": "setNftDiscount",
      "outputs": [],
      "stateMutability": "nonpayable",
      "type": "function"
    },
    {
      "inputs": [
        {
          "internalType": "uint256",
          "name": "_endTime",
          "type": "uint256"
        },
        {
          "internalType": "uint256",
          "name": "_priceTicketInCake",
          "type": "uint256"
        },
        {
          "internalType": "uint256",
          "name": "_discountDivisor",
          "type": "uint256"
        },
        {
          "internalType": "uint256[6]",
          "name": "_rewardsBreakdown",
          "type": "uint256[6]"
        },
        {
          "internalType": "uint256",
          "name": "_treasuryFee",
          "type": "uint256"
        }
      ],
      "name": "startLottery",
      "outputs": [],
      "stateMutability": "nonpayable",
      "type": "function"
    },
    {
      "inputs": [],
      "name": "startTime",
      "outputs": [
        {
          "internalType": "uint256",
          "name": "",
          "type": "uint256"
        }
      ],
      "stateMutability": "view",
      "type": "function"
    },
    {
      "inputs": [],
      "name": "status",
      "outputs": [
        {
          "internalType": "enum Lottery.Status",
          "name": "",
          "type": "uint8"
        }
      ],
      "stateMutability": "view",
      "type": "function"
    },
    {
      "inputs": [],
      "name": "totalReward",
      "outputs": [
        {
          "internalType": "uint256",
          "name": "",
          "type": "uint256"
        }
      ],
      "stateMutability": "view",
      "type": "function"
    },
    {
      "inputs": [
        {
          "internalType": "address",
          "name": "newOwner",
          "type": "address"
        }
      ],
      "name": "transferOwnership",
      "outputs": [],
      "stateMutability": "nonpayable",
      "type": "function"
    },
    {
      "inputs": [],
      "name": "treasuryAddress",
      "outputs": [
        {
          "internalType": "address",
          "name": "",
          "type": "address"
        }
      ],
      "stateMutability": "view",
      "type": "function"
    },
    {
      "inputs": [],
      "name": "treasuryFee",
      "outputs": [
        {
          "internalType": "uint256",
          "name": "",
          "type": "uint256"
        }
      ],
      "stateMutability": "view",
      "type": "function"
    },
    {
      "inputs": [
        {
          "internalType": "address",
          "name": "",
          "type": "address"
        }
      ],
      "name": "userRewards",
      "outputs": [
        {
          "internalType": "uint256",
          "name": "",
          "type": "uint256"
        }
      ],
      "stateMutability": "view",
      "type": "function"
    },
    {
      "inputs": [
        {
          "internalType": "address",
          "name": "",
          "type": "address"
        },
        {
          "internalType": "uint256",
          "name": "",
          "type": "uint256"
        }
      ],
      "name": "userTickets",
      "outputs": [
        {
          "internalType": "uint256",
          "name": "",
          "type": "uint256"
        }
      ],
      "stateMutability": "view",
      "type": "function"
    },
    {
      "inputs": [
        {
          "internalType": "address",
          "name": "",
          "type": "address"
        }
      ],
      "name": "userTicketsCnt",
      "outputs": [
        {
          "internalType": "uint256",
          "name": "",
          "type": "uint256"
        }
      ],
      "stateMutability": "view",
      "type": "function"
    },
    {
      "inputs": [
        {
          "internalType": "uint256",
          "name": "",
          "type": "uint256"
        }
      ],
      "name": "users",
      "outputs": [
        {
          "internalType": "address",
          "name": "",
          "type": "address"
        }
      ],
      "stateMutability": "view",
      "type": "function"
    },
    {
      "inputs": [],
      "name": "viewCurrentLotteryId",
      "outputs": [
        {
          "internalType": "uint256",
          "name": "",
          "type": "uint256"
        }
      ],
      "stateMutability": "view",
      "type": "function"
    }
  ],
  "bytecode": "0x6080604052606460045560146005556002600860146101000a81548160ff021916908360028111156200003757620000366200022b565b5b02179055506001600b55605a600c556050600d556046600e55605a600f55600a601655601460175560466018553480156200007157600080fd5b50604051620045d6380380620045d68339818101604052810190620000979190620002ff565b60016000819055506000620000b16200022360201b60201c565b905080600160006101000a81548173ffffffffffffffffffffffffffffffffffffffff021916908373ffffffffffffffffffffffffffffffffffffffff1602179055508073ffffffffffffffffffffffffffffffffffffffff16600073ffffffffffffffffffffffffffffffffffffffff167f8be0079c531659141344cd1fd0a4f28419497f9722a3daafe3b4186f6b6457e060405160405180910390a35082600660006101000a81548173ffffffffffffffffffffffffffffffffffffffff021916908373ffffffffffffffffffffffffffffffffffffffff1602179055508160078190555080600860006101000a81548173ffffffffffffffffffffffffffffffffffffffff021916908373ffffffffffffffffffffffffffffffffffffffff16021790555033600260006101000a81548173ffffffffffffffffffffffffffffffffffffffff021916908373ffffffffffffffffffffffffffffffffffffffff1602179055505050506200035b565b600033905090565b7f4e487b7100000000000000000000000000000000000000000000000000000000600052602160045260246000fd5b600080fd5b600073ffffffffffffffffffffffffffffffffffffffff82169050919050565b60006200028c826200025f565b9050919050565b6200029e816200027f565b8114620002aa57600080fd5b50565b600081519050620002be8162000293565b92915050565b6000819050919050565b620002d981620002c4565b8114620002e557600080fd5b50565b600081519050620002f981620002ce565b92915050565b6000806000606084860312156200031b576200031a6200025a565b5b60006200032b86828701620002ad565b93505060206200033e86828701620002e8565b92505060406200035186828701620002ad565b9150509250925092565b61426b806200036b6000396000f3fe608060405234801561001057600080fd5b50600436106102535760003560e01c80637e6b0ed611610146578063c5f956af116100c3578063d06fcba811610087578063d06fcba8146106a6578063dae58da8146106c4578063e8dd9fac146106e2578063ec43f28314610700578063f2fde38b1461071e578063f44ea1bb1461073a57610253565b8063c5f956af146105ee578063c914914f1461060c578063cc32d17614610628578063cdfa60f014610646578063cf260baf1461067657610253565b80638da5cb5b1161010a5780638da5cb5b1461055e5780639d8ca5311461057c578063b1829b8214610598578063c38de539146105b4578063c473c492146105d057610253565b80637e6b0ed6146104ca57806380a06160146104e857806388303dbd146105065780638904bf2f146105225780638d5ae09a1461054057610253565b806348910f3b116101d45780636b873788116101985780636b8737881461044a5780636be4097c14610466578063715018a614610484578063750142e61461048e57806378e97925146104ac57610253565b806348910f3b146103a25780634a065621146103d25780635d9db076146103f057806364c165341461040e5780636b6ab6331461042c57610253565b80633da13a201161021b5780633da13a20146103125780633f138d4b146103305780634104bed71461034c578063421fbf8c14610368578063471aeab41461038657610253565b80630660f1e8146102585780631fe86c6b14610288578063200d2ed2146102a65780633197cbb6146102c4578063365b98b2146102e2575b600080fd5b610272600480360381019061026d9190612d95565b610758565b60405161027f9190612ddb565b60405180910390f35b610290610770565b60405161029d9190612ddb565b60405180910390f35b6102ae610776565b6040516102bb9190612e6d565b60405180910390f35b6102cc610789565b6040516102d99190612ddb565b60405180910390f35b6102fc60048036038101906102f79190612eb4565b61078f565b6040516103099190612ef0565b60405180910390f35b61031a6107ce565b6040516103279190612ddb565b60405180910390f35b61034a60048036038101906103459190612f0b565b6107d4565b005b61036660048036038101906103619190612eb4565b6108b8565b005b61037061093e565b60405161037d9190612ddb565b60405180910390f35b6103a0600480360381019061039b9190612f4b565b610944565b005b6103bc60048036038101906103b79190612d95565b610ada565b6040516103c99190612ddb565b60405180910390f35b6103da610af2565b6040516103e79190612ddb565b60405180910390f35b6103f8610af8565b6040516104059190612ddb565b60405180910390f35b610416610afe565b6040516104239190612ddb565b60405180910390f35b610434610b04565b6040516104419190612ddb565b60405180910390f35b610464600480360381019061045f9190612eb4565b610b0a565b005b61046e610bd3565b60405161047b9190612ddb565b60405180910390f35b61048c610bd9565b005b610496610d16565b6040516104a39190612ddb565b60405180910390f35b6104b4610d1c565b6040516104c19190612ddb565b60405180910390f35b6104d2610d22565b6040516104df9190612ddb565b60405180910390f35b6104f0610d28565b6040516104fd9190612ddb565b60405180910390f35b610520600480360381019061051b9190612ff0565b610d32565b005b61052a611349565b60405161053791906130af565b60405180910390f35b61054861136f565b6040516105559190612ddb565b60405180910390f35b610566611375565b6040516105739190612ef0565b60405180910390f35b61059660048036038101906105919190612eb4565b61139f565b005b6105b260048036038101906105ad91906130ec565b611594565b005b6105ce60048036038101906105c991906131a1565b611a47565b005b6105d86122aa565b6040516105e59190612ddb565b60405180910390f35b6105f66122b0565b6040516106039190612ef0565b60405180910390f35b61062660048036038101906106219190613237565b6122d6565b005b6106306125a2565b60405161063d9190612ddb565b60405180910390f35b610660600480360381019061065b91906132cc565b6125a8565b60405161066d9190612ddb565b60405180910390f35b610690600480360381019061068b9190612f0b565b61271d565b60405161069d9190612ddb565b60405180910390f35b6106ae61274e565b6040516106bb919061332d565b60405180910390f35b6106cc612774565b6040516106d99190612ddb565b60405180910390f35b6106ea61277a565b6040516106f79190612ddb565b60405180910390f35b610708612780565b6040516107159190612ddb565b60405180910390f35b61073860048036038101906107339190612d95565b612786565b005b610742612931565b60405161074f9190612ddb565b60405180910390f35b60156020528060005260406000206000915090505481565b60045481565b600860149054906101000a900460ff1681565b600a5481565b6012818154811061079f57600080fd5b906000526020600020016000915054906101000a900473ffffffffffffffffffffffffffffffffffffffff1681565b601a5481565b6107dc612937565b73ffffffffffffffffffffffffffffffffffffffff166107fa611375565b73ffffffffffffffffffffffffffffffffffffffff1614610850576040517f08c379a0000000000000000000000000000000000000000000000000000000008152600401610847906133a5565b60405180910390fd5b61087b33828473ffffffffffffffffffffffffffffffffffffffff1661293f9092919063ffffffff16565b7f74545154aac348a3eac92596bd1971957ca94795f4e954ec5f613b55fab7812982826040516108ac9291906133c5565b60405180910390a15050565b6108c0612937565b73ffffffffffffffffffffffffffffffffffffffff166108de611375565b73ffffffffffffffffffffffffffffffffffffffff1614610934576040517f08c379a000000000000000000000000000000000000000000000000000000000815260040161092b906133a5565b60405180910390fd5b80600f8190555050565b60175481565b61094c612937565b73ffffffffffffffffffffffffffffffffffffffff1661096a611375565b73ffffffffffffffffffffffffffffffffffffffff16146109c0576040517f08c379a00000000000000000000000000000000000000000000000000000000081526004016109b7906133a5565b60405180910390fd5b600060028111156109d4576109d3612df6565b5b600860149054906101000a900460ff1660028111156109f6576109f5612df6565b5b14610a36576040517f08c379a0000000000000000000000000000000000000000000000000000000008152600401610a2d9061343a565b60405180910390fd5b8060106000828254610a489190613489565b92505081905550610a9e333083600660009054906101000a900473ffffffffffffffffffffffffffffffffffffffff1673ffffffffffffffffffffffffffffffffffffffff166129c5909392919063ffffffff16565b817f1bbd659dd628a25f7ff2eabb69c74a56939c539728282275c1c9c1a2d3e3404982604051610ace9190612ddb565b60405180910390a25050565b60136020528060005260406000206000915090505481565b600e5481565b60195481565b600b5481565b600f5481565b610b12612937565b73ffffffffffffffffffffffffffffffffffffffff16610b30611375565b73ffffffffffffffffffffffffffffffffffffffff1614610b86576040517f08c379a0000000000000000000000000000000000000000000000000000000008152600401610b7d906133a5565b60405180910390fd5b60008103610bc9576040517f08c379a0000000000000000000000000000000000000000000000000000000008152600401610bc090613509565b60405180910390fd5b8060048190555050565b60035481565b610be1612937565b73ffffffffffffffffffffffffffffffffffffffff16610bff611375565b73ffffffffffffffffffffffffffffffffffffffff1614610c55576040517f08c379a0000000000000000000000000000000000000000000000000000000008152600401610c4c906133a5565b60405180910390fd5b600073ffffffffffffffffffffffffffffffffffffffff16600160009054906101000a900473ffffffffffffffffffffffffffffffffffffffff1673ffffffffffffffffffffffffffffffffffffffff167f8be0079c531659141344cd1fd0a4f28419497f9722a3daafe3b4186f6b6457e060405160405180910390a36000600160006101000a81548173ffffffffffffffffffffffffffffffffffffffff021916908373ffffffffffffffffffffffffffffffffffffffff160217905550565b60105481565b60095481565b60165481565b6000600354905090565b610d3b33612a4e565b15610d7b576040517f08c379a0000000000000000000000000000000000000000000000000000000008152600401610d7290613575565b60405180910390fd5b3273ffffffffffffffffffffffffffffffffffffffff163373ffffffffffffffffffffffffffffffffffffffff1614610de9576040517f08c379a0000000000000000000000000000000000000000000000000000000008152600401610de0906135e1565b60405180910390fd5b600260005403610e2e576040517f08c379a0000000000000000000000000000000000000000000000000000000008152600401610e259061364d565b60405180910390fd5b600260008190555060008282905003610e7c576040517f08c379a0000000000000000000000000000000000000000000000000000000008152600401610e73906136b9565b60405180910390fd5b600454828290501115610ec4576040517f08c379a0000000000000000000000000000000000000000000000000000000008152600401610ebb90613725565b60405180910390fd5b60006002811115610ed857610ed7612df6565b5b600860149054906101000a900460ff166002811115610efa57610ef9612df6565b5b14610f3a576040517f08c379a0000000000000000000000000000000000000000000000000000000008152600401610f3190613791565b60405180910390fd5b600a544210610f7e576040517f08c379a0000000000000000000000000000000000000000000000000000000008152600401610f75906137fd565b60405180910390fd5b60005b8282905081101561102b576000838383818110610fa157610fa061381d565b5b9050602002016020810190610fb69190613888565b90506103e88163ffffffff1610158015610fd857506107cf8163ffffffff1611155b611017576040517f08c379a000000000000000000000000000000000000000000000000000000000815260040161100e90613901565b60405180910390fd5b50808061102390613921565b915050610f81565b50600061103b83839050336125a8565b9050806010600082825461104f9190613489565b925050819055506110a5333083600660009054906101000a900473ffffffffffffffffffffffffffffffffffffffff1673ffffffffffffffffffffffffffffffffffffffff166129c5909392919063ffffffff16565b6000601460003373ffffffffffffffffffffffffffffffffffffffff1673ffffffffffffffffffffffffffffffffffffffff16815260200190815260200160002080549050036111dd576012339080600181540180825580915050600190039060005260206000200160009091909190916101000a81548173ffffffffffffffffffffffffffffffffffffffff021916908373ffffffffffffffffffffffffffffffffffffffff1602179055506000601360003373ffffffffffffffffffffffffffffffffffffffff1673ffffffffffffffffffffffffffffffffffffffff168152602001908152602001600020819055506000601560003373ffffffffffffffffffffffffffffffffffffffff1673ffffffffffffffffffffffffffffffffffffffff168152602001908152602001600020819055505b60005b838390508110156112e857601460003373ffffffffffffffffffffffffffffffffffffffff1673ffffffffffffffffffffffffffffffffffffffff16815260200190815260200160002084848381811061123d5761123c61381d565b5b90506020020160208101906112529190613888565b908060018154018082558091505060019003906000526020600020016000909163ffffffff169091909150556001601360003373ffffffffffffffffffffffffffffffffffffffff1673ffffffffffffffffffffffffffffffffffffffff16815260200190815260200160002060008282546112ce9190613489565b9250508190555080806112e090613921565b9150506111e0565b50833373ffffffffffffffffffffffffffffffffffffffff167fd7d247b583de1023852eef87b48f54354dbec771d01bc2cc49e96094efc322b9858590506040516113339190612ddb565b60405180910390a3506001600081905550505050565b600660009054906101000a900473ffffffffffffffffffffffffffffffffffffffff1681565b60075481565b6000600160009054906101000a900473ffffffffffffffffffffffffffffffffffffffff16905090565b6113a7612937565b73ffffffffffffffffffffffffffffffffffffffff166113c5611375565b73ffffffffffffffffffffffffffffffffffffffff161461141b576040517f08c379a0000000000000000000000000000000000000000000000000000000008152600401611412906133a5565b60405180910390fd5b600260005403611460576040517f08c379a00000000000000000000000000000000000000000000000000000000081526004016114579061364d565b60405180910390fd5b60026000819055506000600281111561147c5761147b612df6565b5b600860149054906101000a900460ff16600281111561149e5761149d612df6565b5b146114de576040517f08c379a00000000000000000000000000000000000000000000000000000000081526004016114d59061343a565b60405180910390fd5b600a544211611522576040517f08c379a0000000000000000000000000000000000000000000000000000000008152600401611519906139b5565b60405180910390fd5b6001600860146101000a81548160ff0219169083600281111561154857611547612df6565b5b02179055506003547f3728e75294796694d59d2ffced9c394279baf7b9ebd2702db43f5f04bac679296003546040516115819190612ddb565b60405180910390a2600160008190555050565b61159c612937565b73ffffffffffffffffffffffffffffffffffffffff166115ba611375565b73ffffffffffffffffffffffffffffffffffffffff1614611610576040517f08c379a0000000000000000000000000000000000000000000000000000000008152600401611607906133a5565b60405180910390fd5b60028081111561162357611622612df6565b5b600860149054906101000a900460ff16600281111561164557611644612df6565b5b14611685576040517f08c379a000000000000000000000000000000000000000000000000000000000815260040161167c90613a21565b60405180910390fd5b4285116116c7576040517f08c379a00000000000000000000000000000000000000000000000000000000081526004016116be90613ab3565b60405180910390fd5b6001600360008282546116da9190613489565b925050819055506000600860146101000a81548160ff0219169083600281111561170757611706612df6565b5b02179055504260098190555084600a8190555083600b81905550806005819055508160006006811061173c5761173b61381d565b5b6020020135600c819055508160016006811061175b5761175a61381d565b5b6020020135600d819055508160026006811061177a5761177961381d565b5b6020020135600e81905550816003600681106117995761179861381d565b5b6020020135601681905550816004600681106117b8576117b761381d565b5b6020020135601781905550816005600681106117d7576117d661381d565b5b602002013560188190555060006019819055506000601a819055506000601b81905550600060118190555060005b601280549050811015611a3157601460006012838154811061182a5761182961381d565b5b9060005260206000200160009054906101000a900473ffffffffffffffffffffffffffffffffffffffff1673ffffffffffffffffffffffffffffffffffffffff1673ffffffffffffffffffffffffffffffffffffffff168152602001908152602001600020600061189b9190612cce565b60136000601283815481106118b3576118b261381d565b5b9060005260206000200160009054906101000a900473ffffffffffffffffffffffffffffffffffffffff1673ffffffffffffffffffffffffffffffffffffffff1673ffffffffffffffffffffffffffffffffffffffff1681526020019081526020016000206000905560156000601283815481106119345761193361381d565b5b9060005260206000200160009054906101000a900473ffffffffffffffffffffffffffffffffffffffff1673ffffffffffffffffffffffffffffffffffffffff1673ffffffffffffffffffffffffffffffffffffffff1681526020019081526020016000206000905560136000601283815481106119b5576119b461381d565b5b9060005260206000200160009054906101000a900473ffffffffffffffffffffffffffffffffffffffff1673ffffffffffffffffffffffffffffffffffffffff1673ffffffffffffffffffffffffffffffffffffffff168152602001908152602001600020600090558080611a2990613921565b915050611805565b5060126000611a409190612cef565b5050505050565b611a4f612937565b73ffffffffffffffffffffffffffffffffffffffff16611a6d611375565b73ffffffffffffffffffffffffffffffffffffffff1614611ac3576040517f08c379a0000000000000000000000000000000000000000000000000000000008152600401611aba906133a5565b60405180910390fd5b600260005403611b08576040517f08c379a0000000000000000000000000000000000000000000000000000000008152600401611aff9061364d565b60405180910390fd5b600260008190555060016002811115611b2457611b23612df6565b5b600860149054906101000a900460ff166002811115611b4657611b45612df6565b5b14611b86576040517f08c379a0000000000000000000000000000000000000000000000000000000008152600401611b7d90613b1f565b60405180910390fd5b6103e88210158015611b9a57506107cf8211155b611bd9576040517f08c379a0000000000000000000000000000000000000000000000000000000008152600401611bd090613901565b60405180910390fd5b6002600860146101000a81548160ff02191690836002811115611bff57611bfe612df6565b5b02179055508160118190555060006064600554601054611c1f9190613b3f565b611c299190613bb0565b90508060106000828254611c3d9190613be1565b92505081905550611cb3600260009054906101000a900473ffffffffffffffffffffffffffffffffffffffff1682600660009054906101000a900473ffffffffffffffffffffffffffffffffffffffff1673ffffffffffffffffffffffffffffffffffffffff1661293f9092919063ffffffff16565b60006103e8601154611cc59190613c15565b90506000606482611cd69190613bb0565b90506000600a8084611ce89190613bb0565b611cf29190613c15565b90506000600a84611d039190613c15565b905060005b601280549050811015611edb5760006014600060128481548110611d2f57611d2e61381d565b5b9060005260206000200160009054906101000a900473ffffffffffffffffffffffffffffffffffffffff1673ffffffffffffffffffffffffffffffffffffffff1673ffffffffffffffffffffffffffffffffffffffff168152602001908152602001600020805480602002602001604051908101604052809291908181526020018280548015611dde57602002820191906000526020600020905b815481526020019060010190808311611dca575b5050505050905060005b8151811015611ec65760006103e8838381518110611e0957611e0861381d565b5b6020026020010151611e1b9190613c15565b905086606482611e2b9190613bb0565b03611eb257600160196000828254611e439190613489565b9250508190555085600a8083611e599190613bb0565b611e639190613c15565b03611eb1576001601a6000828254611e7b9190613489565b9250508190555084600a82611e909190613c15565b03611eb0576001601b6000828254611ea89190613489565b925050819055505b5b5b508080611ebe90613921565b915050611de8565b50508080611ed390613921565b915050611d08565b5060005b6012805490508110156122985760006014600060128481548110611f0657611f0561381d565b5b9060005260206000200160009054906101000a900473ffffffffffffffffffffffffffffffffffffffff1673ffffffffffffffffffffffffffffffffffffffff1673ffffffffffffffffffffffffffffffffffffffff168152602001908152602001600020805480602002602001604051908101604052809291908181526020018280548015611fb557602002820191906000526020600020905b815481526020019060010190808311611fa1575b5050505050905060005b81518110156122835760006103e8838381518110611fe057611fdf61381d565b5b6020026020010151611ff29190613c15565b9050866064826120029190613bb0565b0361226f57601954606460165460105461201c9190613b3f565b6120269190613bb0565b6120309190613bb0565b60156000601287815481106120485761204761381d565b5b9060005260206000200160009054906101000a900473ffffffffffffffffffffffffffffffffffffffff1673ffffffffffffffffffffffffffffffffffffffff1673ffffffffffffffffffffffffffffffffffffffff16815260200190815260200160002060008282546120bc9190613489565b9250508190555085600a80836120d29190613bb0565b6120dc9190613c15565b0361226e57601a5460646017546010546120f69190613b3f565b6121009190613bb0565b61210a9190613bb0565b60156000601287815481106121225761212161381d565b5b9060005260206000200160009054906101000a900473ffffffffffffffffffffffffffffffffffffffff1673ffffffffffffffffffffffffffffffffffffffff1673ffffffffffffffffffffffffffffffffffffffff16815260200190815260200160002060008282546121969190613489565b9250508190555084600a826121ab9190613c15565b0361226d57601b5460646018546010546121c59190613b3f565b6121cf9190613bb0565b6121d99190613bb0565b60156000601287815481106121f1576121f061381d565b5b9060005260206000200160009054906101000a900473ffffffffffffffffffffffffffffffffffffffff1673ffffffffffffffffffffffffffffffffffffffff1673ffffffffffffffffffffffffffffffffffffffff16815260200190815260200160002060008282546122659190613489565b925050819055505b5b5b50808061227b90613921565b915050611fbf565b5050808061229090613921565b915050611edf565b50505050505060016000819055505050565b600d5481565b600260009054906101000a900473ffffffffffffffffffffffffffffffffffffffff1681565b6122df33612a4e565b1561231f576040517f08c379a000000000000000000000000000000000000000000000000000000000815260040161231690613575565b60405180910390fd5b3273ffffffffffffffffffffffffffffffffffffffff163373ffffffffffffffffffffffffffffffffffffffff161461238d576040517f08c379a0000000000000000000000000000000000000000000000000000000008152600401612384906135e1565b60405180910390fd5b6002600054036123d2576040517f08c379a00000000000000000000000000000000000000000000000000000000081526004016123c99061364d565b60405180910390fd5b60026000819055506002808111156123ed576123ec612df6565b5b600860149054906101000a900460ff16600281111561240f5761240e612df6565b5b1461244f576040517f08c379a000000000000000000000000000000000000000000000000000000000815260040161244690613c92565b60405180910390fd5b6000601560003373ffffffffffffffffffffffffffffffffffffffff1673ffffffffffffffffffffffffffffffffffffffff1681526020019081526020016000205490506000601560003373ffffffffffffffffffffffffffffffffffffffff1673ffffffffffffffffffffffffffffffffffffffff168152602001908152602001600020819055506125253382600660009054906101000a900473ffffffffffffffffffffffffffffffffffffffff1673ffffffffffffffffffffffffffffffffffffffff1661293f9092919063ffffffff16565b80601060008282546125379190613be1565b92505081905550853373ffffffffffffffffffffffffffffffffffffffff167f0f5fca62da8fb5d95525b49e5eaa7b20bc6bd9e2f6b64b493442d1c0bd6ef486838888905060405161258a929190613cb2565b60405180910390a35060016000819055505050505050565b60055481565b600080600754600a6125ba9190613e0e565b600b54856125c89190613b3f565b6125d29190613b3f565b90506001600860009054906101000a900473ffffffffffffffffffffffffffffffffffffffff1673ffffffffffffffffffffffffffffffffffffffff166370a08231856040518263ffffffff1660e01b81526004016126319190612ef0565b602060405180830381865afa15801561264e573d6000803e3d6000fd5b505050506040513d601f19601f820116820180604052508101906126729190613e6e565b10612694576064600f54826126879190613b3f565b6126919190613bb0565b90505b606484106126be576064600e54826126ac9190613b3f565b6126b69190613bb0565b915050612717565b601484106126e8576064600d54826126d69190613b3f565b6126e09190613bb0565b915050612717565b60058410612712576064600c54826127009190613b3f565b61270a9190613bb0565b915050612717565b809150505b92915050565b6014602052816000526040600020818154811061273957600080fd5b90600052602060002001600091509150505481565b600860009054906101000a900473ffffffffffffffffffffffffffffffffffffffff1681565b60115481565b60185481565b601b5481565b61278e612937565b73ffffffffffffffffffffffffffffffffffffffff166127ac611375565b73ffffffffffffffffffffffffffffffffffffffff1614612802576040517f08c379a00000000000000000000000000000000000000000000000000000000081526004016127f9906133a5565b60405180910390fd5b600073ffffffffffffffffffffffffffffffffffffffff168173ffffffffffffffffffffffffffffffffffffffff1603612871576040517f08c379a000000000000000000000000000000000000000000000000000000000815260040161286890613f0d565b60405180910390fd5b8073ffffffffffffffffffffffffffffffffffffffff16600160009054906101000a900473ffffffffffffffffffffffffffffffffffffffff1673ffffffffffffffffffffffffffffffffffffffff167f8be0079c531659141344cd1fd0a4f28419497f9722a3daafe3b4186f6b6457e060405160405180910390a380600160006101000a81548173ffffffffffffffffffffffffffffffffffffffff021916908373ffffffffffffffffffffffffffffffffffffffff16021790555050565b600c5481565b600033905090565b6129c08363a9059cbb60e01b848460405160240161295e9291906133c5565b604051602081830303815290604052907bffffffffffffffffffffffffffffffffffffffffffffffffffffffff19166020820180517bffffffffffffffffffffffffffffffffffffffffffffffffffffffff8381831617835250505050612a61565b505050565b612a48846323b872dd60e01b8585856040516024016129e693929190613f2d565b604051602081830303815290604052907bffffffffffffffffffffffffffffffffffffffffffffffffffffffff19166020820180517bffffffffffffffffffffffffffffffffffffffffffffffffffffffff8381831617835250505050612a61565b50505050565b600080823b905060008111915050919050565b6000612ac3826040518060400160405280602081526020017f5361666545524332303a206c6f772d6c6576656c2063616c6c206661696c65648152508573ffffffffffffffffffffffffffffffffffffffff16612b289092919063ffffffff16565b9050600081511115612b235780806020019051810190612ae39190613f79565b612b22576040517f08c379a0000000000000000000000000000000000000000000000000000000008152600401612b1990614018565b60405180910390fd5b5b505050565b6060612b378484600085612b40565b90509392505050565b606082471015612b85576040517f08c379a0000000000000000000000000000000000000000000000000000000008152600401612b7c906140aa565b60405180910390fd5b612b8e85612c54565b612bcd576040517f08c379a0000000000000000000000000000000000000000000000000000000008152600401612bc490614116565b60405180910390fd5b6000808673ffffffffffffffffffffffffffffffffffffffff168587604051612bf691906141a7565b60006040518083038185875af1925050503d8060008114612c33576040519150601f19603f3d011682016040523d82523d6000602084013e612c38565b606091505b5091509150612c48828286612c67565b92505050949350505050565b600080823b905060008111915050919050565b60608315612c7757829050612cc7565b600083511115612c8a5782518084602001fd5b816040517f08c379a0000000000000000000000000000000000000000000000000000000008152600401612cbe9190614213565b60405180910390fd5b9392505050565b5080546000825590600052602060002090810190612cec9190612d10565b50565b5080546000825590600052602060002090810190612d0d9190612d10565b50565b5b80821115612d29576000816000905550600101612d11565b5090565b600080fd5b600080fd5b600073ffffffffffffffffffffffffffffffffffffffff82169050919050565b6000612d6282612d37565b9050919050565b612d7281612d57565b8114612d7d57600080fd5b50565b600081359050612d8f81612d69565b92915050565b600060208284031215612dab57612daa612d2d565b5b6000612db984828501612d80565b91505092915050565b6000819050919050565b612dd581612dc2565b82525050565b6000602082019050612df06000830184612dcc565b92915050565b7f4e487b7100000000000000000000000000000000000000000000000000000000600052602160045260246000fd5b60038110612e3657612e35612df6565b5b50565b6000819050612e4782612e25565b919050565b6000612e5782612e39565b9050919050565b612e6781612e4c565b82525050565b6000602082019050612e826000830184612e5e565b92915050565b612e9181612dc2565b8114612e9c57600080fd5b50565b600081359050612eae81612e88565b92915050565b600060208284031215612eca57612ec9612d2d565b5b6000612ed884828501612e9f565b91505092915050565b612eea81612d57565b82525050565b6000602082019050612f056000830184612ee1565b92915050565b60008060408385031215612f2257612f21612d2d565b5b6000612f3085828601612d80565b9250506020612f4185828601612e9f565b9150509250929050565b60008060408385031215612f6257612f61612d2d565b5b6000612f7085828601612e9f565b9250506020612f8185828601612e9f565b9150509250929050565b600080fd5b600080fd5b600080fd5b60008083601f840112612fb057612faf612f8b565b5b8235905067ffffffffffffffff811115612fcd57612fcc612f90565b5b602083019150836020820283011115612fe957612fe8612f95565b5b9250929050565b60008060006040848603121561300957613008612d2d565b5b600061301786828701612e9f565b935050602084013567ffffffffffffffff81111561303857613037612d32565b5b61304486828701612f9a565b92509250509250925092565b6000819050919050565b600061307561307061306b84612d37565b613050565b612d37565b9050919050565b60006130878261305a565b9050919050565b60006130998261307c565b9050919050565b6130a98161308e565b82525050565b60006020820190506130c460008301846130a0565b92915050565b6000819050826020600602820111156130e6576130e5612f95565b5b92915050565b6000806000806000610140868803121561310957613108612d2d565b5b600061311788828901612e9f565b955050602061312888828901612e9f565b945050604061313988828901612e9f565b935050606061314a888289016130ca565b92505061012061315c88828901612e9f565b9150509295509295909350565b60008115159050919050565b61317e81613169565b811461318957600080fd5b50565b60008135905061319b81613175565b92915050565b600080604083850312156131b8576131b7612d2d565b5b60006131c685828601612e9f565b92505060206131d78582860161318c565b9150509250929050565b60008083601f8401126131f7576131f6612f8b565b5b8235905067ffffffffffffffff81111561321457613213612f90565b5b6020830191508360208202830111156132305761322f612f95565b5b9250929050565b60008060008060006060868803121561325357613252612d2d565b5b600061326188828901612e9f565b955050602086013567ffffffffffffffff81111561328257613281612d32565b5b61328e888289016131e1565b9450945050604086013567ffffffffffffffff8111156132b1576132b0612d32565b5b6132bd88828901612f9a565b92509250509295509295909350565b600080604083850312156132e3576132e2612d2d565b5b60006132f185828601612e9f565b925050602061330285828601612d80565b9150509250929050565b60006133178261307c565b9050919050565b6133278161330c565b82525050565b6000602082019050613342600083018461331e565b92915050565b600082825260208201905092915050565b7f4f776e61626c653a2063616c6c6572206973206e6f7420746865206f776e6572600082015250565b600061338f602083613348565b915061339a82613359565b602082019050919050565b600060208201905081810360008301526133be81613382565b9050919050565b60006040820190506133da6000830185612ee1565b6133e76020830184612dcc565b9392505050565b7f4c6f7474657279206e6f74206f70656e00000000000000000000000000000000600082015250565b6000613424601083613348565b915061342f826133ee565b602082019050919050565b6000602082019050818103600083015261345381613417565b9050919050565b7f4e487b7100000000000000000000000000000000000000000000000000000000600052601160045260246000fd5b600061349482612dc2565b915061349f83612dc2565b92508282019050808211156134b7576134b661345a565b5b92915050565b7f4d757374206265203e2030000000000000000000000000000000000000000000600082015250565b60006134f3600b83613348565b91506134fe826134bd565b602082019050919050565b60006020820190508181036000830152613522816134e6565b9050919050565b7f436f6e7472616374206e6f7420616c6c6f776564000000000000000000000000600082015250565b600061355f601483613348565b915061356a82613529565b602082019050919050565b6000602082019050818103600083015261358e81613552565b9050919050565b7f50726f787920636f6e7472616374206e6f7420616c6c6f776564000000000000600082015250565b60006135cb601a83613348565b91506135d682613595565b602082019050919050565b600060208201905081810360008301526135fa816135be565b9050919050565b7f5265656e7472616e637947756172643a207265656e7472616e742063616c6c00600082015250565b6000613637601f83613348565b915061364282613601565b602082019050919050565b600060208201905081810360008301526136668161362a565b9050919050565b7f4e6f207469636b65742073706563696669656400000000000000000000000000600082015250565b60006136a3601383613348565b91506136ae8261366d565b602082019050919050565b600060208201905081810360008301526136d281613696565b9050919050565b7f546f6f206d616e79207469636b65747300000000000000000000000000000000600082015250565b600061370f601083613348565b915061371a826136d9565b602082019050919050565b6000602082019050818103600083015261373e81613702565b9050919050565b7f4c6f7474657279206973206e6f74206f70656e00000000000000000000000000600082015250565b600061377b601383613348565b915061378682613745565b602082019050919050565b600060208201905081810360008301526137aa8161376e565b9050919050565b7f4c6f7474657279206973206f7665720000000000000000000000000000000000600082015250565b60006137e7600f83613348565b91506137f2826137b1565b602082019050919050565b60006020820190508181036000830152613816816137da565b9050919050565b7f4e487b7100000000000000000000000000000000000000000000000000000000600052603260045260246000fd5b600063ffffffff82169050919050565b6138658161384c565b811461387057600080fd5b50565b6000813590506138828161385c565b92915050565b60006020828403121561389e5761389d612d2d565b5b60006138ac84828501613873565b91505092915050565b7f4f7574736964652072616e676500000000000000000000000000000000000000600082015250565b60006138eb600d83613348565b91506138f6826138b5565b602082019050919050565b6000602082019050818103600083015261391a816138de565b9050919050565b600061392c82612dc2565b91507fffffffffffffffffffffffffffffffffffffffffffffffffffffffffffffffff820361395e5761395d61345a565b5b600182019050919050565b7f4c6f7474657279206e6f74206f76657200000000000000000000000000000000600082015250565b600061399f601083613348565b91506139aa82613969565b602082019050919050565b600060208201905081810360008301526139ce81613992565b9050919050565b7f4e6f742074696d6520746f207374617274206c6f747465727900000000000000600082015250565b6000613a0b601983613348565b9150613a16826139d5565b602082019050919050565b60006020820190508181036000830152613a3a816139fe565b9050919050565b7f656e6454696d65206d75737420626967676572207468616e2063757272656e7460008201527f2074696d65000000000000000000000000000000000000000000000000000000602082015250565b6000613a9d602583613348565b9150613aa882613a41565b604082019050919050565b60006020820190508181036000830152613acc81613a90565b9050919050565b7f4c6f7474657279206e6f7420636c6f7365000000000000000000000000000000600082015250565b6000613b09601183613348565b9150613b1482613ad3565b602082019050919050565b60006020820190508181036000830152613b3881613afc565b9050919050565b6000613b4a82612dc2565b9150613b5583612dc2565b9250828202613b6381612dc2565b91508282048414831517613b7a57613b7961345a565b5b5092915050565b7f4e487b7100000000000000000000000000000000000000000000000000000000600052601260045260246000fd5b6000613bbb82612dc2565b9150613bc683612dc2565b925082613bd657613bd5613b81565b5b828204905092915050565b6000613bec82612dc2565b9150613bf783612dc2565b9250828203905081811115613c0f57613c0e61345a565b5b92915050565b6000613c2082612dc2565b9150613c2b83612dc2565b925082613c3b57613c3a613b81565b5b828206905092915050565b7f4c6f7474657279206e6f7420636c61696d61626c650000000000000000000000600082015250565b6000613c7c601583613348565b9150613c8782613c46565b602082019050919050565b60006020820190508181036000830152613cab81613c6f565b9050919050565b6000604082019050613cc76000830185612dcc565b613cd46020830184612dcc565b9392505050565b60008160011c9050919050565b6000808291508390505b6001851115613d3257808604811115613d0e57613d0d61345a565b5b6001851615613d1d5780820291505b8081029050613d2b85613cdb565b9450613cf2565b94509492505050565b600082613d4b5760019050613e07565b81613d595760009050613e07565b8160018114613d6f5760028114613d7957613da8565b6001915050613e07565b60ff841115613d8b57613d8a61345a565b5b8360020a915084821115613da257613da161345a565b5b50613e07565b5060208310610133831016604e8410600b8410161715613ddd5782820a905083811115613dd857613dd761345a565b5b613e07565b613dea8484846001613ce8565b92509050818404811115613e0157613e0061345a565b5b81810290505b9392505050565b6000613e1982612dc2565b9150613e2483612dc2565b9250613e517fffffffffffffffffffffffffffffffffffffffffffffffffffffffffffffffff8484613d3b565b905092915050565b600081519050613e6881612e88565b92915050565b600060208284031215613e8457613e83612d2d565b5b6000613e9284828501613e59565b91505092915050565b7f4f776e61626c653a206e6577206f776e657220697320746865207a65726f206160008201527f6464726573730000000000000000000000000000000000000000000000000000602082015250565b6000613ef7602683613348565b9150613f0282613e9b565b604082019050919050565b60006020820190508181036000830152613f2681613eea565b9050919050565b6000606082019050613f426000830186612ee1565b613f4f6020830185612ee1565b613f5c6040830184612dcc565b949350505050565b600081519050613f7381613175565b92915050565b600060208284031215613f8f57613f8e612d2d565b5b6000613f9d84828501613f64565b91505092915050565b7f5361666545524332303a204552433230206f7065726174696f6e20646964206e60008201527f6f74207375636365656400000000000000000000000000000000000000000000602082015250565b6000614002602a83613348565b915061400d82613fa6565b604082019050919050565b6000602082019050818103600083015261403181613ff5565b9050919050565b7f416464726573733a20696e73756666696369656e742062616c616e636520666f60008201527f722063616c6c0000000000000000000000000000000000000000000000000000602082015250565b6000614094602683613348565b915061409f82614038565b604082019050919050565b600060208201905081810360008301526140c381614087565b9050919050565b7f416464726573733a2063616c6c20746f206e6f6e2d636f6e7472616374000000600082015250565b6000614100601d83613348565b915061410b826140ca565b602082019050919050565b6000602082019050818103600083015261412f816140f3565b9050919050565b600081519050919050565b600081905092915050565b60005b8381101561416a57808201518184015260208101905061414f565b60008484015250505050565b600061418182614136565b61418b8185614141565b935061419b81856020860161414c565b80840191505092915050565b60006141b38284614176565b915081905092915050565b600081519050919050565b6000601f19601f8301169050919050565b60006141e5826141be565b6141ef8185613348565b93506141ff81856020860161414c565b614208816141c9565b840191505092915050565b6000602082019050818103600083015261422d81846141da565b90509291505056fea2646970667358221220701e6383b5d0dc04646cd5af21dd7868c13c06674cdaeb697fb15ff531ed198b64736f6c63430008110033",
  "linkReferences": {},
  "deployedLinkReferences": {}
}