{
  "_format": "hh-sol-artifact-1",
  "contractName": "DasGenesis",
  "sourceName": "contracts/DasGenesis.sol",
  "abi": [
    {
      "inputs": [
        {
          "internalType": "string",
          "name": "baseURI_",
          "type": "string"
        },
        {
          "internalType": "address",
          "name": "_dasBabyCoin",
          "type": "address"
        },
        {
          "internalType": "address",
          "name": "_layerZeroEndpoint",
          "type": "address"
        }
      ],
      "stateMutability": "nonpayable",
      "type": "constructor"
    },
    {
      "anonymous": false,
      "inputs": [
        {
          "indexed": true,
          "internalType": "address",
          "name": "owner",
          "type": "address"
        },
        {
          "indexed": true,
          "internalType": "address",
          "name": "approved",
          "type": "address"
        },
        {
          "indexed": true,
          "internalType": "uint256",
          "name": "tokenId",
          "type": "uint256"
        }
      ],
      "name": "Approval",
      "type": "event"
    },
    {
      "anonymous": false,
      "inputs": [
        {
          "indexed": true,
          "internalType": "address",
          "name": "owner",
          "type": "address"
        },
        {
          "indexed": true,
          "internalType": "address",
          "name": "operator",
          "type": "address"
        },
        {
          "indexed": false,
          "internalType": "bool",
          "name": "approved",
          "type": "bool"
        }
      ],
      "name": "ApprovalForAll",
      "type": "event"
    },
    {
      "anonymous": false,
      "inputs": [
        {
          "indexed": false,
          "internalType": "uint16",
          "name": "_srcChainId",
          "type": "uint16"
        },
        {
          "indexed": false,
          "internalType": "bytes",
          "name": "_srcAddress",
          "type": "bytes"
        },
        {
          "indexed": false,
          "internalType": "uint64",
          "name": "_nonce",
          "type": "uint64"
        },
        {
          "indexed": false,
          "internalType": "bytes",
          "name": "_payload",
          "type": "bytes"
        }
      ],
      "name": "MessageFailed",
      "type": "event"
    },
    {
      "anonymous": false,
      "inputs": [
        {
          "indexed": true,
          "internalType": "address",
          "name": "previousOwner",
          "type": "address"
        },
        {
          "indexed": true,
          "internalType": "address",
          "name": "newOwner",
          "type": "address"
        }
      ],
      "name": "OwnershipTransferred",
      "type": "event"
    },
    {
      "anonymous": false,
      "inputs": [
        {
          "indexed": true,
          "internalType": "address",
          "name": "from",
          "type": "address"
        },
        {
          "indexed": true,
          "internalType": "address",
          "name": "to",
          "type": "address"
        },
        {
          "indexed": true,
          "internalType": "uint256",
          "name": "tokenId",
          "type": "uint256"
        }
      ],
      "name": "Transfer",
      "type": "event"
    },
    {
      "inputs": [],
      "name": "_owner",
      "outputs": [
        {
          "internalType": "address",
          "name": "",
          "type": "address"
        }
      ],
      "stateMutability": "view",
      "type": "function"
    },
    {
      "inputs": [
        {
          "internalType": "address",
          "name": "to",
          "type": "address"
        },
        {
          "internalType": "uint256",
          "name": "tokenId",
          "type": "uint256"
        }
      ],
      "name": "approve",
      "outputs": [],
      "stateMutability": "nonpayable",
      "type": "function"
    },
    {
      "inputs": [
        {
          "internalType": "address",
          "name": "owner",
          "type": "address"
        }
      ],
      "name": "balanceOf",
      "outputs": [
        {
          "internalType": "uint256",
          "name": "",
          "type": "uint256"
        }
      ],
      "stateMutability": "view",
      "type": "function"
    },
    {
      "inputs": [],
      "name": "bronze",
      "outputs": [
        {
          "internalType": "uint256",
          "name": "",
          "type": "uint256"
        }
      ],
      "stateMutability": "view",
      "type": "function"
    },
    {
      "inputs": [
        {
          "internalType": "address",
          "name": "_account",
          "type": "address"
        },
        {
          "internalType": "uint256",
          "name": "tokenId",
          "type": "uint256"
        }
      ],
      "name": "checkDasBabyCoin",
      "outputs": [
        {
          "internalType": "bool",
          "name": "",
          "type": "bool"
        }
      ],
      "stateMutability": "view",
      "type": "function"
    },
    {
      "inputs": [],
      "name": "dasBabyCoin",
      "outputs": [
        {
          "internalType": "contract IERC20",
          "name": "",
          "type": "address"
        }
      ],
      "stateMutability": "view",
      "type": "function"
    },
    {
      "inputs": [],
      "name": "donate",
      "outputs": [],
      "stateMutability": "payable",
      "type": "function"
    },
    {
      "inputs": [
        {
          "internalType": "uint16",
          "name": "",
          "type": "uint16"
        },
        {
          "internalType": "bytes",
          "name": "",
          "type": "bytes"
        },
        {
          "internalType": "uint256",
          "name": "",
          "type": "uint256"
        }
      ],
      "name": "failedMessages",
      "outputs": [
        {
          "internalType": "uint256",
          "name": "payloadLength",
          "type": "uint256"
        },
        {
          "internalType": "bytes32",
          "name": "payloadHash",
          "type": "bytes32"
        }
      ],
      "stateMutability": "view",
      "type": "function"
    },
    {
      "inputs": [
        {
          "internalType": "uint256",
          "name": "tokenId",
          "type": "uint256"
        }
      ],
      "name": "getApproved",
      "outputs": [
        {
          "internalType": "address",
          "name": "",
          "type": "address"
        }
      ],
      "stateMutability": "view",
      "type": "function"
    },
    {
      "inputs": [
        {
          "internalType": "address",
          "name": "owner",
          "type": "address"
        },
        {
          "internalType": "address",
          "name": "operator",
          "type": "address"
        }
      ],
      "name": "isApprovedForAll",
      "outputs": [
        {
          "internalType": "bool",
          "name": "",
          "type": "bool"
        }
      ],
      "stateMutability": "view",
      "type": "function"
    },
    {
      "inputs": [],
      "name": "low",
      "outputs": [
        {
          "internalType": "uint256",
          "name": "",
          "type": "uint256"
        }
      ],
      "stateMutability": "view",
      "type": "function"
    },
    {
      "inputs": [
        {
          "internalType": "uint16",
          "name": "_srcChainId",
          "type": "uint16"
        },
        {
          "internalType": "bytes",
          "name": "_srcAddress",
          "type": "bytes"
        },
        {
          "internalType": "uint64",
          "name": "_nonce",
          "type": "uint64"
        },
        {
          "internalType": "bytes",
          "name": "_payload",
          "type": "bytes"
        }
      ],
      "name": "lzReceive",
      "outputs": [],
      "stateMutability": "nonpayable",
      "type": "function"
    },
    {
      "inputs": [
        {
          "internalType": "uint256",
          "name": "tokenId",
          "type": "uint256"
        }
      ],
      "name": "mint",
      "outputs": [],
      "stateMutability": "payable",
      "type": "function"
    },
    {
      "inputs": [],
      "name": "name",
      "outputs": [
        {
          "internalType": "string",
          "name": "",
          "type": "string"
        }
      ],
      "stateMutability": "view",
      "type": "function"
    },
    {
      "inputs": [
        {
          "internalType": "uint16",
          "name": "_srcChainId",
          "type": "uint16"
        },
        {
          "internalType": "bytes",
          "name": "_srcAddress",
          "type": "bytes"
        },
        {
          "internalType": "uint64",
          "name": "_nonce",
          "type": "uint64"
        },
        {
          "internalType": "bytes",
          "name": "_payload",
          "type": "bytes"
        }
      ],
      "name": "onLzReceive",
      "outputs": [],
      "stateMutability": "nonpayable",
      "type": "function"
    },
    {
      "inputs": [],
      "name": "owner",
      "outputs": [
        {
          "internalType": "address",
          "name": "",
          "type": "address"
        }
      ],
      "stateMutability": "view",
      "type": "function"
    },
    {
      "inputs": [
        {
          "internalType": "uint256",
          "name": "tokenId",
          "type": "uint256"
        }
      ],
      "name": "ownerOf",
      "outputs": [
        {
          "internalType": "address",
          "name": "",
          "type": "address"
        }
      ],
      "stateMutability": "view",
      "type": "function"
    },
    {
      "inputs": [],
      "name": "renounceOwnership",
      "outputs": [],
      "stateMutability": "nonpayable",
      "type": "function"
    },
    {
      "inputs": [
        {
          "internalType": "uint16",
          "name": "_srcChainId",
          "type": "uint16"
        },
        {
          "internalType": "bytes",
          "name": "_srcAddress",
          "type": "bytes"
        },
        {
          "internalType": "uint64",
          "name": "_nonce",
          "type": "uint64"
        },
        {
          "internalType": "bytes",
          "name": "_payload",
          "type": "bytes"
        }
      ],
      "name": "retryMessage",
      "outputs": [],
      "stateMutability": "payable",
      "type": "function"
    },
    {
      "inputs": [
        {
          "internalType": "address",
          "name": "from",
          "type": "address"
        },
        {
          "internalType": "address",
          "name": "to",
          "type": "address"
        },
        {
          "internalType": "uint256",
          "name": "tokenId",
          "type": "uint256"
        }
      ],
      "name": "safeTransferFrom",
      "outputs": [],
      "stateMutability": "nonpayable",
      "type": "function"
    },
    {
      "inputs": [
        {
          "internalType": "address",
          "name": "from",
          "type": "address"
        },
        {
          "internalType": "address",
          "name": "to",
          "type": "address"
        },
        {
          "internalType": "uint256",
          "name": "tokenId",
          "type": "uint256"
        },
        {
          "internalType": "bytes",
          "name": "_data",
          "type": "bytes"
        }
      ],
      "name": "safeTransferFrom",
      "outputs": [],
      "stateMutability": "nonpayable",
      "type": "function"
    },
    {
      "inputs": [
        {
          "internalType": "address",
          "name": "operator",
          "type": "address"
        },
        {
          "internalType": "bool",
          "name": "approved",
          "type": "bool"
        }
      ],
      "name": "setApprovalForAll",
      "outputs": [],
      "stateMutability": "nonpayable",
      "type": "function"
    },
    {
      "inputs": [
        {
          "internalType": "string",
          "name": "URI",
          "type": "string"
        }
      ],
      "name": "setBaseURI",
      "outputs": [],
      "stateMutability": "nonpayable",
      "type": "function"
    },
    {
      "inputs": [
        {
          "internalType": "uint256",
          "name": "newVal",
          "type": "uint256"
        }
      ],
      "name": "setGasForDestinationLzReceive",
      "outputs": [],
      "stateMutability": "nonpayable",
      "type": "function"
    },
    {
      "inputs": [
        {
          "internalType": "uint256",
          "name": "_low",
          "type": "uint256"
        }
      ],
      "name": "setLow",
      "outputs": [],
      "stateMutability": "nonpayable",
      "type": "function"
    },
    {
      "inputs": [
        {
          "internalType": "uint16",
          "name": "_chainId",
          "type": "uint16"
        },
        {
          "internalType": "bytes",
          "name": "_trustedRemote",
          "type": "bytes"
        }
      ],
      "name": "setTrustedRemote",
      "outputs": [],
      "stateMutability": "nonpayable",
      "type": "function"
    },
    {
      "inputs": [],
      "name": "sliver",
      "outputs": [
        {
          "internalType": "uint256",
          "name": "",
          "type": "uint256"
        }
      ],
      "stateMutability": "view",
      "type": "function"
    },
    {
      "inputs": [
        {
          "internalType": "bytes4",
          "name": "interfaceId",
          "type": "bytes4"
        }
      ],
      "name": "supportsInterface",
      "outputs": [
        {
          "internalType": "bool",
          "name": "",
          "type": "bool"
        }
      ],
      "stateMutability": "view",
      "type": "function"
    },
    {
      "inputs": [],
      "name": "symbol",
      "outputs": [
        {
          "internalType": "string",
          "name": "",
          "type": "string"
        }
      ],
      "stateMutability": "view",
      "type": "function"
    },
    {
      "inputs": [
        {
          "internalType": "uint256",
          "name": "tokenId",
          "type": "uint256"
        }
      ],
      "name": "tokenURI",
      "outputs": [
        {
          "internalType": "string",
          "name": "",
          "type": "string"
        }
      ],
      "stateMutability": "view",
      "type": "function"
    },
    {
      "inputs": [
        {
          "internalType": "address",
          "name": "from",
          "type": "address"
        },
        {
          "internalType": "address",
          "name": "to",
          "type": "address"
        },
        {
          "internalType": "uint256",
          "name": "tokenId",
          "type": "uint256"
        }
      ],
      "name": "transferFrom",
      "outputs": [],
      "stateMutability": "nonpayable",
      "type": "function"
    },
    {
      "inputs": [
        {
          "internalType": "address",
          "name": "newOwner",
          "type": "address"
        }
      ],
      "name": "transferOwnership",
      "outputs": [],
      "stateMutability": "nonpayable",
      "type": "function"
    },
    {
      "inputs": [
        {
          "internalType": "uint16",
          "name": "_chainId",
          "type": "uint16"
        },
        {
          "internalType": "uint256",
          "name": "tokenId",
          "type": "uint256"
        }
      ],
      "name": "traverseChains",
      "outputs": [],
      "stateMutability": "payable",
      "type": "function"
    },
    {
      "inputs": [
        {
          "internalType": "uint16",
          "name": "",
          "type": "uint16"
        }
      ],
      "name": "trustedRemoteLookup",
      "outputs": [
        {
          "internalType": "bytes",
          "name": "",
          "type": "bytes"
        }
      ],
      "stateMutability": "view",
      "type": "function"
    },
    {
      "inputs": [
        {
          "internalType": "uint256",
          "name": "amt",
          "type": "uint256"
        }
      ],
      "name": "withdraw",
      "outputs": [],
      "stateMutability": "nonpayable",
      "type": "function"
    }
  ],
  "bytecode": "0x60a06040526602d79883d20000600d5566071afd498d0000600e5560d4600f55620557306010553480156200003357600080fd5b5060405162005e4c38038062005e4c8339818101604052810190620000599190620004a0565b6040518060400160405280600e81526020017f4461734261627947656e657369730000000000000000000000000000000000008152506040518060400160405280600e81526020017f4461734261627947656e65736973000000000000000000000000000000000000815250620000e5620000d9620001dc60201b60201c565b620001e460201b60201c565b8160019081620000f6919062000766565b50806002908162000108919062000766565b50505033600b60006101000a81548173ffffffffffffffffffffffffffffffffffffffff021916908373ffffffffffffffffffffffffffffffffffffffff16021790555080600860006101000a81548173ffffffffffffffffffffffffffffffffffffffff021916908373ffffffffffffffffffffffffffffffffffffffff16021790555082600c90816200019e919062000766565b508173ffffffffffffffffffffffffffffffffffffffff1660808173ffffffffffffffffffffffffffffffffffffffff16815250505050506200084d565b600033905090565b60008060009054906101000a900473ffffffffffffffffffffffffffffffffffffffff169050816000806101000a81548173ffffffffffffffffffffffffffffffffffffffff021916908373ffffffffffffffffffffffffffffffffffffffff1602179055508173ffffffffffffffffffffffffffffffffffffffff168173ffffffffffffffffffffffffffffffffffffffff167f8be0079c531659141344cd1fd0a4f28419497f9722a3daafe3b4186f6b6457e060405160405180910390a35050565b6000604051905090565b600080fd5b600080fd5b600080fd5b600080fd5b6000601f19601f8301169050919050565b7f4e487b7100000000000000000000000000000000000000000000000000000000600052604160045260246000fd5b6200031182620002c6565b810181811067ffffffffffffffff82111715620003335762000332620002d7565b5b80604052505050565b600062000348620002a8565b905062000356828262000306565b919050565b600067ffffffffffffffff821115620003795762000378620002d7565b5b6200038482620002c6565b9050602081019050919050565b60005b83811015620003b157808201518184015260208101905062000394565b60008484015250505050565b6000620003d4620003ce846200035b565b6200033c565b905082815260208101848484011115620003f357620003f2620002c1565b5b6200040084828562000391565b509392505050565b600082601f83011262000420576200041f620002bc565b5b815162000432848260208601620003bd565b91505092915050565b600073ffffffffffffffffffffffffffffffffffffffff82169050919050565b600062000468826200043b565b9050919050565b6200047a816200045b565b81146200048657600080fd5b50565b6000815190506200049a816200046f565b92915050565b600080600060608486031215620004bc57620004bb620002b2565b5b600084015167ffffffffffffffff811115620004dd57620004dc620002b7565b5b620004eb8682870162000408565b9350506020620004fe8682870162000489565b9250506040620005118682870162000489565b9150509250925092565b600081519050919050565b7f4e487b7100000000000000000000000000000000000000000000000000000000600052602260045260246000fd5b600060028204905060018216806200056e57607f821691505b60208210810362000584576200058362000526565b5b50919050565b60008190508160005260206000209050919050565b60006020601f8301049050919050565b600082821b905092915050565b600060088302620005ee7fffffffffffffffffffffffffffffffffffffffffffffffffffffffffffffffff82620005af565b620005fa8683620005af565b95508019841693508086168417925050509392505050565b6000819050919050565b6000819050919050565b600062000647620006416200063b8462000612565b6200061c565b62000612565b9050919050565b6000819050919050565b620006638362000626565b6200067b62000672826200064e565b848454620005bc565b825550505050565b600090565b6200069262000683565b6200069f81848462000658565b505050565b5b81811015620006c757620006bb60008262000688565b600181019050620006a5565b5050565b601f8211156200071657620006e0816200058a565b620006eb846200059f565b81016020851015620006fb578190505b620007136200070a856200059f565b830182620006a4565b50505b505050565b600082821c905092915050565b60006200073b600019846008026200071b565b1980831691505092915050565b600062000756838362000728565b9150826002028217905092915050565b62000771826200051b565b67ffffffffffffffff8111156200078d576200078c620002d7565b5b62000799825462000555565b620007a6828285620006cb565b600060209050601f831160018114620007de5760008415620007c9578287015190505b620007d5858262000748565b86555062000845565b601f198416620007ee866200058a565b60005b828110156200081857848901518255600182019150602085019450602081019050620007f1565b8683101562000838578489015162000834601f89168262000728565b8355505b6001600288020188555050505b505050505050565b6080516155dc6200087060003960008181610de701526116c201526155dc6000f3fe6080604052600436106102035760003560e01c80638da5cb5b11610118578063b88d4fde116100a0578063d1deba1f1161006f578063d1deba1f1461075b578063e985e9c514610777578063eb8d72b7146107b4578063ed88c68e146107dd578063f2fde38b146107e757610203565b8063b88d4fde146106ae578063c40de79a146106d7578063c87b56dd14610702578063cf89fa031461073f57610203565b8063a0712d68116100e7578063a0712d68146105e8578063a22cb46514610604578063adc9920f1461062d578063b2bdfa7b14610658578063b434b6ea1461068357610203565b80638da5cb5b1461052b5780638ee7491214610556578063943fb8721461059457806395d89b41146105bd57610203565b80632e1a7d4d1161019b5780636352211e1161016a5780636352211e1461043457806370a0823114610471578063715018a6146104ae5780637533d788146104c55780638a438ff11461050257610203565b80632e1a7d4d1461038e5780633cfe4735146103b757806342842e0e146103e257806355f804b31461040b57610203565b8063095ea7b3116101d7578063095ea7b3146102d65780631c37a822146102ff578063226ead681461032857806323b872dd1461036557610203565b80621d35671461020857806301ffc9a71461023157806306fdde031461026e578063081812fc14610299575b600080fd5b34801561021457600080fd5b5061022f600480360381019061022a919061310a565b610810565b005b34801561023d57600080fd5b5061025860048036038101906102539190613201565b610a52565b6040516102659190613249565b60405180910390f35b34801561027a57600080fd5b50610283610b34565b60405161029091906132e3565b60405180910390f35b3480156102a557600080fd5b506102c060048036038101906102bb919061333b565b610bc6565b6040516102cd91906133a9565b60405180910390f35b3480156102e257600080fd5b506102fd60048036038101906102f891906133f0565b610c4b565b005b34801561030b57600080fd5b506103266004803603810190610321919061310a565b610d62565b005b34801561033457600080fd5b5061034f600480360381019061034a91906133f0565b610de2565b60405161035c9190613249565b60405180910390f35b34801561037157600080fd5b5061038c60048036038101906103879190613430565b610eed565b005b34801561039a57600080fd5b506103b560048036038101906103b0919061333b565b610f4d565b005b3480156103c357600080fd5b506103cc61109b565b6040516103d99190613492565b60405180910390f35b3480156103ee57600080fd5b5061040960048036038101906104049190613430565b6110a1565b005b34801561041757600080fd5b50610432600480360381019061042d919061354e565b6110c1565b005b34801561044057600080fd5b5061045b6004803603810190610456919061333b565b611150565b60405161046891906133a9565b60405180910390f35b34801561047d57600080fd5b5061049860048036038101906104939190613597565b611201565b6040516104a59190613492565b60405180910390f35b3480156104ba57600080fd5b506104c36112b8565b005b3480156104d157600080fd5b506104ec60048036038101906104e791906135c4565b611340565b6040516104f99190613646565b60405180910390f35b34801561050e57600080fd5b506105296004803603810190610524919061333b565b6113e0565b005b34801561053757600080fd5b50610540611466565b60405161054d91906133a9565b60405180910390f35b34801561056257600080fd5b5061057d60048036038101906105789190613668565b61148f565b60405161058b9291906136f0565b60405180910390f35b3480156105a057600080fd5b506105bb60048036038101906105b6919061333b565b6114e3565b005b3480156105c957600080fd5b506105d2611569565b6040516105df91906132e3565b60405180910390f35b61060260048036038101906105fd919061333b565b6115fb565b005b34801561061057600080fd5b5061062b60048036038101906106269190613745565b6116aa565b005b34801561063957600080fd5b506106426116c0565b60405161064f91906137e4565b60405180910390f35b34801561066457600080fd5b5061066d6116e4565b60405161067a91906133a9565b60405180910390f35b34801561068f57600080fd5b5061069861170a565b6040516106a59190613492565b60405180910390f35b3480156106ba57600080fd5b506106d560048036038101906106d091906137ff565b611710565b005b3480156106e357600080fd5b506106ec611772565b6040516106f99190613492565b60405180910390f35b34801561070e57600080fd5b506107296004803603810190610724919061333b565b611778565b60405161073691906132e3565b60405180910390f35b61075960048036038101906107549190613882565b61181f565b005b61077560048036038101906107709190613922565b611b03565b005b34801561078357600080fd5b5061079e600480360381019061079991906139c6565b611ca2565b6040516107ab9190613249565b60405180910390f35b3480156107c057600080fd5b506107db60048036038101906107d69190613a06565b611d36565b005b6107e5611de2565b005b3480156107f357600080fd5b5061080e60048036038101906108099190613597565b611de4565b005b600860009054906101000a900473ffffffffffffffffffffffffffffffffffffffff1673ffffffffffffffffffffffffffffffffffffffff163373ffffffffffffffffffffffffffffffffffffffff161461086a57600080fd5b600a60008561ffff1661ffff168152602001908152602001600020805461089090613a95565b905083511480156108d65750600a60008561ffff1661ffff1681526020019081526020016000206040516108c49190613b69565b60405180910390208380519060200120145b610915576040517f08c379a000000000000000000000000000000000000000000000000000000000815260040161090c90613bf2565b60405180910390fd5b3073ffffffffffffffffffffffffffffffffffffffff16631c37a822858585856040518563ffffffff1660e01b81526004016109549493929190613c30565b600060405180830381600087803b15801561096e57600080fd5b505af192505050801561097f575060015b610a4b576040518060400160405280825181526020018280519060200120815250600960008661ffff1661ffff168152602001908152602001600020846040516109c99190613cb4565b908152602001604051809103902060008467ffffffffffffffff16815260200190815260200160002060008201518160000155602082015181600101559050507fe6f254030bcb01ffd20558175c13fcaed6d1520be7becee4c961b65f79243b0d84848484604051610a3e9493929190613c30565b60405180910390a1610a4c565b5b50505050565b60007f80ac58cd000000000000000000000000000000000000000000000000000000007bffffffffffffffffffffffffffffffffffffffffffffffffffffffff1916827bffffffffffffffffffffffffffffffffffffffffffffffffffffffff19161480610b1d57507f5b5e139f000000000000000000000000000000000000000000000000000000007bffffffffffffffffffffffffffffffffffffffffffffffffffffffff1916827bffffffffffffffffffffffffffffffffffffffffffffffffffffffff1916145b80610b2d5750610b2c82611edb565b5b9050919050565b606060018054610b4390613a95565b80601f0160208091040260200160405190810160405280929190818152602001828054610b6f90613a95565b8015610bbc5780601f10610b9157610100808354040283529160200191610bbc565b820191906000526020600020905b815481529060010190602001808311610b9f57829003601f168201915b5050505050905090565b6000610bd182611f45565b610c10576040517f08c379a0000000000000000000000000000000000000000000000000000000008152600401610c0790613d3d565b60405180910390fd5b6006600083815260200190815260200160002060009054906101000a900473ffffffffffffffffffffffffffffffffffffffff169050919050565b6000610c5682611150565b90508073ffffffffffffffffffffffffffffffffffffffff168373ffffffffffffffffffffffffffffffffffffffff1603610cc6576040517f08c379a0000000000000000000000000000000000000000000000000000000008152600401610cbd90613dcf565b60405180910390fd5b8073ffffffffffffffffffffffffffffffffffffffff16610ce5611fb1565b73ffffffffffffffffffffffffffffffffffffffff161480610d145750610d1381610d0e611fb1565b611ca2565b5b610d53576040517f08c379a0000000000000000000000000000000000000000000000000000000008152600401610d4a90613e61565b60405180910390fd5b610d5d8383611fb9565b505050565b3073ffffffffffffffffffffffffffffffffffffffff163373ffffffffffffffffffffffffffffffffffffffff1614610dd0576040517f08c379a0000000000000000000000000000000000000000000000000000000008152600401610dc790613ef3565b60405180910390fd5b610ddc84848484612072565b50505050565b6000807f000000000000000000000000000000000000000000000000000000000000000073ffffffffffffffffffffffffffffffffffffffff166370a08231856040518263ffffffff1660e01b8152600401610e3e91906133a9565b602060405180830381865afa158015610e5b573d6000803e3d6000fd5b505050506040513d601f19601f82011682018060405250810190610e7f9190613f28565b9050600e548110158015610e955750600f548311155b15610ea4576001915050610ee7565b600d548110158015610eb75750600e5481105b8015610ec45750600f5483115b8015610ed257506103e88311155b15610ee1576001915050610ee7565b60009150505b92915050565b610efe610ef8611fb1565b8261209f565b610f3d576040517f08c379a0000000000000000000000000000000000000000000000000000000008152600401610f3490613fc7565b60405180910390fd5b610f4883838361217d565b505050565b610f55611fb1565b73ffffffffffffffffffffffffffffffffffffffff16610f73611466565b73ffffffffffffffffffffffffffffffffffffffff1614610fc9576040517f08c379a0000000000000000000000000000000000000000000000000000000008152600401610fc090614033565b60405180910390fd5b6000600b60009054906101000a900473ffffffffffffffffffffffffffffffffffffffff1673ffffffffffffffffffffffffffffffffffffffff168260405161101190614079565b60006040518083038185875af1925050503d806000811461104e576040519150601f19603f3d011682016040523d82523d6000602084013e611053565b606091505b5050905080611097576040517f08c379a000000000000000000000000000000000000000000000000000000000815260040161108e906140da565b60405180910390fd5b5050565b600d5481565b6110bc83838360405180602001604052806000815250611710565b505050565b6110c9611fb1565b73ffffffffffffffffffffffffffffffffffffffff166110e7611466565b73ffffffffffffffffffffffffffffffffffffffff161461113d576040517f08c379a000000000000000000000000000000000000000000000000000000000815260040161113490614033565b60405180910390fd5b80600c908161114c919061429c565b5050565b6000806003600084815260200190815260200160002060009054906101000a900473ffffffffffffffffffffffffffffffffffffffff169050600073ffffffffffffffffffffffffffffffffffffffff168173ffffffffffffffffffffffffffffffffffffffff16036111f8576040517f08c379a00000000000000000000000000000000000000000000000000000000081526004016111ef906143e0565b60405180910390fd5b80915050919050565b60008073ffffffffffffffffffffffffffffffffffffffff168273ffffffffffffffffffffffffffffffffffffffff1603611271576040517f08c379a000000000000000000000000000000000000000000000000000000000815260040161126890614472565b60405180910390fd5b600560008373ffffffffffffffffffffffffffffffffffffffff1673ffffffffffffffffffffffffffffffffffffffff168152602001908152602001600020549050919050565b6112c0611fb1565b73ffffffffffffffffffffffffffffffffffffffff166112de611466565b73ffffffffffffffffffffffffffffffffffffffff1614611334576040517f08c379a000000000000000000000000000000000000000000000000000000000815260040161132b90614033565b60405180910390fd5b61133e60006123d8565b565b600a602052806000526040600020600091509050805461135f90613a95565b80601f016020809104026020016040519081016040528092919081815260200182805461138b90613a95565b80156113d85780601f106113ad576101008083540402835291602001916113d8565b820191906000526020600020905b8154815290600101906020018083116113bb57829003601f168201915b505050505081565b6113e8611fb1565b73ffffffffffffffffffffffffffffffffffffffff16611406611466565b73ffffffffffffffffffffffffffffffffffffffff161461145c576040517f08c379a000000000000000000000000000000000000000000000000000000000815260040161145390614033565b60405180910390fd5b80600f8190555050565b60008060009054906101000a900473ffffffffffffffffffffffffffffffffffffffff16905090565b60096020528260005260406000208280516020810182018051848252602083016020850120818352809550505050505060205280600052604060002060009250925050508060000154908060010154905082565b6114eb611fb1565b73ffffffffffffffffffffffffffffffffffffffff16611509611466565b73ffffffffffffffffffffffffffffffffffffffff161461155f576040517f08c379a000000000000000000000000000000000000000000000000000000000815260040161155690614033565b60405180910390fd5b8060108190555050565b60606002805461157890613a95565b80601f01602080910402602001604051908101604052809291908181526020018280546115a490613a95565b80156115f15780601f106115c6576101008083540402835291602001916115f1565b820191906000526020600020905b8154815290600101906020018083116115d457829003601f168201915b5050505050905090565b6001811015801561160e57506103e88111155b61164d576040517f08c379a000000000000000000000000000000000000000000000000000000000815260040161164490614504565b60405180910390fd5b6001151561165b3383610de2565b15151461169d576040517f08c379a000000000000000000000000000000000000000000000000000000000815260040161169490614596565b60405180910390fd5b6116a7338261249c565b50565b6116bc6116b5611fb1565b83836124ba565b5050565b7f000000000000000000000000000000000000000000000000000000000000000081565b600b60009054906101000a900473ffffffffffffffffffffffffffffffffffffffff1681565b600e5481565b61172161171b611fb1565b8361209f565b611760576040517f08c379a000000000000000000000000000000000000000000000000000000000815260040161175790613fc7565b60405180910390fd5b61176c84848484612626565b50505050565b600f5481565b606061178382611f45565b6117c2576040517f08c379a00000000000000000000000000000000000000000000000000000000081526004016117b990614628565b60405180910390fd5b60006117cc612682565b905060008151116117ec5760405180602001604052806000815250611817565b806117f684612714565b604051602001611807929190614684565b6040516020818303038152906040525b915050919050565b61182881611150565b73ffffffffffffffffffffffffffffffffffffffff163373ffffffffffffffffffffffffffffffffffffffff1614611895576040517f08c379a000000000000000000000000000000000000000000000000000000000815260040161188c9061471a565b60405180910390fd5b6000600a60008461ffff1661ffff16815260200190815260200160002080546118bd90613a95565b9050116118ff576040517f08c379a00000000000000000000000000000000000000000000000000000000081526004016118f6906147ac565b60405180910390fd5b61190881612874565b6000338260405160200161191d9291906147cc565b604051602081830303815290604052905060006001905060008160105460405160200161194b92919061484c565b60405160208183030381529060405290506000600860009054906101000a900473ffffffffffffffffffffffffffffffffffffffff1673ffffffffffffffffffffffffffffffffffffffff166340a7bb108730876000876040518663ffffffff1660e01b81526004016119c2959493929190614878565b6040805180830381865afa1580156119de573d6000803e3d6000fd5b505050506040513d601f19601f82011682018060405250810190611a0291906148d9565b50905080341015611a48576040517f08c379a0000000000000000000000000000000000000000000000000000000008152600401611a3f906149b1565b60405180910390fd5b600860009054906101000a900473ffffffffffffffffffffffffffffffffffffffff1673ffffffffffffffffffffffffffffffffffffffff1663c58031003488600a60008b61ffff1661ffff16815260200190815260200160002088336000896040518863ffffffff1660e01b8152600401611ac996959493929190614a76565b6000604051808303818588803b158015611ae257600080fd5b505af1158015611af6573d6000803e3d6000fd5b5050505050505050505050565b6000600960008761ffff1661ffff16815260200190815260200160002085604051611b2e9190613cb4565b908152602001604051809103902060008567ffffffffffffffff16815260200190815260200160002090506000801b816001015403611ba2576040517f08c379a0000000000000000000000000000000000000000000000000000000008152600401611b9990614b5e565b60405180910390fd5b806000015483839050148015611bd2575080600101548383604051611bc8929190614ba3565b6040518091039020145b611c11576040517f08c379a0000000000000000000000000000000000000000000000000000000008152600401611c0890614c08565b60405180910390fd5b600081600001819055506000801b81600101819055503073ffffffffffffffffffffffffffffffffffffffff16631c37a82287878787876040518663ffffffff1660e01b8152600401611c68959493929190614c55565b600060405180830381600087803b158015611c8257600080fd5b505af1158015611c96573d6000803e3d6000fd5b50505050505050505050565b6000600760008473ffffffffffffffffffffffffffffffffffffffff1673ffffffffffffffffffffffffffffffffffffffff16815260200190815260200160002060008373ffffffffffffffffffffffffffffffffffffffff1673ffffffffffffffffffffffffffffffffffffffff16815260200190815260200160002060009054906101000a900460ff16905092915050565b611d3e611fb1565b73ffffffffffffffffffffffffffffffffffffffff16611d5c611466565b73ffffffffffffffffffffffffffffffffffffffff1614611db2576040517f08c379a0000000000000000000000000000000000000000000000000000000008152600401611da990614033565b60405180910390fd5b8181600a60008661ffff1661ffff1681526020019081526020016000209182611ddc929190614cfb565b50505050565b565b611dec611fb1565b73ffffffffffffffffffffffffffffffffffffffff16611e0a611466565b73ffffffffffffffffffffffffffffffffffffffff1614611e60576040517f08c379a0000000000000000000000000000000000000000000000000000000008152600401611e5790614033565b60405180910390fd5b600073ffffffffffffffffffffffffffffffffffffffff168173ffffffffffffffffffffffffffffffffffffffff1603611ecf576040517f08c379a0000000000000000000000000000000000000000000000000000000008152600401611ec690614e3d565b60405180910390fd5b611ed8816123d8565b50565b60007f01ffc9a7000000000000000000000000000000000000000000000000000000007bffffffffffffffffffffffffffffffffffffffffffffffffffffffff1916827bffffffffffffffffffffffffffffffffffffffffffffffffffffffff1916149050919050565b60008073ffffffffffffffffffffffffffffffffffffffff166003600084815260200190815260200160002060009054906101000a900473ffffffffffffffffffffffffffffffffffffffff1673ffffffffffffffffffffffffffffffffffffffff1614159050919050565b600033905090565b816006600083815260200190815260200160002060006101000a81548173ffffffffffffffffffffffffffffffffffffffff021916908373ffffffffffffffffffffffffffffffffffffffff160217905550808273ffffffffffffffffffffffffffffffffffffffff1661202c83611150565b73ffffffffffffffffffffffffffffffffffffffff167f8c5be1e5ebec7d5bd14f71427d1e84f3dd0314c0f7b2291e5b200ac8c7c3b92560405160405180910390a45050565b600080828060200190518101906120899190614e89565b91509150612097828261249c565b505050505050565b60006120aa82611f45565b6120e9576040517f08c379a00000000000000000000000000000000000000000000000000000000081526004016120e090614f3b565b60405180910390fd5b60006120f483611150565b90508073ffffffffffffffffffffffffffffffffffffffff168473ffffffffffffffffffffffffffffffffffffffff16148061216357508373ffffffffffffffffffffffffffffffffffffffff1661214b84610bc6565b73ffffffffffffffffffffffffffffffffffffffff16145b8061217457506121738185611ca2565b5b91505092915050565b8273ffffffffffffffffffffffffffffffffffffffff1661219d82611150565b73ffffffffffffffffffffffffffffffffffffffff16146121f3576040517f08c379a00000000000000000000000000000000000000000000000000000000081526004016121ea90614fcd565b60405180910390fd5b600073ffffffffffffffffffffffffffffffffffffffff168273ffffffffffffffffffffffffffffffffffffffff1603612262576040517f08c379a00000000000000000000000000000000000000000000000000000000081526004016122599061505f565b60405180910390fd5b61226d838383612985565b612278600082611fb9565b6001600560008573ffffffffffffffffffffffffffffffffffffffff1673ffffffffffffffffffffffffffffffffffffffff16815260200190815260200160002060008282546122c891906150ae565b925050819055506001600560008473ffffffffffffffffffffffffffffffffffffffff1673ffffffffffffffffffffffffffffffffffffffff168152602001908152602001600020600082825461231f91906150e2565b92505081905550816003600083815260200190815260200160002060006101000a81548173ffffffffffffffffffffffffffffffffffffffff021916908373ffffffffffffffffffffffffffffffffffffffff160217905550808273ffffffffffffffffffffffffffffffffffffffff168473ffffffffffffffffffffffffffffffffffffffff167fddf252ad1be2c89b69c2b068fc378daa952ba7f163c4a11628f55a4df523b3ef60405160405180910390a4505050565b60008060009054906101000a900473ffffffffffffffffffffffffffffffffffffffff169050816000806101000a81548173ffffffffffffffffffffffffffffffffffffffff021916908373ffffffffffffffffffffffffffffffffffffffff1602179055508173ffffffffffffffffffffffffffffffffffffffff168173ffffffffffffffffffffffffffffffffffffffff167f8be0079c531659141344cd1fd0a4f28419497f9722a3daafe3b4186f6b6457e060405160405180910390a35050565b6124b682826040518060200160405280600081525061298a565b5050565b8173ffffffffffffffffffffffffffffffffffffffff168373ffffffffffffffffffffffffffffffffffffffff1603612528576040517f08c379a000000000000000000000000000000000000000000000000000000000815260040161251f90615162565b60405180910390fd5b80600760008573ffffffffffffffffffffffffffffffffffffffff1673ffffffffffffffffffffffffffffffffffffffff16815260200190815260200160002060008473ffffffffffffffffffffffffffffffffffffffff1673ffffffffffffffffffffffffffffffffffffffff16815260200190815260200160002060006101000a81548160ff0219169083151502179055508173ffffffffffffffffffffffffffffffffffffffff168373ffffffffffffffffffffffffffffffffffffffff167f17307eab39ab6107e8899845ad3d59bd9653f200f220920489ca2b5937696c31836040516126199190613249565b60405180910390a3505050565b61263184848461217d565b61263d848484846129e5565b61267c576040517f08c379a0000000000000000000000000000000000000000000000000000000008152600401612673906151f4565b60405180910390fd5b50505050565b6060600c805461269190613a95565b80601f01602080910402602001604051908101604052809291908181526020018280546126bd90613a95565b801561270a5780601f106126df5761010080835404028352916020019161270a565b820191906000526020600020905b8154815290600101906020018083116126ed57829003601f168201915b5050505050905090565b60606000820361275b576040518060400160405280600181526020017f3000000000000000000000000000000000000000000000000000000000000000815250905061286f565b600082905060005b6000821461278d57808061277690615214565b915050600a82612786919061528b565b9150612763565b60008167ffffffffffffffff8111156127a9576127a8612f9f565b5b6040519080825280601f01601f1916602001820160405280156127db5781602001600182028036833780820191505090505b5090505b60008514612868576001826127f491906150ae565b9150600a8561280391906152bc565b603061280f91906150e2565b60f81b818381518110612825576128246152ed565b5b60200101907effffffffffffffffffffffffffffffffffffffffffffffffffffffffffffff1916908160001a905350600a85612861919061528b565b94506127df565b8093505050505b919050565b600061287f82611150565b905061288d81600084612985565b612898600083611fb9565b6001600560008373ffffffffffffffffffffffffffffffffffffffff1673ffffffffffffffffffffffffffffffffffffffff16815260200190815260200160002060008282546128e891906150ae565b925050819055506003600083815260200190815260200160002060006101000a81549073ffffffffffffffffffffffffffffffffffffffff021916905581600073ffffffffffffffffffffffffffffffffffffffff168273ffffffffffffffffffffffffffffffffffffffff167fddf252ad1be2c89b69c2b068fc378daa952ba7f163c4a11628f55a4df523b3ef60405160405180910390a45050565b505050565b6129948383612b6c565b6129a160008484846129e5565b6129e0576040517f08c379a00000000000000000000000000000000000000000000000000000000081526004016129d7906151f4565b60405180910390fd5b505050565b6000612a068473ffffffffffffffffffffffffffffffffffffffff16612f23565b15612b5f578373ffffffffffffffffffffffffffffffffffffffff1663150b7a02612a2f611fb1565b8786866040518563ffffffff1660e01b8152600401612a51949392919061531c565b6020604051808303816000875af1925050508015612a8d57506040513d601f19601f82011682018060405250810190612a8a919061537d565b60015b612b0f573d8060008114612abd576040519150601f19603f3d011682016040523d82523d6000602084013e612ac2565b606091505b506000815103612b07576040517f08c379a0000000000000000000000000000000000000000000000000000000008152600401612afe906151f4565b60405180910390fd5b805181602001fd5b63150b7a0260e01b7bffffffffffffffffffffffffffffffffffffffffffffffffffffffff1916817bffffffffffffffffffffffffffffffffffffffffffffffffffffffff191614915050612b64565b600190505b949350505050565b600073ffffffffffffffffffffffffffffffffffffffff168273ffffffffffffffffffffffffffffffffffffffff1603612bdb576040517f08c379a0000000000000000000000000000000000000000000000000000000008152600401612bd2906153f6565b60405180910390fd5b600073ffffffffffffffffffffffffffffffffffffffff166003600083815260200190815260200160002060009054906101000a900473ffffffffffffffffffffffffffffffffffffffff1673ffffffffffffffffffffffffffffffffffffffff1614612c7d576040517f08c379a0000000000000000000000000000000000000000000000000000000008152600401612c7490615462565b60405180910390fd5b6000600560008473ffffffffffffffffffffffffffffffffffffffff1673ffffffffffffffffffffffffffffffffffffffff1681526020019081526020016000205414612cff576040517f08c379a0000000000000000000000000000000000000000000000000000000008152600401612cf6906154f4565b60405180910390fd5b6000600460008473ffffffffffffffffffffffffffffffffffffffff1673ffffffffffffffffffffffffffffffffffffffff168152602001908152602001600020541480612d8b575080600460008473ffffffffffffffffffffffffffffffffffffffff1673ffffffffffffffffffffffffffffffffffffffff16815260200190815260200160002054145b612dca576040517f08c379a0000000000000000000000000000000000000000000000000000000008152600401612dc190615586565b60405180910390fd5b612dd660008383612985565b6001600560008473ffffffffffffffffffffffffffffffffffffffff1673ffffffffffffffffffffffffffffffffffffffff1681526020019081526020016000206000828254612e2691906150e2565b92505081905550816003600083815260200190815260200160002060006101000a81548173ffffffffffffffffffffffffffffffffffffffff021916908373ffffffffffffffffffffffffffffffffffffffff16021790555080600460008473ffffffffffffffffffffffffffffffffffffffff1673ffffffffffffffffffffffffffffffffffffffff16815260200190815260200160002081905550808273ffffffffffffffffffffffffffffffffffffffff16600073ffffffffffffffffffffffffffffffffffffffff167fddf252ad1be2c89b69c2b068fc378daa952ba7f163c4a11628f55a4df523b3ef60405160405180910390a45050565b600080823b905060008111915050919050565b6000604051905090565b600080fd5b600080fd5b600061ffff82169050919050565b612f6181612f4a565b8114612f6c57600080fd5b50565b600081359050612f7e81612f58565b92915050565b600080fd5b600080fd5b6000601f19601f8301169050919050565b7f4e487b7100000000000000000000000000000000000000000000000000000000600052604160045260246000fd5b612fd782612f8e565b810181811067ffffffffffffffff82111715612ff657612ff5612f9f565b5b80604052505050565b6000613009612f36565b90506130158282612fce565b919050565b600067ffffffffffffffff82111561303557613034612f9f565b5b61303e82612f8e565b9050602081019050919050565b82818337600083830152505050565b600061306d6130688461301a565b612fff565b90508281526020810184848401111561308957613088612f89565b5b61309484828561304b565b509392505050565b600082601f8301126130b1576130b0612f84565b5b81356130c184826020860161305a565b91505092915050565b600067ffffffffffffffff82169050919050565b6130e7816130ca565b81146130f257600080fd5b50565b600081359050613104816130de565b92915050565b6000806000806080858703121561312457613123612f40565b5b600061313287828801612f6f565b945050602085013567ffffffffffffffff81111561315357613152612f45565b5b61315f8782880161309c565b9350506040613170878288016130f5565b925050606085013567ffffffffffffffff81111561319157613190612f45565b5b61319d8782880161309c565b91505092959194509250565b60007fffffffff0000000000000000000000000000000000000000000000000000000082169050919050565b6131de816131a9565b81146131e957600080fd5b50565b6000813590506131fb816131d5565b92915050565b60006020828403121561321757613216612f40565b5b6000613225848285016131ec565b91505092915050565b60008115159050919050565b6132438161322e565b82525050565b600060208201905061325e600083018461323a565b92915050565b600081519050919050565b600082825260208201905092915050565b60005b8381101561329e578082015181840152602081019050613283565b60008484015250505050565b60006132b582613264565b6132bf818561326f565b93506132cf818560208601613280565b6132d881612f8e565b840191505092915050565b600060208201905081810360008301526132fd81846132aa565b905092915050565b6000819050919050565b61331881613305565b811461332357600080fd5b50565b6000813590506133358161330f565b92915050565b60006020828403121561335157613350612f40565b5b600061335f84828501613326565b91505092915050565b600073ffffffffffffffffffffffffffffffffffffffff82169050919050565b600061339382613368565b9050919050565b6133a381613388565b82525050565b60006020820190506133be600083018461339a565b92915050565b6133cd81613388565b81146133d857600080fd5b50565b6000813590506133ea816133c4565b92915050565b6000806040838503121561340757613406612f40565b5b6000613415858286016133db565b925050602061342685828601613326565b9150509250929050565b60008060006060848603121561344957613448612f40565b5b6000613457868287016133db565b9350506020613468868287016133db565b925050604061347986828701613326565b9150509250925092565b61348c81613305565b82525050565b60006020820190506134a76000830184613483565b92915050565b600067ffffffffffffffff8211156134c8576134c7612f9f565b5b6134d182612f8e565b9050602081019050919050565b60006134f16134ec846134ad565b612fff565b90508281526020810184848401111561350d5761350c612f89565b5b61351884828561304b565b509392505050565b600082601f83011261353557613534612f84565b5b81356135458482602086016134de565b91505092915050565b60006020828403121561356457613563612f40565b5b600082013567ffffffffffffffff81111561358257613581612f45565b5b61358e84828501613520565b91505092915050565b6000602082840312156135ad576135ac612f40565b5b60006135bb848285016133db565b91505092915050565b6000602082840312156135da576135d9612f40565b5b60006135e884828501612f6f565b91505092915050565b600081519050919050565b600082825260208201905092915050565b6000613618826135f1565b61362281856135fc565b9350613632818560208601613280565b61363b81612f8e565b840191505092915050565b60006020820190508181036000830152613660818461360d565b905092915050565b60008060006060848603121561368157613680612f40565b5b600061368f86828701612f6f565b935050602084013567ffffffffffffffff8111156136b0576136af612f45565b5b6136bc8682870161309c565b92505060406136cd86828701613326565b9150509250925092565b6000819050919050565b6136ea816136d7565b82525050565b60006040820190506137056000830185613483565b61371260208301846136e1565b9392505050565b6137228161322e565b811461372d57600080fd5b50565b60008135905061373f81613719565b92915050565b6000806040838503121561375c5761375b612f40565b5b600061376a858286016133db565b925050602061377b85828601613730565b9150509250929050565b6000819050919050565b60006137aa6137a56137a084613368565b613785565b613368565b9050919050565b60006137bc8261378f565b9050919050565b60006137ce826137b1565b9050919050565b6137de816137c3565b82525050565b60006020820190506137f960008301846137d5565b92915050565b6000806000806080858703121561381957613818612f40565b5b6000613827878288016133db565b9450506020613838878288016133db565b935050604061384987828801613326565b925050606085013567ffffffffffffffff81111561386a57613869612f45565b5b6138768782880161309c565b91505092959194509250565b6000806040838503121561389957613898612f40565b5b60006138a785828601612f6f565b92505060206138b885828601613326565b9150509250929050565b600080fd5b600080fd5b60008083601f8401126138e2576138e1612f84565b5b8235905067ffffffffffffffff8111156138ff576138fe6138c2565b5b60208301915083600182028301111561391b5761391a6138c7565b5b9250929050565b60008060008060006080868803121561393e5761393d612f40565b5b600061394c88828901612f6f565b955050602086013567ffffffffffffffff81111561396d5761396c612f45565b5b6139798882890161309c565b945050604061398a888289016130f5565b935050606086013567ffffffffffffffff8111156139ab576139aa612f45565b5b6139b7888289016138cc565b92509250509295509295909350565b600080604083850312156139dd576139dc612f40565b5b60006139eb858286016133db565b92505060206139fc858286016133db565b9150509250929050565b600080600060408486031215613a1f57613a1e612f40565b5b6000613a2d86828701612f6f565b935050602084013567ffffffffffffffff811115613a4e57613a4d612f45565b5b613a5a868287016138cc565b92509250509250925092565b7f4e487b7100000000000000000000000000000000000000000000000000000000600052602260045260246000fd5b60006002820490506001821680613aad57607f821691505b602082108103613ac057613abf613a66565b5b50919050565b600081905092915050565b60008190508160005260206000209050919050565b60008154613af381613a95565b613afd8186613ac6565b94506001821660008114613b185760018114613b2d57613b60565b60ff1983168652811515820286019350613b60565b613b3685613ad1565b60005b83811015613b5857815481890152600182019150602081019050613b39565b838801955050505b50505092915050565b6000613b758284613ae6565b915081905092915050565b7f4e6f6e626c6f636b696e6752656365697665723a20696e76616c696420736f7560008201527f7263652073656e64696e6720636f6e7472616374000000000000000000000000602082015250565b6000613bdc60348361326f565b9150613be782613b80565b604082019050919050565b60006020820190508181036000830152613c0b81613bcf565b9050919050565b613c1b81612f4a565b82525050565b613c2a816130ca565b82525050565b6000608082019050613c456000830187613c12565b8181036020830152613c57818661360d565b9050613c666040830185613c21565b8181036060830152613c78818461360d565b905095945050505050565b6000613c8e826135f1565b613c988185613ac6565b9350613ca8818560208601613280565b80840191505092915050565b6000613cc08284613c83565b915081905092915050565b7f4552433732313a20617070726f76656420717565727920666f72206e6f6e657860008201527f697374656e7420746f6b656e0000000000000000000000000000000000000000602082015250565b6000613d27602c8361326f565b9150613d3282613ccb565b604082019050919050565b60006020820190508181036000830152613d5681613d1a565b9050919050565b7f4552433732313a20617070726f76616c20746f2063757272656e74206f776e6560008201527f7200000000000000000000000000000000000000000000000000000000000000602082015250565b6000613db960218361326f565b9150613dc482613d5d565b604082019050919050565b60006020820190508181036000830152613de881613dac565b9050919050565b7f4552433732313a20617070726f76652063616c6c6572206973206e6f74206f7760008201527f6e6572206e6f7220617070726f76656420666f7220616c6c0000000000000000602082015250565b6000613e4b60388361326f565b9150613e5682613def565b604082019050919050565b60006020820190508181036000830152613e7a81613e3e565b9050919050565b7f4e6f6e626c6f636b696e6752656365697665723a2063616c6c6572206d75737460008201527f206265204272696467652e000000000000000000000000000000000000000000602082015250565b6000613edd602b8361326f565b9150613ee882613e81565b604082019050919050565b60006020820190508181036000830152613f0c81613ed0565b9050919050565b600081519050613f228161330f565b92915050565b600060208284031215613f3e57613f3d612f40565b5b6000613f4c84828501613f13565b91505092915050565b7f4552433732313a207472616e736665722063616c6c6572206973206e6f74206f60008201527f776e6572206e6f7220617070726f766564000000000000000000000000000000602082015250565b6000613fb160318361326f565b9150613fbc82613f55565b604082019050919050565b60006020820190508181036000830152613fe081613fa4565b9050919050565b7f4f776e61626c653a2063616c6c6572206973206e6f7420746865206f776e6572600082015250565b600061401d60208361326f565b915061402882613fe7565b602082019050919050565b6000602082019050818103600083015261404c81614010565b9050919050565b50565b6000614063600083613ac6565b915061406e82614053565b600082019050919050565b600061408482614056565b9150819050919050565b7f47473a204661696c656420746f20776974686472617720457468657200000000600082015250565b60006140c4601c8361326f565b91506140cf8261408e565b602082019050919050565b600060208201905081810360008301526140f3816140b7565b9050919050565b60008190508160005260206000209050919050565b60006020601f8301049050919050565b600082821b905092915050565b60006008830261415c7fffffffffffffffffffffffffffffffffffffffffffffffffffffffffffffffff8261411f565b614166868361411f565b95508019841693508086168417925050509392505050565b600061419961419461418f84613305565b613785565b613305565b9050919050565b6000819050919050565b6141b38361417e565b6141c76141bf826141a0565b84845461412c565b825550505050565b600090565b6141dc6141cf565b6141e78184846141aa565b505050565b5b8181101561420b576142006000826141d4565b6001810190506141ed565b5050565b601f82111561425057614221816140fa565b61422a8461410f565b81016020851015614239578190505b61424d6142458561410f565b8301826141ec565b50505b505050565b600082821c905092915050565b600061427360001984600802614255565b1980831691505092915050565b600061428c8383614262565b9150826002028217905092915050565b6142a582613264565b67ffffffffffffffff8111156142be576142bd612f9f565b5b6142c88254613a95565b6142d382828561420f565b600060209050601f83116001811461430657600084156142f4578287015190505b6142fe8582614280565b865550614366565b601f198416614314866140fa565b60005b8281101561433c57848901518255600182019150602085019450602081019050614317565b868310156143595784890151614355601f891682614262565b8355505b6001600288020188555050505b505050505050565b7f4552433732313a206f776e657220717565727920666f72206e6f6e657869737460008201527f656e7420746f6b656e0000000000000000000000000000000000000000000000602082015250565b60006143ca60298361326f565b91506143d58261436e565b604082019050919050565b600060208201905081810360008301526143f9816143bd565b9050919050565b7f4552433732313a2062616c616e636520717565727920666f7220746865207a6560008201527f726f206164647265737300000000000000000000000000000000000000000000602082015250565b600061445c602a8361326f565b915061446782614400565b604082019050919050565b6000602082019050818103600083015261448b8161444f565b9050919050565b7f4461734261627947656e657369733a20746f6b656e4964206d7573742062657460008201527f7765656e203120616e6420313030300000000000000000000000000000000000602082015250565b60006144ee602f8361326f565b91506144f982614492565b604082019050919050565b6000602082019050818103600083015261451d816144e1565b9050919050565b7f4461734261627947656e657369733a206e6f7420656e6f75676820446173426160008201527f6279436f696e20696e20796f75722077616c6c65740000000000000000000000602082015250565b600061458060358361326f565b915061458b82614524565b604082019050919050565b600060208201905081810360008301526145af81614573565b9050919050565b7f4552433732314d657461646174613a2055524920717565727920666f72206e6f60008201527f6e6578697374656e7420746f6b656e0000000000000000000000000000000000602082015250565b6000614612602f8361326f565b915061461d826145b6565b604082019050919050565b6000602082019050818103600083015261464181614605565b9050919050565b600081905092915050565b600061465e82613264565b6146688185614648565b9350614678818560208601613280565b80840191505092915050565b60006146908285614653565b915061469c8284614653565b91508190509392505050565b7f596f75206d757374206f776e2074686520746f6b656e20746f2074726176657260008201527f7365000000000000000000000000000000000000000000000000000000000000602082015250565b600061470460228361326f565b915061470f826146a8565b604082019050919050565b60006020820190508181036000830152614733816146f7565b9050919050565b7f5468697320636861696e2069732063757272656e746c7920756e617661696c6160008201527f626c6520666f722074726176656c000000000000000000000000000000000000602082015250565b6000614796602e8361326f565b91506147a18261473a565b604082019050919050565b600060208201905081810360008301526147c581614789565b9050919050565b60006040820190506147e1600083018561339a565b6147ee6020830184613483565b9392505050565b60008160f01b9050919050565b600061480d826147f5565b9050919050565b61482561482082612f4a565b614802565b82525050565b6000819050919050565b61484661484182613305565b61482b565b82525050565b60006148588285614814565b6002820191506148688284614835565b6020820191508190509392505050565b600060a08201905061488d6000830188613c12565b61489a602083018761339a565b81810360408301526148ac818661360d565b90506148bb606083018561323a565b81810360808301526148cd818461360d565b90509695505050505050565b600080604083850312156148f0576148ef612f40565b5b60006148fe85828601613f13565b925050602061490f85828601613f13565b9150509250929050565b7f4461734261627947656e657369733a206d73672e76616c7565206e6f7420656e60008201527f6f75676820746f20636f766572206d6573736167654665652e2053656e64206760208201527f617320666f72206d657373616765206665657300000000000000000000000000604082015250565b600061499b60538361326f565b91506149a682614919565b606082019050919050565b600060208201905081810360008301526149ca8161498e565b9050919050565b600081546149de81613a95565b6149e881866135fc565b94506001821660008114614a035760018114614a1957614a4c565b60ff198316865281151560200286019350614a4c565b614a2285613ad1565b60005b83811015614a4457815481890152600182019150602081019050614a25565b808801955050505b50505092915050565b6000614a6082613368565b9050919050565b614a7081614a55565b82525050565b600060c082019050614a8b6000830189613c12565b8181036020830152614a9d81886149d1565b90508181036040830152614ab1818761360d565b9050614ac06060830186614a67565b614acd608083018561339a565b81810360a0830152614adf818461360d565b9050979650505050505050565b7f4e6f6e626c6f636b696e6752656365697665723a206e6f2073746f726564206d60008201527f6573736167650000000000000000000000000000000000000000000000000000602082015250565b6000614b4860268361326f565b9150614b5382614aec565b604082019050919050565b60006020820190508181036000830152614b7781614b3b565b9050919050565b6000614b8a8385613ac6565b9350614b9783858461304b565b82840190509392505050565b6000614bb0828486614b7e565b91508190509392505050565b7f4c617965725a65726f3a20696e76616c6964207061796c6f6164000000000000600082015250565b6000614bf2601a8361326f565b9150614bfd82614bbc565b602082019050919050565b60006020820190508181036000830152614c2181614be5565b9050919050565b6000614c3483856135fc565b9350614c4183858461304b565b614c4a83612f8e565b840190509392505050565b6000608082019050614c6a6000830188613c12565b8181036020830152614c7c818761360d565b9050614c8b6040830186613c21565b8181036060830152614c9e818486614c28565b90509695505050505050565b600082905092915050565b601f821115614cf657614cc781613ad1565b614cd08461410f565b81016020851015614cdf578190505b614cf3614ceb8561410f565b8301826141ec565b50505b505050565b614d058383614caa565b67ffffffffffffffff811115614d1e57614d1d612f9f565b5b614d288254613a95565b614d33828285614cb5565b6000601f831160018114614d625760008415614d50578287013590505b614d5a8582614280565b865550614dc2565b601f198416614d7086613ad1565b60005b82811015614d9857848901358255600182019150602085019450602081019050614d73565b86831015614db55784890135614db1601f891682614262565b8355505b6001600288020188555050505b50505050505050565b7f4f776e61626c653a206e6577206f776e657220697320746865207a65726f206160008201527f6464726573730000000000000000000000000000000000000000000000000000602082015250565b6000614e2760268361326f565b9150614e3282614dcb565b604082019050919050565b60006020820190508181036000830152614e5681614e1a565b9050919050565b614e6681614a55565b8114614e7157600080fd5b50565b600081519050614e8381614e5d565b92915050565b60008060408385031215614ea057614e9f612f40565b5b6000614eae85828601614e74565b9250506020614ebf85828601613f13565b9150509250929050565b7f4552433732313a206f70657261746f7220717565727920666f72206e6f6e657860008201527f697374656e7420746f6b656e0000000000000000000000000000000000000000602082015250565b6000614f25602c8361326f565b9150614f3082614ec9565b604082019050919050565b60006020820190508181036000830152614f5481614f18565b9050919050565b7f4552433732313a207472616e73666572206f6620746f6b656e2074686174206960008201527f73206e6f74206f776e0000000000000000000000000000000000000000000000602082015250565b6000614fb760298361326f565b9150614fc282614f5b565b604082019050919050565b60006020820190508181036000830152614fe681614faa565b9050919050565b7f4552433732313a207472616e7366657220746f20746865207a65726f2061646460008201527f7265737300000000000000000000000000000000000000000000000000000000602082015250565b600061504960248361326f565b915061505482614fed565b604082019050919050565b600060208201905081810360008301526150788161503c565b9050919050565b7f4e487b7100000000000000000000000000000000000000000000000000000000600052601160045260246000fd5b60006150b982613305565b91506150c483613305565b92508282039050818111156150dc576150db61507f565b5b92915050565b60006150ed82613305565b91506150f883613305565b92508282019050808211156151105761510f61507f565b5b92915050565b7f4552433732313a20617070726f766520746f2063616c6c657200000000000000600082015250565b600061514c60198361326f565b915061515782615116565b602082019050919050565b6000602082019050818103600083015261517b8161513f565b9050919050565b7f4552433732313a207472616e7366657220746f206e6f6e20455243373231526560008201527f63656976657220696d706c656d656e7465720000000000000000000000000000602082015250565b60006151de60328361326f565b91506151e982615182565b604082019050919050565b6000602082019050818103600083015261520d816151d1565b9050919050565b600061521f82613305565b91507fffffffffffffffffffffffffffffffffffffffffffffffffffffffffffffffff82036152515761525061507f565b5b600182019050919050565b7f4e487b7100000000000000000000000000000000000000000000000000000000600052601260045260246000fd5b600061529682613305565b91506152a183613305565b9250826152b1576152b061525c565b5b828204905092915050565b60006152c782613305565b91506152d283613305565b9250826152e2576152e161525c565b5b828206905092915050565b7f4e487b7100000000000000000000000000000000000000000000000000000000600052603260045260246000fd5b6000608082019050615331600083018761339a565b61533e602083018661339a565b61534b6040830185613483565b818103606083015261535d818461360d565b905095945050505050565b600081519050615377816131d5565b92915050565b60006020828403121561539357615392612f40565b5b60006153a184828501615368565b91505092915050565b7f4552433732313a206d696e7420746f20746865207a65726f2061646472657373600082015250565b60006153e060208361326f565b91506153eb826153aa565b602082019050919050565b6000602082019050818103600083015261540f816153d3565b9050919050565b7f4552433732313a20616c7265616479206265206d696e74000000000000000000600082015250565b600061544c60178361326f565b915061545782615416565b602082019050919050565b6000602082019050818103600083015261547b8161543f565b9050919050565b7f4552433732313a206f6e6520616464726573732063616e206f6e6c79206d696e60008201527f74203120746f6b656e0000000000000000000000000000000000000000000000602082015250565b60006154de60298361326f565b91506154e982615482565b604082019050919050565b6000602082019050818103600083015261550d816154d1565b9050919050565b7f4552433732313a206d7573742062652030206f72206f726967696e20746f6b6560008201527f6e00000000000000000000000000000000000000000000000000000000000000602082015250565b600061557060218361326f565b915061557b82615514565b604082019050919050565b6000602082019050818103600083015261559f81615563565b905091905056fea2646970667358221220d6a6ccf3f3763f3fa53d21da744c0f80f5544bb4a26893e0e5f68ba77cc20bfb64736f6c63430008110033",
  "linkReferences": {},
  "deployedLinkReferences": {}
}