{
  "_format": "hh-sol-artifact-1",
  "contractName": "DasBaby",
  "sourceName": "contracts/DasBaby.sol",
  "abi": [
    {
      "inputs": [],
      "stateMutability": "nonpayable",
      "type": "constructor"
    },
    {
      "anonymous": false,
      "inputs": [
        {
          "indexed": true,
          "internalType": "address",
          "name": "owner",
          "type": "address"
        },
        {
          "indexed": true,
          "internalType": "address",
          "name": "spender",
          "type": "address"
        },
        {
          "indexed": false,
          "internalType": "uint256",
          "name": "value",
          "type": "uint256"
        }
      ],
      "name": "Approval",
      "type": "event"
    },
    {
      "anonymous": false,
      "inputs": [
        {
          "indexed": true,
          "internalType": "address",
          "name": "previousOwner",
          "type": "address"
        },
        {
          "indexed": true,
          "internalType": "address",
          "name": "newOwner",
          "type": "address"
        }
      ],
      "name": "OwnershipTransferred",
      "type": "event"
    },
    {
      "anonymous": false,
      "inputs": [
        {
          "indexed": false,
          "internalType": "uint256",
          "name": "tokensSwapped",
          "type": "uint256"
        },
        {
          "indexed": false,
          "internalType": "uint256",
          "name": "ethReceived",
          "type": "uint256"
        },
        {
          "indexed": false,
          "internalType": "uint256",
          "name": "tokensIntoLiqudity",
          "type": "uint256"
        }
      ],
      "name": "SwapAndLiquify",
      "type": "event"
    },
    {
      "anonymous": false,
      "inputs": [
        {
          "indexed": false,
          "internalType": "bool",
          "name": "enabled",
          "type": "bool"
        }
      ],
      "name": "SwapAndLiquifyEnabledUpdated",
      "type": "event"
    },
    {
      "anonymous": false,
      "inputs": [
        {
          "indexed": false,
          "internalType": "uint256",
          "name": "amountIn",
          "type": "uint256"
        },
        {
          "indexed": false,
          "internalType": "address[]",
          "name": "path",
          "type": "address[]"
        }
      ],
      "name": "SwapETHForTokens",
      "type": "event"
    },
    {
      "anonymous": false,
      "inputs": [
        {
          "indexed": false,
          "internalType": "uint256",
          "name": "amountIn",
          "type": "uint256"
        },
        {
          "indexed": false,
          "internalType": "address[]",
          "name": "path",
          "type": "address[]"
        }
      ],
      "name": "SwapTokensForETH",
      "type": "event"
    },
    {
      "anonymous": false,
      "inputs": [
        {
          "indexed": true,
          "internalType": "address",
          "name": "from",
          "type": "address"
        },
        {
          "indexed": true,
          "internalType": "address",
          "name": "to",
          "type": "address"
        },
        {
          "indexed": false,
          "internalType": "uint256",
          "name": "value",
          "type": "uint256"
        }
      ],
      "name": "Transfer",
      "type": "event"
    },
    {
      "inputs": [],
      "name": "_buyLiquidityFee",
      "outputs": [
        {
          "internalType": "uint256",
          "name": "",
          "type": "uint256"
        }
      ],
      "stateMutability": "view",
      "type": "function"
    },
    {
      "inputs": [],
      "name": "_buyMarketingFee",
      "outputs": [
        {
          "internalType": "uint256",
          "name": "",
          "type": "uint256"
        }
      ],
      "stateMutability": "view",
      "type": "function"
    },
    {
      "inputs": [],
      "name": "_buyTeamFee",
      "outputs": [
        {
          "internalType": "uint256",
          "name": "",
          "type": "uint256"
        }
      ],
      "stateMutability": "view",
      "type": "function"
    },
    {
      "inputs": [],
      "name": "_liquidityShare",
      "outputs": [
        {
          "internalType": "uint256",
          "name": "",
          "type": "uint256"
        }
      ],
      "stateMutability": "view",
      "type": "function"
    },
    {
      "inputs": [],
      "name": "_marketingShare",
      "outputs": [
        {
          "internalType": "uint256",
          "name": "",
          "type": "uint256"
        }
      ],
      "stateMutability": "view",
      "type": "function"
    },
    {
      "inputs": [],
      "name": "_maxTxAmount",
      "outputs": [
        {
          "internalType": "uint256",
          "name": "",
          "type": "uint256"
        }
      ],
      "stateMutability": "view",
      "type": "function"
    },
    {
      "inputs": [],
      "name": "_sellLiquidityFee",
      "outputs": [
        {
          "internalType": "uint256",
          "name": "",
          "type": "uint256"
        }
      ],
      "stateMutability": "view",
      "type": "function"
    },
    {
      "inputs": [],
      "name": "_sellMarketingFee",
      "outputs": [
        {
          "internalType": "uint256",
          "name": "",
          "type": "uint256"
        }
      ],
      "stateMutability": "view",
      "type": "function"
    },
    {
      "inputs": [],
      "name": "_sellTeamFee",
      "outputs": [
        {
          "internalType": "uint256",
          "name": "",
          "type": "uint256"
        }
      ],
      "stateMutability": "view",
      "type": "function"
    },
    {
      "inputs": [],
      "name": "_teamShare",
      "outputs": [
        {
          "internalType": "uint256",
          "name": "",
          "type": "uint256"
        }
      ],
      "stateMutability": "view",
      "type": "function"
    },
    {
      "inputs": [],
      "name": "_totalDistributionShares",
      "outputs": [
        {
          "internalType": "uint256",
          "name": "",
          "type": "uint256"
        }
      ],
      "stateMutability": "view",
      "type": "function"
    },
    {
      "inputs": [],
      "name": "_totalTaxIfBuying",
      "outputs": [
        {
          "internalType": "uint256",
          "name": "",
          "type": "uint256"
        }
      ],
      "stateMutability": "view",
      "type": "function"
    },
    {
      "inputs": [],
      "name": "_totalTaxIfSelling",
      "outputs": [
        {
          "internalType": "uint256",
          "name": "",
          "type": "uint256"
        }
      ],
      "stateMutability": "view",
      "type": "function"
    },
    {
      "inputs": [],
      "name": "_walletMax",
      "outputs": [
        {
          "internalType": "uint256",
          "name": "",
          "type": "uint256"
        }
      ],
      "stateMutability": "view",
      "type": "function"
    },
    {
      "inputs": [
        {
          "internalType": "address",
          "name": "owner",
          "type": "address"
        },
        {
          "internalType": "address",
          "name": "spender",
          "type": "address"
        }
      ],
      "name": "allowance",
      "outputs": [
        {
          "internalType": "uint256",
          "name": "",
          "type": "uint256"
        }
      ],
      "stateMutability": "view",
      "type": "function"
    },
    {
      "inputs": [
        {
          "internalType": "address",
          "name": "spender",
          "type": "address"
        },
        {
          "internalType": "uint256",
          "name": "amount",
          "type": "uint256"
        }
      ],
      "name": "approve",
      "outputs": [
        {
          "internalType": "bool",
          "name": "",
          "type": "bool"
        }
      ],
      "stateMutability": "nonpayable",
      "type": "function"
    },
    {
      "inputs": [
        {
          "internalType": "address",
          "name": "account",
          "type": "address"
        }
      ],
      "name": "balanceOf",
      "outputs": [
        {
          "internalType": "uint256",
          "name": "",
          "type": "uint256"
        }
      ],
      "stateMutability": "view",
      "type": "function"
    },
    {
      "inputs": [
        {
          "internalType": "address",
          "name": "newRouterAddress",
          "type": "address"
        }
      ],
      "name": "changeRouterVersion",
      "outputs": [
        {
          "internalType": "address",
          "name": "newPairAddress",
          "type": "address"
        }
      ],
      "stateMutability": "nonpayable",
      "type": "function"
    },
    {
      "inputs": [],
      "name": "checkWalletLimit",
      "outputs": [
        {
          "internalType": "bool",
          "name": "",
          "type": "bool"
        }
      ],
      "stateMutability": "view",
      "type": "function"
    },
    {
      "inputs": [],
      "name": "deadAddress",
      "outputs": [
        {
          "internalType": "address",
          "name": "",
          "type": "address"
        }
      ],
      "stateMutability": "view",
      "type": "function"
    },
    {
      "inputs": [],
      "name": "decimals",
      "outputs": [
        {
          "internalType": "uint8",
          "name": "",
          "type": "uint8"
        }
      ],
      "stateMutability": "view",
      "type": "function"
    },
    {
      "inputs": [
        {
          "internalType": "address",
          "name": "spender",
          "type": "address"
        },
        {
          "internalType": "uint256",
          "name": "subtractedValue",
          "type": "uint256"
        }
      ],
      "name": "decreaseAllowance",
      "outputs": [
        {
          "internalType": "bool",
          "name": "",
          "type": "bool"
        }
      ],
      "stateMutability": "nonpayable",
      "type": "function"
    },
    {
      "inputs": [
        {
          "internalType": "bool",
          "name": "newValue",
          "type": "bool"
        }
      ],
      "name": "enableDisableWalletLimit",
      "outputs": [],
      "stateMutability": "nonpayable",
      "type": "function"
    },
    {
      "inputs": [],
      "name": "getCirculatingSupply",
      "outputs": [
        {
          "internalType": "uint256",
          "name": "",
          "type": "uint256"
        }
      ],
      "stateMutability": "view",
      "type": "function"
    },
    {
      "inputs": [],
      "name": "getTime",
      "outputs": [
        {
          "internalType": "uint256",
          "name": "",
          "type": "uint256"
        }
      ],
      "stateMutability": "view",
      "type": "function"
    },
    {
      "inputs": [
        {
          "internalType": "address",
          "name": "spender",
          "type": "address"
        },
        {
          "internalType": "uint256",
          "name": "addedValue",
          "type": "uint256"
        }
      ],
      "name": "increaseAllowance",
      "outputs": [
        {
          "internalType": "bool",
          "name": "",
          "type": "bool"
        }
      ],
      "stateMutability": "nonpayable",
      "type": "function"
    },
    {
      "inputs": [
        {
          "internalType": "address",
          "name": "",
          "type": "address"
        }
      ],
      "name": "isExcludedFromFee",
      "outputs": [
        {
          "internalType": "bool",
          "name": "",
          "type": "bool"
        }
      ],
      "stateMutability": "view",
      "type": "function"
    },
    {
      "inputs": [
        {
          "internalType": "address",
          "name": "",
          "type": "address"
        }
      ],
      "name": "isMarketPair",
      "outputs": [
        {
          "internalType": "bool",
          "name": "",
          "type": "bool"
        }
      ],
      "stateMutability": "view",
      "type": "function"
    },
    {
      "inputs": [
        {
          "internalType": "address",
          "name": "",
          "type": "address"
        }
      ],
      "name": "isTxLimitExempt",
      "outputs": [
        {
          "internalType": "bool",
          "name": "",
          "type": "bool"
        }
      ],
      "stateMutability": "view",
      "type": "function"
    },
    {
      "inputs": [
        {
          "internalType": "address",
          "name": "",
          "type": "address"
        }
      ],
      "name": "isWalletLimitExempt",
      "outputs": [
        {
          "internalType": "bool",
          "name": "",
          "type": "bool"
        }
      ],
      "stateMutability": "view",
      "type": "function"
    },
    {
      "inputs": [],
      "name": "marketingWalletAddress",
      "outputs": [
        {
          "internalType": "address payable",
          "name": "",
          "type": "address"
        }
      ],
      "stateMutability": "view",
      "type": "function"
    },
    {
      "inputs": [],
      "name": "minimumTokensBeforeSwapAmount",
      "outputs": [
        {
          "internalType": "uint256",
          "name": "",
          "type": "uint256"
        }
      ],
      "stateMutability": "view",
      "type": "function"
    },
    {
      "inputs": [],
      "name": "name",
      "outputs": [
        {
          "internalType": "string",
          "name": "",
          "type": "string"
        }
      ],
      "stateMutability": "view",
      "type": "function"
    },
    {
      "inputs": [],
      "name": "owner",
      "outputs": [
        {
          "internalType": "address",
          "name": "",
          "type": "address"
        }
      ],
      "stateMutability": "view",
      "type": "function"
    },
    {
      "inputs": [
        {
          "internalType": "uint256",
          "name": "newLiquidityTax",
          "type": "uint256"
        },
        {
          "internalType": "uint256",
          "name": "newMarketingTax",
          "type": "uint256"
        },
        {
          "internalType": "uint256",
          "name": "newTeamTax",
          "type": "uint256"
        }
      ],
      "name": "setBuyTaxes",
      "outputs": [],
      "stateMutability": "nonpayable",
      "type": "function"
    },
    {
      "inputs": [
        {
          "internalType": "uint256",
          "name": "newLiquidityShare",
          "type": "uint256"
        },
        {
          "internalType": "uint256",
          "name": "newMarketingShare",
          "type": "uint256"
        },
        {
          "internalType": "uint256",
          "name": "newTeamShare",
          "type": "uint256"
        }
      ],
      "name": "setDistributionSettings",
      "outputs": [],
      "stateMutability": "nonpayable",
      "type": "function"
    },
    {
      "inputs": [
        {
          "internalType": "address",
          "name": "account",
          "type": "address"
        },
        {
          "internalType": "bool",
          "name": "newValue",
          "type": "bool"
        }
      ],
      "name": "setIsExcludedFromFee",
      "outputs": [],
      "stateMutability": "nonpayable",
      "type": "function"
    },
    {
      "inputs": [
        {
          "internalType": "address",
          "name": "holder",
          "type": "address"
        },
        {
          "internalType": "bool",
          "name": "exempt",
          "type": "bool"
        }
      ],
      "name": "setIsTxLimitExempt",
      "outputs": [],
      "stateMutability": "nonpayable",
      "type": "function"
    },
    {
      "inputs": [
        {
          "internalType": "address",
          "name": "holder",
          "type": "address"
        },
        {
          "internalType": "bool",
          "name": "exempt",
          "type": "bool"
        }
      ],
      "name": "setIsWalletLimitExempt",
      "outputs": [],
      "stateMutability": "nonpayable",
      "type": "function"
    },
    {
      "inputs": [
        {
          "internalType": "address",
          "name": "account",
          "type": "address"
        },
        {
          "internalType": "bool",
          "name": "newValue",
          "type": "bool"
        }
      ],
      "name": "setMarketPairStatus",
      "outputs": [],
      "stateMutability": "nonpayable",
      "type": "function"
    },
    {
      "inputs": [
        {
          "internalType": "address",
          "name": "newAddress",
          "type": "address"
        }
      ],
      "name": "setMarketingWalletAddress",
      "outputs": [],
      "stateMutability": "nonpayable",
      "type": "function"
    },
    {
      "inputs": [
        {
          "internalType": "uint256",
          "name": "maxTxAmount",
          "type": "uint256"
        }
      ],
      "name": "setMaxTxAmount",
      "outputs": [],
      "stateMutability": "nonpayable",
      "type": "function"
    },
    {
      "inputs": [
        {
          "internalType": "uint256",
          "name": "newLimit",
          "type": "uint256"
        }
      ],
      "name": "setNumTokensBeforeSwap",
      "outputs": [],
      "stateMutability": "nonpayable",
      "type": "function"
    },
    {
      "inputs": [
        {
          "internalType": "uint256",
          "name": "newLiquidityTax",
          "type": "uint256"
        },
        {
          "internalType": "uint256",
          "name": "newMarketingTax",
          "type": "uint256"
        },
        {
          "internalType": "uint256",
          "name": "newTeamTax",
          "type": "uint256"
        }
      ],
      "name": "setSelTaxes",
      "outputs": [],
      "stateMutability": "nonpayable",
      "type": "function"
    },
    {
      "inputs": [
        {
          "internalType": "bool",
          "name": "newValue",
          "type": "bool"
        }
      ],
      "name": "setSwapAndLiquifyByLimitOnly",
      "outputs": [],
      "stateMutability": "nonpayable",
      "type": "function"
    },
    {
      "inputs": [
        {
          "internalType": "bool",
          "name": "_enabled",
          "type": "bool"
        }
      ],
      "name": "setSwapAndLiquifyEnabled",
      "outputs": [],
      "stateMutability": "nonpayable",
      "type": "function"
    },
    {
      "inputs": [
        {
          "internalType": "address",
          "name": "newAddress",
          "type": "address"
        }
      ],
      "name": "setTeamWalletAddress",
      "outputs": [],
      "stateMutability": "nonpayable",
      "type": "function"
    },
    {
      "inputs": [
        {
          "internalType": "uint256",
          "name": "newLimit",
          "type": "uint256"
        }
      ],
      "name": "setWalletLimit",
      "outputs": [],
      "stateMutability": "nonpayable",
      "type": "function"
    },
    {
      "inputs": [],
      "name": "swapAndLiquifyByLimitOnly",
      "outputs": [
        {
          "internalType": "bool",
          "name": "",
          "type": "bool"
        }
      ],
      "stateMutability": "view",
      "type": "function"
    },
    {
      "inputs": [],
      "name": "swapAndLiquifyEnabled",
      "outputs": [
        {
          "internalType": "bool",
          "name": "",
          "type": "bool"
        }
      ],
      "stateMutability": "view",
      "type": "function"
    },
    {
      "inputs": [],
      "name": "symbol",
      "outputs": [
        {
          "internalType": "string",
          "name": "",
          "type": "string"
        }
      ],
      "stateMutability": "view",
      "type": "function"
    },
    {
      "inputs": [],
      "name": "teamWalletAddress",
      "outputs": [
        {
          "internalType": "address payable",
          "name": "",
          "type": "address"
        }
      ],
      "stateMutability": "view",
      "type": "function"
    },
    {
      "inputs": [],
      "name": "totalSupply",
      "outputs": [
        {
          "internalType": "uint256",
          "name": "",
          "type": "uint256"
        }
      ],
      "stateMutability": "view",
      "type": "function"
    },
    {
      "inputs": [
        {
          "internalType": "address",
          "name": "recipient",
          "type": "address"
        },
        {
          "internalType": "uint256",
          "name": "amount",
          "type": "uint256"
        }
      ],
      "name": "transfer",
      "outputs": [
        {
          "internalType": "bool",
          "name": "",
          "type": "bool"
        }
      ],
      "stateMutability": "nonpayable",
      "type": "function"
    },
    {
      "inputs": [
        {
          "internalType": "address",
          "name": "sender",
          "type": "address"
        },
        {
          "internalType": "address",
          "name": "recipient",
          "type": "address"
        },
        {
          "internalType": "uint256",
          "name": "amount",
          "type": "uint256"
        }
      ],
      "name": "transferFrom",
      "outputs": [
        {
          "internalType": "bool",
          "name": "",
          "type": "bool"
        }
      ],
      "stateMutability": "nonpayable",
      "type": "function"
    },
    {
      "inputs": [
        {
          "internalType": "address",
          "name": "newOwner",
          "type": "address"
        }
      ],
      "name": "transferOwnership",
      "outputs": [],
      "stateMutability": "nonpayable",
      "type": "function"
    },
    {
      "inputs": [],
      "name": "uniswapPair",
      "outputs": [
        {
          "internalType": "address",
          "name": "",
          "type": "address"
        }
      ],
      "stateMutability": "view",
      "type": "function"
    },
    {
      "inputs": [],
      "name": "uniswapV2Router",
      "outputs": [
        {
          "internalType": "contract IUniswapV2Router02",
          "name": "",
          "type": "address"
        }
      ],
      "stateMutability": "view",
      "type": "function"
    },
    {
      "inputs": [],
      "name": "waiveOwnership",
      "outputs": [],
      "stateMutability": "nonpayable",
      "type": "function"
    },
    {
      "stateMutability": "payable",
      "type": "receive"
    }
  ],
  "bytecode": "0x60a06040526040518060400160405280600b81526020017f4461734261627920494e55000000000000000000000000000000000000000000815250600390816200004a919062000e15565b506040518060400160405280600781526020017f44617342616279000000000000000000000000000000000000000000000000008152506004908162000091919062000e15565b506009600560006101000a81548160ff021916908360ff16021790555073d09f21e8d0806c973a452225b3c51703b0035628600560016101000a81548173ffffffffffffffffffffffffffffffffffffffff021916908373ffffffffffffffffffffffffffffffffffffffff16021790555073d09f21e8d0806c973a452225b3c51703b0035628600660006101000a81548173ffffffffffffffffffffffffffffffffffffffff021916908373ffffffffffffffffffffffffffffffffffffffff16021790555061dead73ffffffffffffffffffffffffffffffffffffffff1660809073ffffffffffffffffffffffffffffffffffffffff168152506001600d556001600e556001600f55600160105560016011556001601255600160135560016014556001601555600360165560036017556003601855600560009054906101000a900460ff16600a620001e791906200108c565b6402540be400620001f99190620010dd565b601955600560009054906101000a900460ff16600a6200021a91906200108c565b6402540be4006200022c9190620010dd565b601a55600560009054906101000a900460ff16600a6200024d91906200108c565b6402540be4006200025f9190620010dd565b601b55600560009054906101000a900460ff16600a6200028091906200108c565b60646200028e9190620010dd565b601c556001601e60156101000a81548160ff0219169083151502179055506000601e60166101000a81548160ff0219169083151502179055506001601e60176101000a81548160ff021916908315150217905550348015620002ef57600080fd5b5060006200030262000b0760201b60201c565b9050806000806101000a81548173ffffffffffffffffffffffffffffffffffffffff021916908373ffffffffffffffffffffffffffffffffffffffff1602179055508073ffffffffffffffffffffffffffffffffffffffff16600073ffffffffffffffffffffffffffffffffffffffff167f8be0079c531659141344cd1fd0a4f28419497f9722a3daafe3b4186f6b6457e060405160405180910390a35060007310ed43c718714eb63d5aa57b78b54704e256024e90508073ffffffffffffffffffffffffffffffffffffffff1663c45a01556040518163ffffffff1660e01b8152600401602060405180830381865afa15801562000405573d6000803e3d6000fd5b505050506040513d601f19601f820116820180604052508101906200042b919062001192565b73ffffffffffffffffffffffffffffffffffffffff1663c9c65396308373ffffffffffffffffffffffffffffffffffffffff1663ad5c46486040518163ffffffff1660e01b8152600401602060405180830381865afa15801562000493573d6000803e3d6000fd5b505050506040513d601f19601f82011682018060405250810190620004b9919062001192565b6040518363ffffffff1660e01b8152600401620004d8929190620011d5565b6020604051808303816000875af1158015620004f8573d6000803e3d6000fd5b505050506040513d601f19601f820116820180604052508101906200051e919062001192565b601e60006101000a81548173ffffffffffffffffffffffffffffffffffffffff021916908373ffffffffffffffffffffffffffffffffffffffff16021790555080601d60006101000a81548173ffffffffffffffffffffffffffffffffffffffff021916908373ffffffffffffffffffffffffffffffffffffffff160217905550601954600860003073ffffffffffffffffffffffffffffffffffffffff1673ffffffffffffffffffffffffffffffffffffffff1681526020019081526020016000206000601d60009054906101000a900473ffffffffffffffffffffffffffffffffffffffff1673ffffffffffffffffffffffffffffffffffffffff1673ffffffffffffffffffffffffffffffffffffffff168152602001908152602001600020819055506001600960006200065a62000b0f60201b60201c565b73ffffffffffffffffffffffffffffffffffffffff1673ffffffffffffffffffffffffffffffffffffffff16815260200190815260200160002060006101000a81548160ff0219169083151502179055506001600960003073ffffffffffffffffffffffffffffffffffffffff1673ffffffffffffffffffffffffffffffffffffffff16815260200190815260200160002060006101000a81548160ff0219169083151502179055506200073c600f5462000728600e54600d5462000b3860201b620029721790919060201c565b62000b3860201b620029721790919060201c565b6016819055506200077b6012546200076760115460105462000b3860201b620029721790919060201c565b62000b3860201b620029721790919060201c565b601781905550620007ba601554620007a660145460135462000b3860201b620029721790919060201c565b62000b3860201b620029721790919060201c565b6018819055506001600a6000620007d662000b0f60201b60201c565b73ffffffffffffffffffffffffffffffffffffffff1673ffffffffffffffffffffffffffffffffffffffff16815260200190815260200160002060006101000a81548160ff0219169083151502179055506001600a6000601e60009054906101000a900473ffffffffffffffffffffffffffffffffffffffff1673ffffffffffffffffffffffffffffffffffffffff1673ffffffffffffffffffffffffffffffffffffffff16815260200190815260200160002060006101000a81548160ff0219169083151502179055506001600a60003073ffffffffffffffffffffffffffffffffffffffff1673ffffffffffffffffffffffffffffffffffffffff16815260200190815260200160002060006101000a81548160ff0219169083151502179055506001600b60006200090f62000b0f60201b60201c565b73ffffffffffffffffffffffffffffffffffffffff1673ffffffffffffffffffffffffffffffffffffffff16815260200190815260200160002060006101000a81548160ff0219169083151502179055506001600b60003073ffffffffffffffffffffffffffffffffffffffff1673ffffffffffffffffffffffffffffffffffffffff16815260200190815260200160002060006101000a81548160ff0219169083151502179055506001600c6000601e60009054906101000a900473ffffffffffffffffffffffffffffffffffffffff1673ffffffffffffffffffffffffffffffffffffffff1673ffffffffffffffffffffffffffffffffffffffff16815260200190815260200160002060006101000a81548160ff0219169083151502179055506019546007600062000a4962000b0760201b60201c565b73ffffffffffffffffffffffffffffffffffffffff1673ffffffffffffffffffffffffffffffffffffffff1681526020019081526020016000208190555062000a9762000b0760201b60201c565b73ffffffffffffffffffffffffffffffffffffffff16600073ffffffffffffffffffffffffffffffffffffffff167fddf252ad1be2c89b69c2b068fc378daa952ba7f163c4a11628f55a4df523b3ef60195460405162000af8919062001213565b60405180910390a350620012ee565b600033905090565b60008060009054906101000a900473ffffffffffffffffffffffffffffffffffffffff16905090565b600080828462000b49919062001230565b90508381101562000b91576040517f08c379a000000000000000000000000000000000000000000000000000000000815260040162000b8890620012cc565b60405180910390fd5b8091505092915050565b600081519050919050565b7f4e487b7100000000000000000000000000000000000000000000000000000000600052604160045260246000fd5b7f4e487b7100000000000000000000000000000000000000000000000000000000600052602260045260246000fd5b6000600282049050600182168062000c1d57607f821691505b60208210810362000c335762000c3262000bd5565b5b50919050565b60008190508160005260206000209050919050565b60006020601f8301049050919050565b600082821b905092915050565b60006008830262000c9d7fffffffffffffffffffffffffffffffffffffffffffffffffffffffffffffffff8262000c5e565b62000ca9868362000c5e565b95508019841693508086168417925050509392505050565b6000819050919050565b6000819050919050565b600062000cf662000cf062000cea8462000cc1565b62000ccb565b62000cc1565b9050919050565b6000819050919050565b62000d128362000cd5565b62000d2a62000d218262000cfd565b84845462000c6b565b825550505050565b600090565b62000d4162000d32565b62000d4e81848462000d07565b505050565b5b8181101562000d765762000d6a60008262000d37565b60018101905062000d54565b5050565b601f82111562000dc55762000d8f8162000c39565b62000d9a8462000c4e565b8101602085101562000daa578190505b62000dc262000db98562000c4e565b83018262000d53565b50505b505050565b600082821c905092915050565b600062000dea6000198460080262000dca565b1980831691505092915050565b600062000e05838362000dd7565b9150826002028217905092915050565b62000e208262000b9b565b67ffffffffffffffff81111562000e3c5762000e3b62000ba6565b5b62000e48825462000c04565b62000e5582828562000d7a565b600060209050601f83116001811462000e8d576000841562000e78578287015190505b62000e84858262000df7565b86555062000ef4565b601f19841662000e9d8662000c39565b60005b8281101562000ec75784890151825560018201915060208501945060208101905062000ea0565b8683101562000ee7578489015162000ee3601f89168262000dd7565b8355505b6001600288020188555050505b505050505050565b7f4e487b7100000000000000000000000000000000000000000000000000000000600052601160045260246000fd5b60008160011c9050919050565b6000808291508390505b600185111562000f8a5780860481111562000f625762000f6162000efc565b5b600185161562000f725780820291505b808102905062000f828562000f2b565b945062000f42565b94509492505050565b60008262000fa5576001905062001078565b8162000fb5576000905062001078565b816001811462000fce576002811462000fd9576200100f565b600191505062001078565b60ff84111562000fee5762000fed62000efc565b5b8360020a91508482111562001008576200100762000efc565b5b5062001078565b5060208310610133831016604e8410600b8410161715620010495782820a90508381111562001043576200104262000efc565b5b62001078565b62001058848484600162000f38565b9250905081840481111562001072576200107162000efc565b5b81810290505b9392505050565b600060ff82169050919050565b6000620010998262000cc1565b9150620010a6836200107f565b9250620010d57fffffffffffffffffffffffffffffffffffffffffffffffffffffffffffffffff848462000f93565b905092915050565b6000620010ea8262000cc1565b9150620010f78362000cc1565b9250828202620011078162000cc1565b9150828204841483151762001121576200112062000efc565b5b5092915050565b600080fd5b600073ffffffffffffffffffffffffffffffffffffffff82169050919050565b60006200115a826200112d565b9050919050565b6200116c816200114d565b81146200117857600080fd5b50565b6000815190506200118c8162001161565b92915050565b600060208284031215620011ab57620011aa62001128565b5b6000620011bb848285016200117b565b91505092915050565b620011cf816200114d565b82525050565b6000604082019050620011ec6000830185620011c4565b620011fb6020830184620011c4565b9392505050565b6200120d8162000cc1565b82525050565b60006020820190506200122a600083018462001202565b92915050565b60006200123d8262000cc1565b91506200124a8362000cc1565b925082820190508082111562001265576200126462000efc565b5b92915050565b600082825260208201905092915050565b7f536166654d6174683a206164646974696f6e206f766572666c6f770000000000600082015250565b6000620012b4601b836200126b565b9150620012c1826200127c565b602082019050919050565b60006020820190508181036000830152620012e781620012a5565b9050919050565b608051614bd2620013116000396000818161136d01526113990152614bd26000f3fe6080604052600436106103905760003560e01c806388790a68116101dc578063c816841b11610102578063dd62ed3e116100a0578063f1d5f5171161006f578063f1d5f51714610d83578063f2fde38b14610dac578063f84ba65d14610dd5578063f872858a14610dfe57610397565b8063dd62ed3e14610cc9578063ec28438a14610d06578063ef422a1814610d2f578063f0cd1dac14610d5857610397565b8063cab03471116100dc578063cab0347114610c1d578063d158272d14610c48578063da00097d14610c73578063dc44b6a014610c9e57610397565b8063c816841b14610b8a578063c860795214610bb5578063c867d60b14610be057610397565b8063a457c2d71161017a578063c2d4640e11610149578063c2d4640e14610ae2578063c469b6dd14610b0b578063c49b9a8014610b36578063c5d2418914610b5f57610397565b8063a457c2d714610a14578063a5d69d1f14610a51578063a83f53a714610a7a578063a9059cbb14610aa557610397565b8063914eb66a116101b6578063914eb66a1461097c57806395d89b4114610993578063a073d37f146109be578063a08e671f146109e957610397565b806388790a68146108e95780638b42507f146109145780638da5cb5b1461095157610397565b806339509351116102c157806357a5802f1161025f5780637d1db4a51161022e5780637d1db4a51461083f578063807c2d9c1461086a57806382eefb4314610895578063844d591c146108c057610397565b806357a5802f1461076f5780635881f3ef1461079a57806361a23c69146107d757806370a082311461080257610397565b80634a74bb021161029b5780634a74bb02146106b35780634cb80fd5146106de5780635342acb414610707578063557ed1ba1461074457610397565b806339509351146106105780633b97084a1461064d5780633ecad2711461067657610397565b80632198cf6c1161032e57806327c8f8351161030857806327c8f835146105665780632b112e49146105915780632c4b2334146105bc578063313ce567146105e557610397565b80632198cf6c146104d757806323b872dd146105005780632563ae831461053d57610397565b80631245e3471161036a5780631245e3471461042d5780631694505e1461045857806318160ddd146104835780631870517a146104ae57610397565b806306fdde031461039c578063095ea7b3146103c75780630d5e5c871461040457610397565b3661039757005b600080fd5b3480156103a857600080fd5b506103b1610e29565b6040516103be9190613d80565b60405180910390f35b3480156103d357600080fd5b506103ee60048036038101906103e99190613e3b565b610ebb565b6040516103fb9190613e96565b60405180910390f35b34801561041057600080fd5b5061042b60048036038101906104269190613eb1565b610ed9565b005b34801561043957600080fd5b50610442610fb9565b60405161044f9190613f25565b60405180910390f35b34801561046457600080fd5b5061046d610fdf565b60405161047a9190613f9f565b60405180910390f35b34801561048f57600080fd5b50610498611005565b6040516104a59190613fc9565b60405180910390f35b3480156104ba57600080fd5b506104d560048036038101906104d09190613eb1565b61100f565b005b3480156104e357600080fd5b506104fe60048036038101906104f99190614010565b6110ef565b005b34801561050c57600080fd5b5061052760048036038101906105229190614050565b6111df565b6040516105349190613e96565b60405180910390f35b34801561054957600080fd5b50610564600480360381019061055f91906140a3565b6112b9565b005b34801561057257600080fd5b5061057b61136b565b60405161058891906140df565b60405180910390f35b34801561059d57600080fd5b506105a661138f565b6040516105b39190613fc9565b60405180910390f35b3480156105c857600080fd5b506105e360048036038101906105de91906140fa565b6113d3565b005b3480156105f157600080fd5b506105fa6114ac565b6040516106079190614143565b60405180910390f35b34801561061c57600080fd5b5061063760048036038101906106329190613e3b565b6114c3565b6040516106449190613e96565b60405180910390f35b34801561065957600080fd5b50610674600480360381019061066f919061415e565b611576565b005b34801561068257600080fd5b5061069d600480360381019061069891906140fa565b611615565b6040516106aa9190613e96565b60405180910390f35b3480156106bf57600080fd5b506106c8611635565b6040516106d59190613e96565b60405180910390f35b3480156106ea57600080fd5b50610705600480360381019061070091906140fa565b611648565b005b34801561071357600080fd5b5061072e600480360381019061072991906140fa565b611721565b60405161073b9190613e96565b60405180910390f35b34801561075057600080fd5b50610759611741565b6040516107669190613fc9565b60405180910390f35b34801561077b57600080fd5b50610784611749565b6040516107919190613fc9565b60405180910390f35b3480156107a657600080fd5b506107c160048036038101906107bc91906140fa565b61174f565b6040516107ce91906140df565b60405180910390f35b3480156107e357600080fd5b506107ec611c52565b6040516107f99190613fc9565b60405180910390f35b34801561080e57600080fd5b50610829600480360381019061082491906140fa565b611c58565b6040516108369190613fc9565b60405180910390f35b34801561084b57600080fd5b50610854611ca1565b6040516108619190613fc9565b60405180910390f35b34801561087657600080fd5b5061087f611ca7565b60405161088c9190613fc9565b60405180910390f35b3480156108a157600080fd5b506108aa611cad565b6040516108b79190613fc9565b60405180910390f35b3480156108cc57600080fd5b506108e760048036038101906108e29190614010565b611cb3565b005b3480156108f557600080fd5b506108fe611da3565b60405161090b9190613fc9565b60405180910390f35b34801561092057600080fd5b5061093b600480360381019061093691906140fa565b611da9565b6040516109489190613e96565b60405180910390f35b34801561095d57600080fd5b50610966611dc9565b60405161097391906140df565b60405180910390f35b34801561098857600080fd5b50610991611df2565b005b34801561099f57600080fd5b506109a8611f47565b6040516109b59190613d80565b60405180910390f35b3480156109ca57600080fd5b506109d3611fd9565b6040516109e09190613fc9565b60405180910390f35b3480156109f557600080fd5b506109fe611fe3565b604051610a0b9190613fc9565b60405180910390f35b348015610a2057600080fd5b50610a3b6004803603810190610a369190613e3b565b611fe9565b604051610a489190613e96565b60405180910390f35b348015610a5d57600080fd5b50610a786004803603810190610a7391906140a3565b6120b6565b005b348015610a8657600080fd5b50610a8f612168565b604051610a9c9190613fc9565b60405180910390f35b348015610ab157600080fd5b50610acc6004803603810190610ac79190613e3b565b61216e565b604051610ad99190613e96565b60405180910390f35b348015610aee57600080fd5b50610b096004803603810190610b049190613eb1565b61218d565b005b348015610b1757600080fd5b50610b2061226d565b604051610b2d9190613fc9565b60405180910390f35b348015610b4257600080fd5b50610b5d6004803603810190610b5891906140a3565b612273565b005b348015610b6b57600080fd5b50610b7461235c565b604051610b819190613fc9565b60405180910390f35b348015610b9657600080fd5b50610b9f612362565b604051610bac91906140df565b60405180910390f35b348015610bc157600080fd5b50610bca612388565b604051610bd79190613fc9565b60405180910390f35b348015610bec57600080fd5b50610c076004803603810190610c0291906140fa565b61238e565b604051610c149190613e96565b60405180910390f35b348015610c2957600080fd5b50610c326123ae565b604051610c3f9190613fc9565b60405180910390f35b348015610c5457600080fd5b50610c5d6123b4565b604051610c6a9190613f25565b60405180910390f35b348015610c7f57600080fd5b50610c886123da565b604051610c959190613e96565b60405180910390f35b348015610caa57600080fd5b50610cb36123ed565b604051610cc09190613fc9565b60405180910390f35b348015610cd557600080fd5b50610cf06004803603810190610ceb919061418b565b6123f3565b604051610cfd9190613fc9565b60405180910390f35b348015610d1257600080fd5b50610d2d6004803603810190610d28919061415e565b61247a565b005b348015610d3b57600080fd5b50610d566004803603810190610d519190614010565b612519565b005b348015610d6457600080fd5b50610d6d612609565b604051610d7a9190613fc9565b60405180910390f35b348015610d8f57600080fd5b50610daa6004803603810190610da5919061415e565b61260f565b005b348015610db857600080fd5b50610dd36004803603810190610dce91906140fa565b6126ae565b005b348015610de157600080fd5b50610dfc6004803603810190610df79190614010565b61286f565b005b348015610e0a57600080fd5b50610e1361295f565b604051610e209190613e96565b60405180910390f35b606060038054610e38906141fa565b80601f0160208091040260200160405190810160405280929190818152602001828054610e64906141fa565b8015610eb15780601f10610e8657610100808354040283529160200191610eb1565b820191906000526020600020905b815481529060010190602001808311610e9457829003601f168201915b5050505050905090565b6000610ecf610ec86129d0565b84846129d8565b6001905092915050565b610ee16129d0565b73ffffffffffffffffffffffffffffffffffffffff1660008054906101000a900473ffffffffffffffffffffffffffffffffffffffff1673ffffffffffffffffffffffffffffffffffffffff1614610f6e576040517f08c379a0000000000000000000000000000000000000000000000000000000008152600401610f6590614277565b60405180910390fd5b826010819055508160118190555080601281905550610fae601254610fa060115460105461297290919063ffffffff16565b61297290919063ffffffff16565b601781905550505050565b600660009054906101000a900473ffffffffffffffffffffffffffffffffffffffff1681565b601d60009054906101000a900473ffffffffffffffffffffffffffffffffffffffff1681565b6000601954905090565b6110176129d0565b73ffffffffffffffffffffffffffffffffffffffff1660008054906101000a900473ffffffffffffffffffffffffffffffffffffffff1673ffffffffffffffffffffffffffffffffffffffff16146110a4576040517f08c379a000000000000000000000000000000000000000000000000000000000815260040161109b90614277565b60405180910390fd5b82600d8190555081600e8190555080600f819055506110e4600f546110d6600e54600d5461297290919063ffffffff16565b61297290919063ffffffff16565b601681905550505050565b6110f76129d0565b73ffffffffffffffffffffffffffffffffffffffff1660008054906101000a900473ffffffffffffffffffffffffffffffffffffffff1673ffffffffffffffffffffffffffffffffffffffff1614611184576040517f08c379a000000000000000000000000000000000000000000000000000000000815260040161117b90614277565b60405180910390fd5b80600a60008473ffffffffffffffffffffffffffffffffffffffff1673ffffffffffffffffffffffffffffffffffffffff16815260200190815260200160002060006101000a81548160ff0219169083151502179055505050565b60006111ec848484612ba1565b506112ae846111f96129d0565b6112a985604051806060016040528060288152602001614b5060289139600860008b73ffffffffffffffffffffffffffffffffffffffff1673ffffffffffffffffffffffffffffffffffffffff168152602001908152602001600020600061125f6129d0565b73ffffffffffffffffffffffffffffffffffffffff1673ffffffffffffffffffffffffffffffffffffffff168152602001908152602001600020546131849092919063ffffffff16565b6129d8565b600190509392505050565b6112c16129d0565b73ffffffffffffffffffffffffffffffffffffffff1660008054906101000a900473ffffffffffffffffffffffffffffffffffffffff1673ffffffffffffffffffffffffffffffffffffffff161461134e576040517f08c379a000000000000000000000000000000000000000000000000000000000815260040161134590614277565b60405180910390fd5b80601e60176101000a81548160ff02191690831515021790555050565b7f000000000000000000000000000000000000000000000000000000000000000081565b60006113ce6113bd7f0000000000000000000000000000000000000000000000000000000000000000611c58565b6019546131e890919063ffffffff16565b905090565b6113db6129d0565b73ffffffffffffffffffffffffffffffffffffffff1660008054906101000a900473ffffffffffffffffffffffffffffffffffffffff1673ffffffffffffffffffffffffffffffffffffffff1614611468576040517f08c379a000000000000000000000000000000000000000000000000000000000815260040161145f90614277565b60405180910390fd5b80600660006101000a81548173ffffffffffffffffffffffffffffffffffffffff021916908373ffffffffffffffffffffffffffffffffffffffff16021790555050565b6000600560009054906101000a900460ff16905090565b600061156c6114d06129d0565b8461156785600860006114e16129d0565b73ffffffffffffffffffffffffffffffffffffffff1673ffffffffffffffffffffffffffffffffffffffff16815260200190815260200160002060008973ffffffffffffffffffffffffffffffffffffffff1673ffffffffffffffffffffffffffffffffffffffff1681526020019081526020016000205461297290919063ffffffff16565b6129d8565b6001905092915050565b61157e6129d0565b73ffffffffffffffffffffffffffffffffffffffff1660008054906101000a900473ffffffffffffffffffffffffffffffffffffffff1673ffffffffffffffffffffffffffffffffffffffff161461160b576040517f08c379a000000000000000000000000000000000000000000000000000000000815260040161160290614277565b60405180910390fd5b80601c8190555050565b600c6020528060005260406000206000915054906101000a900460ff1681565b601e60159054906101000a900460ff1681565b6116506129d0565b73ffffffffffffffffffffffffffffffffffffffff1660008054906101000a900473ffffffffffffffffffffffffffffffffffffffff1673ffffffffffffffffffffffffffffffffffffffff16146116dd576040517f08c379a00000000000000000000000000000000000000000000000000000000081526004016116d490614277565b60405180910390fd5b80600560016101000a81548173ffffffffffffffffffffffffffffffffffffffff021916908373ffffffffffffffffffffffffffffffffffffffff16021790555050565b60096020528060005260406000206000915054906101000a900460ff1681565b600042905090565b60135481565b60006117596129d0565b73ffffffffffffffffffffffffffffffffffffffff1660008054906101000a900473ffffffffffffffffffffffffffffffffffffffff1673ffffffffffffffffffffffffffffffffffffffff16146117e6576040517f08c379a00000000000000000000000000000000000000000000000000000000081526004016117dd90614277565b60405180910390fd5b60008290508073ffffffffffffffffffffffffffffffffffffffff1663c45a01556040518163ffffffff1660e01b8152600401602060405180830381865afa158015611836573d6000803e3d6000fd5b505050506040513d601f19601f8201168201806040525081019061185a91906142ac565b73ffffffffffffffffffffffffffffffffffffffff1663e6a43905308373ffffffffffffffffffffffffffffffffffffffff1663ad5c46486040518163ffffffff1660e01b8152600401602060405180830381865afa1580156118c1573d6000803e3d6000fd5b505050506040513d601f19601f820116820180604052508101906118e591906142ac565b6040518363ffffffff1660e01b81526004016119029291906142d9565b602060405180830381865afa15801561191f573d6000803e3d6000fd5b505050506040513d601f19601f8201168201806040525081019061194391906142ac565b9150600073ffffffffffffffffffffffffffffffffffffffff168273ffffffffffffffffffffffffffffffffffffffff1603611ad6578073ffffffffffffffffffffffffffffffffffffffff1663c45a01556040518163ffffffff1660e01b8152600401602060405180830381865afa1580156119c4573d6000803e3d6000fd5b505050506040513d601f19601f820116820180604052508101906119e891906142ac565b73ffffffffffffffffffffffffffffffffffffffff1663c9c65396308373ffffffffffffffffffffffffffffffffffffffff1663ad5c46486040518163ffffffff1660e01b8152600401602060405180830381865afa158015611a4f573d6000803e3d6000fd5b505050506040513d601f19601f82011682018060405250810190611a7391906142ac565b6040518363ffffffff1660e01b8152600401611a909291906142d9565b6020604051808303816000875af1158015611aaf573d6000803e3d6000fd5b505050506040513d601f19601f82011682018060405250810190611ad391906142ac565b91505b81601e60006101000a81548173ffffffffffffffffffffffffffffffffffffffff021916908373ffffffffffffffffffffffffffffffffffffffff16021790555080601d60006101000a81548173ffffffffffffffffffffffffffffffffffffffff021916908373ffffffffffffffffffffffffffffffffffffffff1602179055506001600a6000601e60009054906101000a900473ffffffffffffffffffffffffffffffffffffffff1673ffffffffffffffffffffffffffffffffffffffff1673ffffffffffffffffffffffffffffffffffffffff16815260200190815260200160002060006101000a81548160ff0219169083151502179055506001600c6000601e60009054906101000a900473ffffffffffffffffffffffffffffffffffffffff1673ffffffffffffffffffffffffffffffffffffffff1673ffffffffffffffffffffffffffffffffffffffff16815260200190815260200160002060006101000a81548160ff02191690831515021790555050919050565b60145481565b6000600760008373ffffffffffffffffffffffffffffffffffffffff1673ffffffffffffffffffffffffffffffffffffffff168152602001908152602001600020549050919050565b601a5481565b601b5481565b60175481565b611cbb6129d0565b73ffffffffffffffffffffffffffffffffffffffff1660008054906101000a900473ffffffffffffffffffffffffffffffffffffffff1673ffffffffffffffffffffffffffffffffffffffff1614611d48576040517f08c379a0000000000000000000000000000000000000000000000000000000008152600401611d3f90614277565b60405180910390fd5b80600c60008473ffffffffffffffffffffffffffffffffffffffff1673ffffffffffffffffffffffffffffffffffffffff16815260200190815260200160002060006101000a81548160ff0219169083151502179055505050565b60105481565b600b6020528060005260406000206000915054906101000a900460ff1681565b60008060009054906101000a900473ffffffffffffffffffffffffffffffffffffffff16905090565b611dfa6129d0565b73ffffffffffffffffffffffffffffffffffffffff1660008054906101000a900473ffffffffffffffffffffffffffffffffffffffff1673ffffffffffffffffffffffffffffffffffffffff1614611e87576040517f08c379a0000000000000000000000000000000000000000000000000000000008152600401611e7e90614277565b60405180910390fd5b61dead73ffffffffffffffffffffffffffffffffffffffff1660008054906101000a900473ffffffffffffffffffffffffffffffffffffffff1673ffffffffffffffffffffffffffffffffffffffff167f8be0079c531659141344cd1fd0a4f28419497f9722a3daafe3b4186f6b6457e060405160405180910390a361dead6000806101000a81548173ffffffffffffffffffffffffffffffffffffffff021916908373ffffffffffffffffffffffffffffffffffffffff160217905550565b606060048054611f56906141fa565b80601f0160208091040260200160405190810160405280929190818152602001828054611f82906141fa565b8015611fcf5780601f10611fa457610100808354040283529160200191611fcf565b820191906000526020600020905b815481529060010190602001808311611fb257829003601f168201915b5050505050905090565b6000601c54905090565b60185481565b60006120ac611ff66129d0565b846120a785604051806060016040528060258152602001614b7860259139600860006120206129d0565b73ffffffffffffffffffffffffffffffffffffffff1673ffffffffffffffffffffffffffffffffffffffff16815260200190815260200160002060008a73ffffffffffffffffffffffffffffffffffffffff1673ffffffffffffffffffffffffffffffffffffffff168152602001908152602001600020546131849092919063ffffffff16565b6129d8565b6001905092915050565b6120be6129d0565b73ffffffffffffffffffffffffffffffffffffffff1660008054906101000a900473ffffffffffffffffffffffffffffffffffffffff1673ffffffffffffffffffffffffffffffffffffffff161461214b576040517f08c379a000000000000000000000000000000000000000000000000000000000815260040161214290614277565b60405180910390fd5b80601e60166101000a81548160ff02191690831515021790555050565b60155481565b600061218261217b6129d0565b8484612ba1565b506001905092915050565b6121956129d0565b73ffffffffffffffffffffffffffffffffffffffff1660008054906101000a900473ffffffffffffffffffffffffffffffffffffffff1673ffffffffffffffffffffffffffffffffffffffff1614612222576040517f08c379a000000000000000000000000000000000000000000000000000000000815260040161221990614277565b60405180910390fd5b82601381905550816014819055508060158190555061226260155461225460145460135461297290919063ffffffff16565b61297290919063ffffffff16565b601881905550505050565b600f5481565b61227b6129d0565b73ffffffffffffffffffffffffffffffffffffffff1660008054906101000a900473ffffffffffffffffffffffffffffffffffffffff1673ffffffffffffffffffffffffffffffffffffffff1614612308576040517f08c379a00000000000000000000000000000000000000000000000000000000081526004016122ff90614277565b60405180910390fd5b80601e60156101000a81548160ff0219169083151502179055507f53726dfcaf90650aa7eb35524f4d3220f07413c8d6cb404cc8c18bf5591bc159816040516123519190613e96565b60405180910390a150565b600e5481565b601e60009054906101000a900473ffffffffffffffffffffffffffffffffffffffff1681565b60115481565b600a6020528060005260406000206000915054906101000a900460ff1681565b60125481565b600560019054906101000a900473ffffffffffffffffffffffffffffffffffffffff1681565b601e60169054906101000a900460ff1681565b600d5481565b6000600860008473ffffffffffffffffffffffffffffffffffffffff1673ffffffffffffffffffffffffffffffffffffffff16815260200190815260200160002060008373ffffffffffffffffffffffffffffffffffffffff1673ffffffffffffffffffffffffffffffffffffffff16815260200190815260200160002054905092915050565b6124826129d0565b73ffffffffffffffffffffffffffffffffffffffff1660008054906101000a900473ffffffffffffffffffffffffffffffffffffffff1673ffffffffffffffffffffffffffffffffffffffff161461250f576040517f08c379a000000000000000000000000000000000000000000000000000000000815260040161250690614277565b60405180910390fd5b80601a8190555050565b6125216129d0565b73ffffffffffffffffffffffffffffffffffffffff1660008054906101000a900473ffffffffffffffffffffffffffffffffffffffff1673ffffffffffffffffffffffffffffffffffffffff16146125ae576040517f08c379a00000000000000000000000000000000000000000000000000000000081526004016125a590614277565b60405180910390fd5b80600960008473ffffffffffffffffffffffffffffffffffffffff1673ffffffffffffffffffffffffffffffffffffffff16815260200190815260200160002060006101000a81548160ff0219169083151502179055505050565b60165481565b6126176129d0565b73ffffffffffffffffffffffffffffffffffffffff1660008054906101000a900473ffffffffffffffffffffffffffffffffffffffff1673ffffffffffffffffffffffffffffffffffffffff16146126a4576040517f08c379a000000000000000000000000000000000000000000000000000000000815260040161269b90614277565b60405180910390fd5b80601b8190555050565b6126b66129d0565b73ffffffffffffffffffffffffffffffffffffffff1660008054906101000a900473ffffffffffffffffffffffffffffffffffffffff1673ffffffffffffffffffffffffffffffffffffffff1614612743576040517f08c379a000000000000000000000000000000000000000000000000000000000815260040161273a90614277565b60405180910390fd5b600073ffffffffffffffffffffffffffffffffffffffff168173ffffffffffffffffffffffffffffffffffffffff16036127b2576040517f08c379a00000000000000000000000000000000000000000000000000000000081526004016127a990614374565b60405180910390fd5b8073ffffffffffffffffffffffffffffffffffffffff1660008054906101000a900473ffffffffffffffffffffffffffffffffffffffff1673ffffffffffffffffffffffffffffffffffffffff167f8be0079c531659141344cd1fd0a4f28419497f9722a3daafe3b4186f6b6457e060405160405180910390a3806000806101000a81548173ffffffffffffffffffffffffffffffffffffffff021916908373ffffffffffffffffffffffffffffffffffffffff16021790555050565b6128776129d0565b73ffffffffffffffffffffffffffffffffffffffff1660008054906101000a900473ffffffffffffffffffffffffffffffffffffffff1673ffffffffffffffffffffffffffffffffffffffff1614612904576040517f08c379a00000000000000000000000000000000000000000000000000000000081526004016128fb90614277565b60405180910390fd5b80600b60008473ffffffffffffffffffffffffffffffffffffffff1673ffffffffffffffffffffffffffffffffffffffff16815260200190815260200160002060006101000a81548160ff0219169083151502179055505050565b601e60179054906101000a900460ff1681565b600080828461298191906143c3565b9050838110156129c6576040517f08c379a00000000000000000000000000000000000000000000000000000000081526004016129bd90614443565b60405180910390fd5b8091505092915050565b600033905090565b600073ffffffffffffffffffffffffffffffffffffffff168373ffffffffffffffffffffffffffffffffffffffff1603612a47576040517f08c379a0000000000000000000000000000000000000000000000000000000008152600401612a3e906144d5565b60405180910390fd5b600073ffffffffffffffffffffffffffffffffffffffff168273ffffffffffffffffffffffffffffffffffffffff1603612ab6576040517f08c379a0000000000000000000000000000000000000000000000000000000008152600401612aad90614567565b60405180910390fd5b80600860008573ffffffffffffffffffffffffffffffffffffffff1673ffffffffffffffffffffffffffffffffffffffff16815260200190815260200160002060008473ffffffffffffffffffffffffffffffffffffffff1673ffffffffffffffffffffffffffffffffffffffff168152602001908152602001600020819055508173ffffffffffffffffffffffffffffffffffffffff168373ffffffffffffffffffffffffffffffffffffffff167f8c5be1e5ebec7d5bd14f71427d1e84f3dd0314c0f7b2291e5b200ac8c7c3b92583604051612b949190613fc9565b60405180910390a3505050565b60008073ffffffffffffffffffffffffffffffffffffffff168473ffffffffffffffffffffffffffffffffffffffff1603612c11576040517f08c379a0000000000000000000000000000000000000000000000000000000008152600401612c08906145f9565b60405180910390fd5b600073ffffffffffffffffffffffffffffffffffffffff168373ffffffffffffffffffffffffffffffffffffffff1603612c80576040517f08c379a0000000000000000000000000000000000000000000000000000000008152600401612c779061468b565b60405180910390fd5b601e60149054906101000a900460ff1615612ca757612ca0848484613232565b905061317d565b600b60008573ffffffffffffffffffffffffffffffffffffffff1673ffffffffffffffffffffffffffffffffffffffff16815260200190815260200160002060009054906101000a900460ff16158015612d4b5750600b60008473ffffffffffffffffffffffffffffffffffffffff1673ffffffffffffffffffffffffffffffffffffffff16815260200190815260200160002060009054906101000a900460ff16155b15612d9657601a54821115612d95576040517f08c379a0000000000000000000000000000000000000000000000000000000008152600401612d8c9061471d565b60405180910390fd5b5b6000612da130611c58565b90506000601c548210159050808015612dc75750601e60149054906101000a900460ff16155b8015612e1d5750600c60008773ffffffffffffffffffffffffffffffffffffffff1673ffffffffffffffffffffffffffffffffffffffff16815260200190815260200160002060009054906101000a900460ff16155b8015612e355750601e60159054906101000a900460ff165b15612e5f57601e60169054906101000a900460ff1615612e5557601c5491505b612e5e82613405565b5b612ee8846040518060400160405280601481526020017f496e73756666696369656e742042616c616e6365000000000000000000000000815250600760008a73ffffffffffffffffffffffffffffffffffffffff1673ffffffffffffffffffffffffffffffffffffffff168152602001908152602001600020546131849092919063ffffffff16565b600760008873ffffffffffffffffffffffffffffffffffffffff1673ffffffffffffffffffffffffffffffffffffffff168152602001908152602001600020819055506000600960008873ffffffffffffffffffffffffffffffffffffffff1673ffffffffffffffffffffffffffffffffffffffff16815260200190815260200160002060009054906101000a900460ff1680612fce5750600960008773ffffffffffffffffffffffffffffffffffffffff1673ffffffffffffffffffffffffffffffffffffffff16815260200190815260200160002060009054906101000a900460ff165b612fe257612fdd8787876135f6565b612fe4565b845b9050601e60179054906101000a900460ff16801561304c5750600a60008773ffffffffffffffffffffffffffffffffffffffff1673ffffffffffffffffffffffffffffffffffffffff16815260200190815260200160002060009054906101000a900460ff16155b1561307b57601b5461306f8261306189611c58565b61297290919063ffffffff16565b111561307a57600080fd5b5b6130cd81600760008973ffffffffffffffffffffffffffffffffffffffff1673ffffffffffffffffffffffffffffffffffffffff1681526020019081526020016000205461297290919063ffffffff16565b600760008873ffffffffffffffffffffffffffffffffffffffff1673ffffffffffffffffffffffffffffffffffffffff168152602001908152602001600020819055508573ffffffffffffffffffffffffffffffffffffffff168773ffffffffffffffffffffffffffffffffffffffff167fddf252ad1be2c89b69c2b068fc378daa952ba7f163c4a11628f55a4df523b3ef8360405161316d9190613fc9565b60405180910390a3600193505050505b9392505050565b60008383111582906131cc576040517f08c379a00000000000000000000000000000000000000000000000000000000081526004016131c39190613d80565b60405180910390fd5b50600083856131db919061473d565b9050809150509392505050565b600061322a83836040518060400160405280601e81526020017f536166654d6174683a207375627472616374696f6e206f766572666c6f770000815250613184565b905092915050565b60006132bd826040518060400160405280601481526020017f496e73756666696369656e742042616c616e6365000000000000000000000000815250600760008873ffffffffffffffffffffffffffffffffffffffff1673ffffffffffffffffffffffffffffffffffffffff168152602001908152602001600020546131849092919063ffffffff16565b600760008673ffffffffffffffffffffffffffffffffffffffff1673ffffffffffffffffffffffffffffffffffffffff1681526020019081526020016000208190555061335282600760008673ffffffffffffffffffffffffffffffffffffffff1673ffffffffffffffffffffffffffffffffffffffff1681526020019081526020016000205461297290919063ffffffff16565b600760008573ffffffffffffffffffffffffffffffffffffffff1673ffffffffffffffffffffffffffffffffffffffff168152602001908152602001600020819055508273ffffffffffffffffffffffffffffffffffffffff168473ffffffffffffffffffffffffffffffffffffffff167fddf252ad1be2c89b69c2b068fc378daa952ba7f163c4a11628f55a4df523b3ef846040516133f29190613fc9565b60405180910390a3600190509392505050565b6001601e60146101000a81548160ff021916908315150217905550600061345e60026134506018546134426013548761381d90919063ffffffff16565b61389790919063ffffffff16565b61389790919063ffffffff16565b9050600061347582846131e890919063ffffffff16565b9050613480816138e1565b600047905060006134b16134a0600260135461389790919063ffffffff16565b6018546131e890919063ffffffff16565b905060006134ef60026134e1846134d36013548861381d90919063ffffffff16565b61389790919063ffffffff16565b61389790919063ffffffff16565b9050600061351a8361350c6015548761381d90919063ffffffff16565b61389790919063ffffffff16565b905060006135438261353585886131e890919063ffffffff16565b6131e890919063ffffffff16565b9050600081111561357b5761357a600560019054906101000a900473ffffffffffffffffffffffffffffffffffffffff1682613b5d565b5b60008211156135b1576135b0600660009054906101000a900473ffffffffffffffffffffffffffffffffffffffff1683613b5d565b5b6000831180156135c15750600087115b156135d1576135d08784613ba8565b5b505050505050506000601e60146101000a81548160ff02191690831515021790555050565b60008060009050600c60008673ffffffffffffffffffffffffffffffffffffffff1673ffffffffffffffffffffffffffffffffffffffff16815260200190815260200160002060009054906101000a900460ff161561367e5761367760646136696016548661381d90919063ffffffff16565b61389790919063ffffffff16565b90506136fc565b600c60008573ffffffffffffffffffffffffffffffffffffffff1673ffffffffffffffffffffffffffffffffffffffff16815260200190815260200160002060009054906101000a900460ff16156136fb576136f860646136ea6017548661381d90919063ffffffff16565b61389790919063ffffffff16565b90505b5b60008111156138005761375781600760003073ffffffffffffffffffffffffffffffffffffffff1673ffffffffffffffffffffffffffffffffffffffff1681526020019081526020016000205461297290919063ffffffff16565b600760003073ffffffffffffffffffffffffffffffffffffffff1673ffffffffffffffffffffffffffffffffffffffff168152602001908152602001600020819055503073ffffffffffffffffffffffffffffffffffffffff168573ffffffffffffffffffffffffffffffffffffffff167fddf252ad1be2c89b69c2b068fc378daa952ba7f163c4a11628f55a4df523b3ef836040516137f79190613fc9565b60405180910390a35b61381381846131e890919063ffffffff16565b9150509392505050565b600080830361382f5760009050613891565b6000828461383d9190614771565b905082848261384c91906147e2565b1461388c576040517f08c379a000000000000000000000000000000000000000000000000000000000815260040161388390614885565b60405180910390fd5b809150505b92915050565b60006138d983836040518060400160405280601a81526020017f536166654d6174683a206469766973696f6e206279207a65726f000000000000815250613c8d565b905092915050565b6000600267ffffffffffffffff8111156138fe576138fd6148a5565b5b60405190808252806020026020018201604052801561392c5781602001602082028036833780820191505090505b5090503081600081518110613944576139436148d4565b5b602002602001019073ffffffffffffffffffffffffffffffffffffffff16908173ffffffffffffffffffffffffffffffffffffffff1681525050601d60009054906101000a900473ffffffffffffffffffffffffffffffffffffffff1673ffffffffffffffffffffffffffffffffffffffff1663ad5c46486040518163ffffffff1660e01b8152600401602060405180830381865afa1580156139eb573d6000803e3d6000fd5b505050506040513d601f19601f82011682018060405250810190613a0f91906142ac565b81600181518110613a2357613a226148d4565b5b602002602001019073ffffffffffffffffffffffffffffffffffffffff16908173ffffffffffffffffffffffffffffffffffffffff1681525050613a8a30601d60009054906101000a900473ffffffffffffffffffffffffffffffffffffffff16846129d8565b601d60009054906101000a900473ffffffffffffffffffffffffffffffffffffffff1673ffffffffffffffffffffffffffffffffffffffff1663791ac9478360008430426040518663ffffffff1660e01b8152600401613aee9594939291906149fc565b600060405180830381600087803b158015613b0857600080fd5b505af1158015613b1c573d6000803e3d6000fd5b505050507f32cde87eb454f3a0b875ab23547023107cfad454363ec88ba5695e2c24aa52a78282604051613b51929190614a56565b60405180910390a15050565b8173ffffffffffffffffffffffffffffffffffffffff166108fc829081150290604051600060405180830381858888f19350505050158015613ba3573d6000803e3d6000fd5b505050565b613bd530601d60009054906101000a900473ffffffffffffffffffffffffffffffffffffffff16846129d8565b601d60009054906101000a900473ffffffffffffffffffffffffffffffffffffffff1673ffffffffffffffffffffffffffffffffffffffff1663f305d719823085600080613c21611dc9565b426040518863ffffffff1660e01b8152600401613c4396959493929190614a86565b60606040518083038185885af1158015613c61573d6000803e3d6000fd5b50505050506040513d601f19601f82011682018060405250810190613c869190614afc565b5050505050565b60008083118290613cd4576040517f08c379a0000000000000000000000000000000000000000000000000000000008152600401613ccb9190613d80565b60405180910390fd5b5060008385613ce391906147e2565b9050809150509392505050565b600081519050919050565b600082825260208201905092915050565b60005b83811015613d2a578082015181840152602081019050613d0f565b60008484015250505050565b6000601f19601f8301169050919050565b6000613d5282613cf0565b613d5c8185613cfb565b9350613d6c818560208601613d0c565b613d7581613d36565b840191505092915050565b60006020820190508181036000830152613d9a8184613d47565b905092915050565b600080fd5b600073ffffffffffffffffffffffffffffffffffffffff82169050919050565b6000613dd282613da7565b9050919050565b613de281613dc7565b8114613ded57600080fd5b50565b600081359050613dff81613dd9565b92915050565b6000819050919050565b613e1881613e05565b8114613e2357600080fd5b50565b600081359050613e3581613e0f565b92915050565b60008060408385031215613e5257613e51613da2565b5b6000613e6085828601613df0565b9250506020613e7185828601613e26565b9150509250929050565b60008115159050919050565b613e9081613e7b565b82525050565b6000602082019050613eab6000830184613e87565b92915050565b600080600060608486031215613eca57613ec9613da2565b5b6000613ed886828701613e26565b9350506020613ee986828701613e26565b9250506040613efa86828701613e26565b9150509250925092565b6000613f0f82613da7565b9050919050565b613f1f81613f04565b82525050565b6000602082019050613f3a6000830184613f16565b92915050565b6000819050919050565b6000613f65613f60613f5b84613da7565b613f40565b613da7565b9050919050565b6000613f7782613f4a565b9050919050565b6000613f8982613f6c565b9050919050565b613f9981613f7e565b82525050565b6000602082019050613fb46000830184613f90565b92915050565b613fc381613e05565b82525050565b6000602082019050613fde6000830184613fba565b92915050565b613fed81613e7b565b8114613ff857600080fd5b50565b60008135905061400a81613fe4565b92915050565b6000806040838503121561402757614026613da2565b5b600061403585828601613df0565b925050602061404685828601613ffb565b9150509250929050565b60008060006060848603121561406957614068613da2565b5b600061407786828701613df0565b935050602061408886828701613df0565b925050604061409986828701613e26565b9150509250925092565b6000602082840312156140b9576140b8613da2565b5b60006140c784828501613ffb565b91505092915050565b6140d981613dc7565b82525050565b60006020820190506140f460008301846140d0565b92915050565b6000602082840312156141105761410f613da2565b5b600061411e84828501613df0565b91505092915050565b600060ff82169050919050565b61413d81614127565b82525050565b60006020820190506141586000830184614134565b92915050565b60006020828403121561417457614173613da2565b5b600061418284828501613e26565b91505092915050565b600080604083850312156141a2576141a1613da2565b5b60006141b085828601613df0565b92505060206141c185828601613df0565b9150509250929050565b7f4e487b7100000000000000000000000000000000000000000000000000000000600052602260045260246000fd5b6000600282049050600182168061421257607f821691505b602082108103614225576142246141cb565b5b50919050565b7f4f776e61626c653a2063616c6c6572206973206e6f7420746865206f776e6572600082015250565b6000614261602083613cfb565b915061426c8261422b565b602082019050919050565b6000602082019050818103600083015261429081614254565b9050919050565b6000815190506142a681613dd9565b92915050565b6000602082840312156142c2576142c1613da2565b5b60006142d084828501614297565b91505092915050565b60006040820190506142ee60008301856140d0565b6142fb60208301846140d0565b9392505050565b7f4f776e61626c653a206e6577206f776e657220697320746865207a65726f206160008201527f6464726573730000000000000000000000000000000000000000000000000000602082015250565b600061435e602683613cfb565b915061436982614302565b604082019050919050565b6000602082019050818103600083015261438d81614351565b9050919050565b7f4e487b7100000000000000000000000000000000000000000000000000000000600052601160045260246000fd5b60006143ce82613e05565b91506143d983613e05565b92508282019050808211156143f1576143f0614394565b5b92915050565b7f536166654d6174683a206164646974696f6e206f766572666c6f770000000000600082015250565b600061442d601b83613cfb565b9150614438826143f7565b602082019050919050565b6000602082019050818103600083015261445c81614420565b9050919050565b7f45524332303a20617070726f76652066726f6d20746865207a65726f2061646460008201527f7265737300000000000000000000000000000000000000000000000000000000602082015250565b60006144bf602483613cfb565b91506144ca82614463565b604082019050919050565b600060208201905081810360008301526144ee816144b2565b9050919050565b7f45524332303a20617070726f766520746f20746865207a65726f20616464726560008201527f7373000000000000000000000000000000000000000000000000000000000000602082015250565b6000614551602283613cfb565b915061455c826144f5565b604082019050919050565b6000602082019050818103600083015261458081614544565b9050919050565b7f45524332303a207472616e736665722066726f6d20746865207a65726f20616460008201527f6472657373000000000000000000000000000000000000000000000000000000602082015250565b60006145e3602583613cfb565b91506145ee82614587565b604082019050919050565b60006020820190508181036000830152614612816145d6565b9050919050565b7f45524332303a207472616e7366657220746f20746865207a65726f206164647260008201527f6573730000000000000000000000000000000000000000000000000000000000602082015250565b6000614675602383613cfb565b915061468082614619565b604082019050919050565b600060208201905081810360008301526146a481614668565b9050919050565b7f5472616e7366657220616d6f756e74206578636565647320746865206d61785460008201527f78416d6f756e742e000000000000000000000000000000000000000000000000602082015250565b6000614707602883613cfb565b9150614712826146ab565b604082019050919050565b60006020820190508181036000830152614736816146fa565b9050919050565b600061474882613e05565b915061475383613e05565b925082820390508181111561476b5761476a614394565b5b92915050565b600061477c82613e05565b915061478783613e05565b925082820261479581613e05565b915082820484148315176147ac576147ab614394565b5b5092915050565b7f4e487b7100000000000000000000000000000000000000000000000000000000600052601260045260246000fd5b60006147ed82613e05565b91506147f883613e05565b925082614808576148076147b3565b5b828204905092915050565b7f536166654d6174683a206d756c7469706c69636174696f6e206f766572666c6f60008201527f7700000000000000000000000000000000000000000000000000000000000000602082015250565b600061486f602183613cfb565b915061487a82614813565b604082019050919050565b6000602082019050818103600083015261489e81614862565b9050919050565b7f4e487b7100000000000000000000000000000000000000000000000000000000600052604160045260246000fd5b7f4e487b7100000000000000000000000000000000000000000000000000000000600052603260045260246000fd5b6000819050919050565b600061492861492361491e84614903565b613f40565b613e05565b9050919050565b6149388161490d565b82525050565b600081519050919050565b600082825260208201905092915050565b6000819050602082019050919050565b61497381613dc7565b82525050565b6000614985838361496a565b60208301905092915050565b6000602082019050919050565b60006149a98261493e565b6149b38185614949565b93506149be8361495a565b8060005b838110156149ef5781516149d68882614979565b97506149e183614991565b9250506001810190506149c2565b5085935050505092915050565b600060a082019050614a116000830188613fba565b614a1e602083018761492f565b8181036040830152614a30818661499e565b9050614a3f60608301856140d0565b614a4c6080830184613fba565b9695505050505050565b6000604082019050614a6b6000830185613fba565b8181036020830152614a7d818461499e565b90509392505050565b600060c082019050614a9b60008301896140d0565b614aa86020830188613fba565b614ab5604083018761492f565b614ac2606083018661492f565b614acf60808301856140d0565b614adc60a0830184613fba565b979650505050505050565b600081519050614af681613e0f565b92915050565b600080600060608486031215614b1557614b14613da2565b5b6000614b2386828701614ae7565b9350506020614b3486828701614ae7565b9250506040614b4586828701614ae7565b915050925092509256fe45524332303a207472616e7366657220616d6f756e74206578636565647320616c6c6f77616e636545524332303a2064656372656173656420616c6c6f77616e63652062656c6f77207a65726fa26469706673582212202a82d79294507100490a96359b0dc6aa904f93d55d9dc7e3b09bd3489179965b64736f6c63430008110033",
  "linkReferences": {},
  "deployedLinkReferences": {}
}