{
  "_format": "hh-sol-artifact-1",
  "contractName": "Reward",
  "sourceName": "contracts/Reward.sol",
  "abi": [
    {
      "inputs": [
        {
          "internalType": "uint256",
          "name": "feePercent",
          "type": "uint256"
        },
        {
          "internalType": "address",
          "name": "feeDest",
          "type": "address"
        }
      ],
      "stateMutability": "nonpayable",
      "type": "constructor"
    },
    {
      "inputs": [
        {
          "internalType": "uint256",
          "name": "claimPoolId",
          "type": "uint256"
        }
      ],
      "name": "claimRewards",
      "outputs": [],
      "stateMutability": "nonpayable",
      "type": "function"
    },
    {
      "inputs": [
        {
          "internalType": "contract IERC20Metadata",
          "name": "depositToken",
          "type": "address"
        },
        {
          "internalType": "contract IERC20Metadata",
          "name": "rewardToken",
          "type": "address"
        },
        {
          "internalType": "uint256",
          "name": "supply",
          "type": "uint256"
        },
        {
          "internalType": "uint256",
          "name": "startBlock",
          "type": "uint256"
        },
        {
          "internalType": "uint256",
          "name": "endBlock",
          "type": "uint256"
        }
      ],
      "name": "createPool",
      "outputs": [],
      "stateMutability": "nonpayable",
      "type": "function"
    },
    {
      "inputs": [
        {
          "internalType": "uint256",
          "name": "depositPoolId",
          "type": "uint256"
        },
        {
          "internalType": "contract IERC20Metadata",
          "name": "token",
          "type": "address"
        },
        {
          "internalType": "uint256",
          "name": "amount",
          "type": "uint256"
        }
      ],
      "name": "deposit",
      "outputs": [],
      "stateMutability": "nonpayable",
      "type": "function"
    },
    {
      "inputs": [
        {
          "internalType": "uint256",
          "name": "withdrawPoolId",
          "type": "uint256"
        }
      ],
      "name": "emergencyWithdrawAll",
      "outputs": [],
      "stateMutability": "nonpayable",
      "type": "function"
    },
    {
      "inputs": [],
      "name": "fee",
      "outputs": [
        {
          "internalType": "uint256",
          "name": "",
          "type": "uint256"
        }
      ],
      "stateMutability": "view",
      "type": "function"
    },
    {
      "inputs": [],
      "name": "feeAddress",
      "outputs": [
        {
          "internalType": "address",
          "name": "",
          "type": "address"
        }
      ],
      "stateMutability": "view",
      "type": "function"
    },
    {
      "inputs": [],
      "name": "poolId",
      "outputs": [
        {
          "internalType": "uint256",
          "name": "",
          "type": "uint256"
        }
      ],
      "stateMutability": "view",
      "type": "function"
    },
    {
      "inputs": [
        {
          "internalType": "uint256",
          "name": "",
          "type": "uint256"
        }
      ],
      "name": "pools",
      "outputs": [
        {
          "internalType": "uint256",
          "name": "poolId",
          "type": "uint256"
        },
        {
          "internalType": "address",
          "name": "owner",
          "type": "address"
        },
        {
          "internalType": "contract IERC20Metadata",
          "name": "depositToken",
          "type": "address"
        },
        {
          "internalType": "contract IERC20Metadata",
          "name": "rewardToken",
          "type": "address"
        },
        {
          "internalType": "uint8",
          "name": "depositTokenDecimal",
          "type": "uint8"
        },
        {
          "internalType": "uint256",
          "name": "supply",
          "type": "uint256"
        },
        {
          "internalType": "uint256",
          "name": "depositAmount",
          "type": "uint256"
        },
        {
          "internalType": "uint256",
          "name": "startBlock",
          "type": "uint256"
        },
        {
          "internalType": "uint256",
          "name": "endBlock",
          "type": "uint256"
        },
        {
          "internalType": "uint256",
          "name": "rewardShare",
          "type": "uint256"
        },
        {
          "internalType": "uint256",
          "name": "rewardPerBlock",
          "type": "uint256"
        },
        {
          "internalType": "uint256",
          "name": "lastUpdateBlock",
          "type": "uint256"
        }
      ],
      "stateMutability": "view",
      "type": "function"
    },
    {
      "inputs": [
        {
          "internalType": "uint256",
          "name": "pid",
          "type": "uint256"
        }
      ],
      "name": "rewards",
      "outputs": [
        {
          "internalType": "uint256",
          "name": "userReward",
          "type": "uint256"
        }
      ],
      "stateMutability": "view",
      "type": "function"
    },
    {
      "inputs": [
        {
          "internalType": "address",
          "name": "",
          "type": "address"
        },
        {
          "internalType": "uint256",
          "name": "",
          "type": "uint256"
        }
      ],
      "name": "users",
      "outputs": [
        {
          "internalType": "address",
          "name": "user",
          "type": "address"
        },
        {
          "internalType": "contract IERC20Metadata",
          "name": "token",
          "type": "address"
        },
        {
          "internalType": "uint256",
          "name": "amount",
          "type": "uint256"
        },
        {
          "internalType": "uint256",
          "name": "depositBlock",
          "type": "uint256"
        }
      ],
      "stateMutability": "view",
      "type": "function"
    },
    {
      "inputs": [
        {
          "internalType": "uint256",
          "name": "withdrawPoolId",
          "type": "uint256"
        }
      ],
      "name": "withdrawAll",
      "outputs": [],
      "stateMutability": "nonpayable",
      "type": "function"
    }
  ],
  "bytecode": "0x608060405260036001553480156200001657600080fd5b50604051620027d5380380620027d583398181016040528101906200003c919062000131565b8160018190555080600260006101000a81548173ffffffffffffffffffffffffffffffffffffffff021916908373ffffffffffffffffffffffffffffffffffffffff160217905550505062000178565b600080fd5b6000819050919050565b620000a68162000091565b8114620000b257600080fd5b50565b600081519050620000c6816200009b565b92915050565b600073ffffffffffffffffffffffffffffffffffffffff82169050919050565b6000620000f982620000cc565b9050919050565b6200010b81620000ec565b81146200011757600080fd5b50565b6000815190506200012b8162000100565b92915050565b600080604083850312156200014b576200014a6200008c565b5b60006200015b85828601620000b5565b92505060206200016e858286016200011a565b9150509250929050565b61264d80620001886000396000f3fe608060405234801561001057600080fd5b50600436106100a95760003560e01c806385ac165a1161007157806385ac165a14610155578063958e2d3114610171578063ac4afa381461018d578063bc157ac1146101c8578063ddca3f43146101e4578063f301af4214610202576100a9565b80630962ef79146100ae5780631e93facb146100ca5780633e0dc34e146100e6578063412753581461010457806354a02f9e14610122575b600080fd5b6100c860048036038101906100c39190611e12565b610232565b005b6100e460048036038101906100df9190611e12565b610407565b005b6100ee610600565b6040516100fb9190611e4e565b60405180910390f35b61010c610606565b6040516101199190611eaa565b60405180910390f35b61013c60048036038101906101379190611ef1565b61062c565b60405161014c9493929190611f90565b60405180910390f35b61016f600480360381019061016a9190612013565b6106a9565b005b61018b60048036038101906101869190611e12565b6109a8565b005b6101a760048036038101906101a29190611e12565b610ba3565b6040516101bf9c9b9a999897969594939291906120aa565b60405180910390f35b6101e260048036038101906101dd9190612164565b610c70565b005b6101ec611235565b6040516101f99190611e4e565b60405180910390f35b61021c60048036038101906102179190611e12565b61123b565b6040516102299190611e4e565b60405180910390f35b61023b816115b1565b60006102468261123b565b9050600081036102565750610404565b60006003600084815260200190815260200160002060030160009054906101000a900473ffffffffffffffffffffffffffffffffffffffff1690506000606460015460646102a491906121e6565b846102af919061221a565b6102b9919061228b565b9050600081846102c991906121e6565b90506000821115610354578273ffffffffffffffffffffffffffffffffffffffff1663a9059cbb33846040518363ffffffff1660e01b815260040161030f9291906122bc565b6020604051808303816000875af115801561032e573d6000803e3d6000fd5b505050506040513d601f19601f82011682018060405250810190610352919061231d565b505b60008111156103ff578273ffffffffffffffffffffffffffffffffffffffff1663a9059cbb600260009054906101000a900473ffffffffffffffffffffffffffffffffffffffff16836040518363ffffffff1660e01b81526004016103ba9291906122bc565b6020604051808303816000875af11580156103d9573d6000803e3d6000fd5b505050506040513d601f19601f820116820180604052508101906103fd919061231d565b505b505050505b50565b60006003600083815260200190815260200160002060405180610180016040529081600082015481526020016001820160009054906101000a900473ffffffffffffffffffffffffffffffffffffffff1673ffffffffffffffffffffffffffffffffffffffff1673ffffffffffffffffffffffffffffffffffffffff1681526020016002820160009054906101000a900473ffffffffffffffffffffffffffffffffffffffff1673ffffffffffffffffffffffffffffffffffffffff1673ffffffffffffffffffffffffffffffffffffffff1681526020016003820160009054906101000a900473ffffffffffffffffffffffffffffffffffffffff1673ffffffffffffffffffffffffffffffffffffffff1673ffffffffffffffffffffffffffffffffffffffff1681526020016003820160149054906101000a900460ff1660ff1660ff168152602001600482015481526020016005820154815260200160068201548152602001600782015481526020016008820154815260200160098201548152602001600a8201548152505090508060e00151431180156105b0575060008160e00151115b6105ef576040517f08c379a00000000000000000000000000000000000000000000000000000000081526004016105e6906123a7565b60405180910390fd5b6105fc6000546001611915565b5050565b60005481565b600260009054906101000a900473ffffffffffffffffffffffffffffffffffffffff1681565b6004602052816000526040600020602052806000526040600020600091509150508060000160009054906101000a900473ffffffffffffffffffffffffffffffffffffffff16908060010160009054906101000a900473ffffffffffffffffffffffffffffffffffffffff16908060020154908060030154905084565b6000808154809291906106bb906123c7565b919050555060005460036000805481526020019081526020016000206000018190555033600360008054815260200190815260200160002060010160006101000a81548173ffffffffffffffffffffffffffffffffffffffff021916908373ffffffffffffffffffffffffffffffffffffffff16021790555084600360008054815260200190815260200160002060020160006101000a81548173ffffffffffffffffffffffffffffffffffffffff021916908373ffffffffffffffffffffffffffffffffffffffff16021790555083600360008054815260200190815260200160002060030160006101000a81548173ffffffffffffffffffffffffffffffffffffffff021916908373ffffffffffffffffffffffffffffffffffffffff1602179055508473ffffffffffffffffffffffffffffffffffffffff1663313ce5676040518163ffffffff1660e01b8152600401602060405180830381865afa15801561082b573d6000803e3d6000fd5b505050506040513d601f19601f8201168201806040525081019061084f919061243b565b600360008054815260200190815260200160002060030160146101000a81548160ff021916908360ff1602179055508260036000805481526020019081526020016000206004018190555081600360008054815260200190815260200160002060060181905550816003600080548152602001908152602001600020600a01819055508060036000805481526020019081526020016000206007018190555081816108fa91906121e6565b83610905919061228b565b6003600080548152602001908152602001600020600901819055508373ffffffffffffffffffffffffffffffffffffffff166323b872dd3330866040518463ffffffff1660e01b815260040161095d93929190612468565b6020604051808303816000875af115801561097c573d6000803e3d6000fd5b505050506040513d601f19601f820116820180604052508101906109a0919061231d565b505050505050565b60006003600083815260200190815260200160002060405180610180016040529081600082015481526020016001820160009054906101000a900473ffffffffffffffffffffffffffffffffffffffff1673ffffffffffffffffffffffffffffffffffffffff1673ffffffffffffffffffffffffffffffffffffffff1681526020016002820160009054906101000a900473ffffffffffffffffffffffffffffffffffffffff1673ffffffffffffffffffffffffffffffffffffffff1673ffffffffffffffffffffffffffffffffffffffff1681526020016003820160009054906101000a900473ffffffffffffffffffffffffffffffffffffffff1673ffffffffffffffffffffffffffffffffffffffff1673ffffffffffffffffffffffffffffffffffffffff1681526020016003820160149054906101000a900460ff1660ff1660ff168152602001600482015481526020016005820154815260200160068201548152602001600782015481526020016008820154815260200160098201548152602001600a82015481525050905080610100015143118015610b5357506000816101000151115b610b92576040517f08c379a0000000000000000000000000000000000000000000000000000000008152600401610b89906124eb565b60405180910390fd5b610b9f6000546000611915565b5050565b60036020528060005260406000206000915090508060000154908060010160009054906101000a900473ffffffffffffffffffffffffffffffffffffffff16908060020160009054906101000a900473ffffffffffffffffffffffffffffffffffffffff16908060030160009054906101000a900473ffffffffffffffffffffffffffffffffffffffff16908060030160149054906101000a900460ff169080600401549080600501549080600601549080600701549080600801549080600901549080600a015490508c565b6000600360008054815260200190815260200160002060405180610180016040529081600082015481526020016001820160009054906101000a900473ffffffffffffffffffffffffffffffffffffffff1673ffffffffffffffffffffffffffffffffffffffff1673ffffffffffffffffffffffffffffffffffffffff1681526020016002820160009054906101000a900473ffffffffffffffffffffffffffffffffffffffff1673ffffffffffffffffffffffffffffffffffffffff1673ffffffffffffffffffffffffffffffffffffffff1681526020016003820160009054906101000a900473ffffffffffffffffffffffffffffffffffffffff1673ffffffffffffffffffffffffffffffffffffffff1673ffffffffffffffffffffffffffffffffffffffff1681526020016003820160149054906101000a900460ff1660ff1660ff168152602001600482015481526020016005820154815260200160068201548152602001600782015481526020016008820154815260200160098201548152602001600a8201548152505090504381610100015110158015610e1c5750438160e0015111155b610e5b576040517f08c379a0000000000000000000000000000000000000000000000000000000008152600401610e5290612557565b60405180910390fd5b8273ffffffffffffffffffffffffffffffffffffffff16816040015173ffffffffffffffffffffffffffffffffffffffff1614610ecd576040517f08c379a0000000000000000000000000000000000000000000000000000000008152600401610ec4906125c3565b60405180910390fd5b8160036000805481526020019081526020016000206005016000828254610ef491906125e3565b92505081905550610f0484610232565b6000600460003373ffffffffffffffffffffffffffffffffffffffff1673ffffffffffffffffffffffffffffffffffffffff16815260200190815260200160002060008681526020019081526020016000206040518060800160405290816000820160009054906101000a900473ffffffffffffffffffffffffffffffffffffffff1673ffffffffffffffffffffffffffffffffffffffff1673ffffffffffffffffffffffffffffffffffffffff1681526020016001820160009054906101000a900473ffffffffffffffffffffffffffffffffffffffff1673ffffffffffffffffffffffffffffffffffffffff1673ffffffffffffffffffffffffffffffffffffffff16815260200160028201548152602001600382015481525050905083816020019073ffffffffffffffffffffffffffffffffffffffff16908173ffffffffffffffffffffffffffffffffffffffff1681525050828160400181815161106d91906125e3565b9150818152505033816000019073ffffffffffffffffffffffffffffffffffffffff16908173ffffffffffffffffffffffffffffffffffffffff16815250504381606001818152505080600460003373ffffffffffffffffffffffffffffffffffffffff1673ffffffffffffffffffffffffffffffffffffffff16815260200190815260200160002060008054815260200190815260200160002060008201518160000160006101000a81548173ffffffffffffffffffffffffffffffffffffffff021916908373ffffffffffffffffffffffffffffffffffffffff16021790555060208201518160010160006101000a81548173ffffffffffffffffffffffffffffffffffffffff021916908373ffffffffffffffffffffffffffffffffffffffff16021790555060408201518160020155606082015181600301559050508373ffffffffffffffffffffffffffffffffffffffff166323b872dd3330866040518463ffffffff1660e01b81526004016111ea93929190612468565b6020604051808303816000875af1158015611209573d6000803e3d6000fd5b505050506040513d601f19601f8201168201806040525081019061122d919061231d565b505050505050565b60015481565b6000806003600084815260200190815260200160002060405180610180016040529081600082015481526020016001820160009054906101000a900473ffffffffffffffffffffffffffffffffffffffff1673ffffffffffffffffffffffffffffffffffffffff1673ffffffffffffffffffffffffffffffffffffffff1681526020016002820160009054906101000a900473ffffffffffffffffffffffffffffffffffffffff1673ffffffffffffffffffffffffffffffffffffffff1673ffffffffffffffffffffffffffffffffffffffff1681526020016003820160009054906101000a900473ffffffffffffffffffffffffffffffffffffffff1673ffffffffffffffffffffffffffffffffffffffff1673ffffffffffffffffffffffffffffffffffffffff1681526020016003820160149054906101000a900460ff1660ff1660ff168152602001600482015481526020016005820154815260200160068201548152602001600782015481526020016008820154815260200160098201548152602001600a82015481525050905080610160015143116113e45760009150506115ac565b6000816101600151436113f791906121e6565b905060008260c00151836080015160ff1684610140015184611419919061221a565b611423919061221a565b61142d919061228b565b83610120015161143d91906125e3565b90506000600460003373ffffffffffffffffffffffffffffffffffffffff1673ffffffffffffffffffffffffffffffffffffffff16815260200190815260200160002060008781526020019081526020016000206040518060800160405290816000820160009054906101000a900473ffffffffffffffffffffffffffffffffffffffff1673ffffffffffffffffffffffffffffffffffffffff1673ffffffffffffffffffffffffffffffffffffffff1681526020016001820160009054906101000a900473ffffffffffffffffffffffffffffffffffffffff1673ffffffffffffffffffffffffffffffffffffffff1673ffffffffffffffffffffffffffffffffffffffff168152602001600282015481526020016003820154815250509050836080015160ff168460e001514361157691906121e6565b83611581919061228b565b82606001514361159191906121e6565b61159b919061221a565b6115a5919061228b565b9450505050505b919050565b60006003600083815260200190815260200160002060405180610180016040529081600082015481526020016001820160009054906101000a900473ffffffffffffffffffffffffffffffffffffffff1673ffffffffffffffffffffffffffffffffffffffff1673ffffffffffffffffffffffffffffffffffffffff1681526020016002820160009054906101000a900473ffffffffffffffffffffffffffffffffffffffff1673ffffffffffffffffffffffffffffffffffffffff1673ffffffffffffffffffffffffffffffffffffffff1681526020016003820160009054906101000a900473ffffffffffffffffffffffffffffffffffffffff1673ffffffffffffffffffffffffffffffffffffffff1673ffffffffffffffffffffffffffffffffffffffff1681526020016003820160149054906101000a900460ff1660ff1660ff168152602001600482015481526020016005820154815260200160068201548152602001600782015481526020016008820154815260200160098201548152602001600a82015481525050905080610160015143116117555750611912565b60008161016001514361176891906121e6565b90508160a0015182610140015182611780919061221a565b61178a919061228b565b826101200181815161179c91906125e3565b91508181525050438261016001818152505081600360008581526020019081526020016000206000820151816000015560208201518160010160006101000a81548173ffffffffffffffffffffffffffffffffffffffff021916908373ffffffffffffffffffffffffffffffffffffffff16021790555060408201518160020160006101000a81548173ffffffffffffffffffffffffffffffffffffffff021916908373ffffffffffffffffffffffffffffffffffffffff16021790555060608201518160030160006101000a81548173ffffffffffffffffffffffffffffffffffffffff021916908373ffffffffffffffffffffffffffffffffffffffff16021790555060808201518160030160146101000a81548160ff021916908360ff16021790555060a0820151816004015560c0820151816005015560e0820151816006015561010082015181600701556101208201518160080155610140820151816009015561016082015181600a015590505050505b50565b61191e82610232565b60006003600084815260200190815260200160002060405180610180016040529081600082015481526020016001820160009054906101000a900473ffffffffffffffffffffffffffffffffffffffff1673ffffffffffffffffffffffffffffffffffffffff1673ffffffffffffffffffffffffffffffffffffffff1681526020016002820160009054906101000a900473ffffffffffffffffffffffffffffffffffffffff1673ffffffffffffffffffffffffffffffffffffffff1673ffffffffffffffffffffffffffffffffffffffff1681526020016003820160009054906101000a900473ffffffffffffffffffffffffffffffffffffffff1673ffffffffffffffffffffffffffffffffffffffff1673ffffffffffffffffffffffffffffffffffffffff1681526020016003820160149054906101000a900460ff1660ff1660ff168152602001600482015481526020016005820154815260200160068201548152602001600782015481526020016008820154815260200160098201548152602001600a8201548152505090506000816040015190506000600460003373ffffffffffffffffffffffffffffffffffffffff1673ffffffffffffffffffffffffffffffffffffffff168152602001908152602001600020600086815260200190815260200160002060020154905060008103611b2157505050611dd3565b83611c06576000600460003373ffffffffffffffffffffffffffffffffffffffff1673ffffffffffffffffffffffffffffffffffffffff1681526020019081526020016000206000878152602001908152602001600020600201819055508173ffffffffffffffffffffffffffffffffffffffff1663a9059cbb33836040518363ffffffff1660e01b8152600401611bba9291906122bc565b6020604051808303816000875af1158015611bd9573d6000803e3d6000fd5b505050506040513d601f19601f82011682018060405250810190611bfd919061231d565b50505050611dd3565b60006064826001546064611c1a91906121e6565b611c24919061221a565b611c2e919061228b565b905060008183611c3e91906121e6565b90506000600460003373ffffffffffffffffffffffffffffffffffffffff1673ffffffffffffffffffffffffffffffffffffffff1681526020019081526020016000206000898152602001908152602001600020600201819055506000821115611d22578373ffffffffffffffffffffffffffffffffffffffff1663a9059cbb33846040518363ffffffff1660e01b8152600401611cdd9291906122bc565b6020604051808303816000875af1158015611cfc573d6000803e3d6000fd5b505050506040513d601f19601f82011682018060405250810190611d20919061231d565b505b6000811115611dcd578373ffffffffffffffffffffffffffffffffffffffff1663a9059cbb600260009054906101000a900473ffffffffffffffffffffffffffffffffffffffff16836040518363ffffffff1660e01b8152600401611d889291906122bc565b6020604051808303816000875af1158015611da7573d6000803e3d6000fd5b505050506040513d601f19601f82011682018060405250810190611dcb919061231d565b505b50505050505b5050565b600080fd5b6000819050919050565b611def81611ddc565b8114611dfa57600080fd5b50565b600081359050611e0c81611de6565b92915050565b600060208284031215611e2857611e27611dd7565b5b6000611e3684828501611dfd565b91505092915050565b611e4881611ddc565b82525050565b6000602082019050611e636000830184611e3f565b92915050565b600073ffffffffffffffffffffffffffffffffffffffff82169050919050565b6000611e9482611e69565b9050919050565b611ea481611e89565b82525050565b6000602082019050611ebf6000830184611e9b565b92915050565b611ece81611e89565b8114611ed957600080fd5b50565b600081359050611eeb81611ec5565b92915050565b60008060408385031215611f0857611f07611dd7565b5b6000611f1685828601611edc565b9250506020611f2785828601611dfd565b9150509250929050565b6000819050919050565b6000611f56611f51611f4c84611e69565b611f31565b611e69565b9050919050565b6000611f6882611f3b565b9050919050565b6000611f7a82611f5d565b9050919050565b611f8a81611f6f565b82525050565b6000608082019050611fa56000830187611e9b565b611fb26020830186611f81565b611fbf6040830185611e3f565b611fcc6060830184611e3f565b95945050505050565b6000611fe082611e89565b9050919050565b611ff081611fd5565b8114611ffb57600080fd5b50565b60008135905061200d81611fe7565b92915050565b600080600080600060a0868803121561202f5761202e611dd7565b5b600061203d88828901611ffe565b955050602061204e88828901611ffe565b945050604061205f88828901611dfd565b935050606061207088828901611dfd565b925050608061208188828901611dfd565b9150509295509295909350565b600060ff82169050919050565b6120a48161208e565b82525050565b6000610180820190506120c0600083018f611e3f565b6120cd602083018e611e9b565b6120da604083018d611f81565b6120e7606083018c611f81565b6120f4608083018b61209b565b61210160a083018a611e3f565b61210e60c0830189611e3f565b61211b60e0830188611e3f565b612129610100830187611e3f565b612137610120830186611e3f565b612145610140830185611e3f565b612153610160830184611e3f565b9d9c50505050505050505050505050565b60008060006060848603121561217d5761217c611dd7565b5b600061218b86828701611dfd565b935050602061219c86828701611ffe565b92505060406121ad86828701611dfd565b9150509250925092565b7f4e487b7100000000000000000000000000000000000000000000000000000000600052601160045260246000fd5b60006121f182611ddc565b91506121fc83611ddc565b9250828203905081811115612214576122136121b7565b5b92915050565b600061222582611ddc565b915061223083611ddc565b925082820261223e81611ddc565b91508282048414831517612255576122546121b7565b5b5092915050565b7f4e487b7100000000000000000000000000000000000000000000000000000000600052601260045260246000fd5b600061229682611ddc565b91506122a183611ddc565b9250826122b1576122b061225c565b5b828204905092915050565b60006040820190506122d16000830185611e9b565b6122de6020830184611e3f565b9392505050565b60008115159050919050565b6122fa816122e5565b811461230557600080fd5b50565b600081519050612317816122f1565b92915050565b60006020828403121561233357612332611dd7565b5b600061234184828501612308565b91505092915050565b600082825260208201905092915050565b7f706f6f6c206e6f74207374617274207965740000000000000000000000000000600082015250565b600061239160128361234a565b915061239c8261235b565b602082019050919050565b600060208201905081810360008301526123c081612384565b9050919050565b60006123d282611ddc565b91507fffffffffffffffffffffffffffffffffffffffffffffffffffffffffffffffff8203612404576124036121b7565b5b600182019050919050565b6124188161208e565b811461242357600080fd5b50565b6000815190506124358161240f565b92915050565b60006020828403121561245157612450611dd7565b5b600061245f84828501612426565b91505092915050565b600060608201905061247d6000830186611e9b565b61248a6020830185611e9b565b6124976040830184611e3f565b949350505050565b7f706f6f6c206e6f7420656e642079657400000000000000000000000000000000600082015250565b60006124d560108361234a565b91506124e08261249f565b602082019050919050565b60006020820190508181036000830152612504816124c8565b9050919050565b7f706f6f6c206e6f74206578697374206f7220616c726561647920656e64000000600082015250565b6000612541601d8361234a565b915061254c8261250b565b602082019050919050565b6000602082019050818103600083015261257081612534565b9050919050565b7f6e6f7420737570706f727420746f6b656e000000000000000000000000000000600082015250565b60006125ad60118361234a565b91506125b882612577565b602082019050919050565b600060208201905081810360008301526125dc816125a0565b9050919050565b60006125ee82611ddc565b91506125f983611ddc565b9250828201905080821115612611576126106121b7565b5b9291505056fea2646970667358221220d2a8de53f42ea44ec7902cd0c861f6e6cff0ca91d42e7413c6adec38cea507f564736f6c63430008110033",
  "linkReferences": {},
  "deployedLinkReferences": {}
}